:020000040800F2
:10000000700C0020E1500008DD040008DF04000847
:10001000E3040008E7040008EB0400080000000007
:10002000000000000000000000000000EF040008D5
:10003000F104000800000000F3040008F5040008C3
:10004000FB500008FB500008FB500008FB50000864
:10005000FB500008FB500008FB500008FB50000854
:10006000FB500008FB500008FB500008FB50000844
:10007000FB500008FB500008FB500008FB50000834
:10008000FB500008FB500008FB500008FB50000824
:10009000FB500008FB500008FB500008FB50000814
:1000A000FB500008FB500008FB500008FB50000804
:1000B000FB50000875040008FB500008FB500008C6
:1000C000FB500008CD040008D5040008FB500008D0
:1000D000FB500008C5040008FB500008FB50000856
:1000E000FB500008FB500008FB50000800F002F82D
:1000F00000F05AF80AA090E8000C82448344AAF168
:100100000107DA4501D100F04FF8AFF2090EBAE865
:100110000F0013F0010F18BFFB1A43F0010318473B
:10012000E0A2000000A300000A444FF0000C10F809
:10013000013B13F0070408BF10F8014B1D1108BF65
:1001400010F8015B641E05D010F8016B641E01F805
:10015000016BF9D113F0080F1EBF10F8014BAD1C55
:100160000C1B09D16D1E58BF01F801CBFAD505E073
:1001700014F8016B01F8016B6D1EF9D59142D6D3CD
:10018000704700000023002400250026103A28BFF5
:1001900078C1FBD8520728BF30C148BF0B607047F9
:1001A0001FB51FBD10B510BD08F0A2FB1146FFF72B
:1001B000F7FF00F047F808F0C0FB03B4FFF7F2FFC9
:1001C00003BC08F0C1FB00001CB503F06EFE03F099
:1001D0009DFE04F0C1FD03F099FE4FF4FA7004F0A7
:1001E0006BF902F0A5FE4FF4E13004F097F903201B
:1001F000009001231A467C490190A62007F0D9FF00
:1002000004F0FEFC04F0C6FD2821042004F0E8FE02
:1002100004F0C7FE18B175A004F089FA02E078A0D6
:1002200004F085FA02F076FE07F015F902F0A2FE5E
:1002300002F0BBFE02F0E3FE03F090FA012004F0AE
:100240005CF91CBDFFF7C0FFCCE0734800780028C4
:10025000FAD000207049087070480078401C6F493F
:1002600008706F480078401C6D4908706B48007832
:10027000012804D16B496C4804F0B9FAB2E00020BF
:100280006649087069496A4804F0B1FA6649B1F9EB
:100290000010674AB2F90020881800EBD0714910AD
:1002A00009B2644A11806049B1F90210604AB2F99A
:1002B0000220881800EBD071491009B25D4A5180C4
:1002C0005949B1F904105A4AB2F90420881800EBD0
:1002D000D071491009B2574A91805249B1F90010C2
:1002E000524AB2F90020881800EBD071491009B2C7
:1002F000514A11804B49B1F902104C4AB2F902201F
:10030000881800EBD071491009B24B4A5180454919
:10031000B1F90410454AB2F90420881800EBD071F5
:10032000491009B2444A91804449424800F0EEF82D
:10033000434A4249404800F033F942480378424A70
:100340003D493F4800F04CFC3E48007828B14FF44E
:1003500000513E4805F051F904E04FF400513B488C
:1003600005F04DF93A480078401C39490870394881
:100370000078401C3749087037480078401C3649DF
:10038000087036480078401C3449087030480078BE
:10039000052805D100202E49087001203049087039
:1003A0002C480078052805D100202A490870012032
:1003B0002C490870284800780A2805D100202649D1
:1003C0000870012028490870244800780A2809D1BB
:1003D000002022490870012024490870082124487F
:1003E00005F00BF931E70000801A06004E52463244
:1003F000344C3031204953204F4B20210D0A00004E
:100400004E524632344C3031204953204E4F542006
:100410004F4B20210D0A0000010000201900002090
:100420001A000020280000201C0000202E000020C0
:100430002200002002000020080000200E00002002
:10044000A401002018000020B0010020001001408D
:100450003400002035000020360000203700002046
:10046000900000208F0000209100002099000020C3
:10047000000C014010B52048008800F0010000B3D6
:100480004FF6FE701C4908801C480068401C1B4940
:1004900008601B480078401C1949087019480088FA
:1004A000401C1849088016480078022807D100200F
:1004B0001349087004F0EBFA01201349087002F0A8
:1004C0001AFC10BD10B504F07DF810BD10B508F091
:1004D00005F810BD10B508F0CDF910BD704700BF8C
:1004E000FEE700BFFEE700BFFEE700BFFEE7704784
:1004F000704770477047000010040040240100203E
:10050000380000203A00002001000020F0B502462B
:100510000023002400251688FE4FDFF8FCC39CF85A
:1005200000C027F81C605688FC4FDFF8ECC39CF82D
:1005300000C027F81C609688F94FDFF8DCC39CF8F0
:1005400000C027F81C6000200DE0F24E36F9106064
:100550003344F24E36F910603444F14E36F91060EF
:100560003544461CF0B21428EFDB142693FBF6F654
:1005700036B20E80142694FBF6F636B24E80142660
:1005800095FBF6F636B28E80E34E3678761CE24F57
:100590003E703E463678142E01D100263E70F0BDE6
:1005A00007B5A8B02998B0F90000119009F05AFCDD
:1005B00026902998B0F90200119009F053FC25907B
:1005C0002998B0F90400119009F04CFC2490289867
:1005D000B0F90000119009F045FC23902898B0F97B
:1005E0000200119009F03EFC22902898B0F9040016
:1005F000119009F037FC2190CA480168006809F0A1
:1006000091FC1990C8480168C648006809F08AFC46
:100610001890C6480168C348006809F083FC179029
:10062000C1480168006809F07DFC1690C048016867
:10063000BD48006809F076FC1590BC480168006868
:1006400009F070FC1490BA480168B848006809F0D5
:1006500069FC1390B6480168006809F063FC1290C9
:10066000DDE9251009F05EFC1090249909F05AFC90
:100670000021119009F086FB01D12BB000BDAD49DE
:10068000239809F04FFC2390AA49229809F04AFCCC
:100690002290A849219809F045FC21902499084608
:1006A00009F040FC0C902599084609F03BFC0A90A3
:1006B0002699084609F036FC09900A9909F032FAA1
:1006C0000B900C9909F02EFA0D9009F0FFF9CDE985
:1006D0000E0108F0C1FCCDE9100108F0E3FC209008
:1006E0002099269809F08CFA26902099259809F0EF
:1006F00087FA25902099249809F082FA2490179976
:10070000159809F017FD4FF08041119009F00AFC8F
:100710001F901399189809F005FA4FF08041119035
:1007200009F000FC1E901699199809F003FD10902D
:10073000149909F0FFFC1190129909F0F3F91D903A
:100740001E99249809F0EEFB11901D99259809F047
:10075000E9FB1090119909F0EDFC1C901D99269869
:1007600009F0E0FB11901F99249809F0DBFB109031
:10077000119909F0DFFC1B901F99259809F0D2FB15
:1007800011901E99269809F0CDFB1090119909F04F
:10079000D1FC1A9068491C9809F0C4FB1190674875
:1007A0000168119809F0BEF96449086062491B9814
:1007B00009F0B8FB119062480168119809F0B2F98C
:1007C0005F4908605C491A9809F0ACFB11905D48DC
:1007D0000168119809F0A6F95A4908605A481C990D
:1007E00009F0A0FB1090239909F09CF9119053484F
:1007F0000168119809F096F9239053481B9909F064
:1008000091FB1090229909F08DF911904C480168E4
:10081000119809F087F922904B481A9909F082FB48
:100820001090219909F07EF91190464801681198BD
:1008300009F078F921903E482199006809F072FB8F
:100840000F903A482299006809F06CFB0D903648E9
:10085000006880F000400B90239909F063FB0C9036
:100860000D9909F067FC0E900F9909F063FC32496D
:10087000109009F057FB11902A480168119809F06F
:1008800051F9284908602A482299006809F04AFB72
:100890000F9026482199006809F044FB0D902148EB
:1008A0002399006809F03EFB0C900D9909F03AF984
:1008B0000E900F9909F03EFC1F49109009F032FB91
:1008C000119019480168119809F02CF9164908602F
:1008D00017482399006809F025FB0F9012482199C9
:1008E000006809F01FFB0D900E482299006809F07E
:1008F00019FB0C900D9909F01DFC0E900F9909F051
:1009000011F90D49109009F00DFB1190074801688D
:1009100011981BE0C401002060000020EC010020C1
:100920001402002044000020480000204C00002059
:100930005000002089A18B3A6F12833A54000020A6
:10094000580000205C000020CDCCCC3F09F0EAF834
:100950009949086098482399006809F0E3FA0F90D4
:1009600096482299006809F0DDFA0D909448219983
:10097000006809F0D7FA0C900D9909F0D3F80E90A1
:100980000F9909F0D7FB8F49109009F0CBFA11901D
:100990008D480168119809F0C5F88B490860084630
:1009A0000168006809F0BEFA0C908348016800688D
:1009B00009F0B8FA0A9081480168006809F0B2FAB3
:1009C00008907F480168006809F0ACFA0790089920
:1009D00009F0A8F809900A9909F0A4F80B900C996D
:1009E00009F0A0F80D9009F071F8CDE90E0108F0BA
:1009F00033FBCDE9100108F055FB20907048209999
:100A0000006809F0FDF86E4908606C48209900689C
:100A100009F0F6F86949086067482099006809F00C
:100A2000EFF86549086068482099006809F0E8F81F
:100A3000654908602898B0F9040040420E9009F01A
:100A400011FA62490F9009F06DFA6149109009F0AE
:100A500069FA11902A98806801461090119809F05F
:100A600061F82A9988605B48006809F02FF8CDE9A1
:100A70000E01534801684FF0804009F053FA04908A
:100A80004D480168049809F04DFA06904B480168FA
:100A90004FF0404009F046FA04904B480168049832
:100AA00009F040FA0590069909F03CF8079009F022
:100AB0000DF8CDE9080107F0BFFF81F000414FF0CC
:100AC0006632454BCDE90A0108F026FDCDE90C015F
:100AD000DDE90E2308F010FFCDE9100108F0E2FA7D
:100AE0002A9908603D48006808F0F0FFCDE90E0142
:100AF000314801684FF0804009F014FA01902E4807
:100B00000168019809F00EFA03902C4801684FF033
:100B1000404009F007FA019028480168019809F05F
:100B200001FA0290039909F005FB4FF07E51049001
:100B300008F0F8FF059008F0C9FFCDE9080120484A
:100B400001684FF0804009F0EDF902901B48016800
:100B5000029809F0E7F90490174801684FF08040C7
:100B600009F0E0F9029018480168029809F0DAF9F2
:100B70000390049908F0D6FF059008F0A7FFCDE98F
:100B80000601DDE9082308F0A7F981F000414FF0E4
:100B90006632114BCDE90A0108F0BEFCCDE90C012B
:100BA000DDE90E2308F0A8FECDE9100108F07AFA7D
:100BB0002A99486000BF60E54C00002048000020F2
:100BC000440000206F12833A50000020F1FF793D6D
:100BD0006F12033B4000002066A64C403C00002002
:100BE0002DE9FE4F06460D4614461F46B4F9000097
:100BF000A0F2DC50302190FBF1F9484609F032F9BF
:100C00008046316809F08BFA0090B4F90200A0F236
:100C1000DC50302190FBF1F9484609F023F9804679
:100C2000716808F07FFF0190E2480099006808F0C1
:100C300079FFE0490860E049DE48006809F03EFAC3
:100C400002D2DD48DB490860DC49DA48006809F077
:100C500035F902D2D948D7490860D94A00991068B5
:100C600009F060F9D6494860B5F9020009F0FAF8D0
:100C70008146D348006980F000484946404609F063
:100C800051F9CF494861CF480199006808F04AFFFF
:100C9000CC490860C849CB48006809F00FFA02D275
:100CA000C548C8490860C549C648006809F006F942
:100CB00002D2C248C3490860C34A0199106809F0CA
:100CC00031F9C1494860B5F9000009F0CBF8814617
:100CD000BD48006980F000484946404609F022F9C5
:100CE000B94948613168084609F01CF980464FF05F
:100CF0007E5109F0E3F831D27168084609F012F923
:100D000080464FF07E5109F0D9F827D20099084665
:100D100009F008F98046AD4909F0D0F81ED20199D2
:100D2000084609F0FFF88046A84909F0C7F815D22F
:100D3000B4F90400B0F5966F10DDA14988689D49AB
:100D4000096809F0EFF89E49C8609F4988689D4985
:100D5000096809F0E7F89C49C86004E00020984958
:100D6000C8609949C860B4F90600B0F5AF6F04DBFC
:100D7000B4F90600B0F5C86F0DDD9548408A10B192
:100D8000A888A88007E0A988E088A0F2DC5001EBE1
:100D9000400000B2A880B5F9040009F063F882466B
:100DA0008C4909F0BFF881468B4909F0BBF88046B1
:100DB0008A480168404608F0B5FE884908608849BD
:100DC0008648006809F07AF902D2854883490860AC
:100DD00084498248006809F071F802D281487F494D
:100DE0000860814908687D49096809F09BF87E49D7
:100DF0004860B5F9040009F035F880467A48016981
:100E0000404609F08FF878494861B4F90400B0F51C
:100E1000966F06DA00206B490860664908606F49E2
:100E20000860674AD168506808F07CFE80466448D4
:100E30004169404608F076FE6149C861624AD1685E
:100E4000506808F06FFE80465F484169404608F0F0
:100E500069FE5D49C861644AD168506808F062FE65
:100E6000804661484169404608F05CFE5E49C861C1
:100E7000B4F9040040F2BC71884201DD0846A0804C
:100E8000B4F90400B0F5966F7BDD002F79D0B4F98A
:100E90000410A1F57A7008F0E5FF83464848C1695F
:100EA000584608F03FFE82464748C169504608F060
:100EB00039FE81464C48C169484608F033FE8046F9
:100EC00008F094FF00B249490880B4F90410A1F574
:100ED0007A7008F0C7FF83463948C169584609F05F
:100EE00029F982463848C169504608F01BFE814600
:100EF0003D48C169484609F01DF9804608F076FF73
:100F000000B23B490880B4F90410A1F57A7008F0EA
:100F1000A9FF83462A48C169584608F003FE824665
:100F20002948C169504609F005F981462E48C16932
:100F3000484609F0FFF8804608F058FF00B22D49F6
:100F40000880B4F90410A1F57A7008F08BFF83468D
:100F50001B48C169584609F0EDF882461A48C16934
:100F6000504609F0E7F881461F48C169484608F035
:100F7000D9FD804608F03AFF00B21F49088009E019
:100F8000FFE700201949088019490880194908809D
:100F9000194908801848B0F900301648B0F9002007
:100FA0001348B0F900101148B0F9000003F054FEE6
:100FB000BDE8FE8F6800002000007A4400007AC47B
:100FC0003C0200206C0000205C0200200000104267
:100FD000B00100208DC1793D6F12033B70000020ED
:100FE0000000A0410000A0C17C0200207C00002085
:100FF0007E000020800000208200002070B50446A2
:101000000D46B4F90400B0F5966F12DAB4F9060093
:10101000B0F5966F0DDA30480078401C2E49087004
:1010200008460078C8281ED10020087001202870CA
:1010300019E0B4F90400B0F5966F11DAB4F90600BE
:10104000B0F5E16F0CDD24480078401C224908709F
:1010500008460078C82806D100200870287002E0F1
:1010600000201D4908702878012800D170BDB4F90E
:101070000400B0F5966F12DAB4F90000B0F5966F7F
:101080000DDA16480078401C1449087008460078AC
:10109000C8281FD10020087003F0A1FB1AE0B4F9A2
:1010A0000400B0F5966F12DAB4F90000B0F5E16F04
:1010B0000DDD0A480078401C084908700846007891
:1010C000C82807D10020087003F08DFB02E0002043
:1010D0000249087000BFC9E78C0000208D00002085
:1010E00031B5AA20FE4908704870F02088700320AE
:1010F000C870BA2008719DF8010048719DF8000081
:1011000088710024002005E0F549095C2144CCB237
:10111000411CC8B20728F7DBF148C471082103F06D
:1011200019FF38BD03B583B00020029001900AE09A
:1011300001990398415C02980844C0B2029001985A
:10114000401CC0B201900498401E01998842EFDC17
:10115000DDE90301084410F8011C0298814201D026
:1011600005B000BD03980078AA2803D10398407801
:10117000AF2800D0F4E703988078012813D10398B2
:101180000079012801D103F02AFB03980079022895
:1011900001D103F028FB03980079032803D103F061
:1011A0001EFB03F020FB03988078022816D10398D9
:1011B000007901280BD1CB490870CB490870CB4985
:1011C0000870CB490870CB490870CB490870039868
:1011D0000079022802D10120C8490870039880785C
:1011E00010287CD103980079000200B20399497954
:1011F0000843009008F036FEC149019008F000FD58
:10120000C049086003988079000200B20399C97947
:101210000843009008F026FEBB49019008F0F0FC5E
:10122000B84988600398007A000200B20399497AAD
:101230000843009008F016FEB149019008F0E0FC68
:10124000B04908610398807A000200B20399C97A14
:101250000843009008F006FEA949019008F0D0FC70
:10126000AA4908600398007B000200B20399497BF9
:101270000843009008F0F6FDA349019008F0C0FC77
:10128000A24988600398807B000200B20399C97B61
:101290000843009008F0E6FD9949019008F0B0FC81
:1012A0009A4908610398007C000200B20399497CC6
:1012B0000843009008F0D6FD9149019008F0A0FC89
:1012C000934908600398807C000200B20399C97CAE
:1012D0000843009008F0C6FD8949019000E016E03F
:1012E00008F08EFC8A4988600398007D000200B2F5
:1012F0000399497D0843009008F0B4FD80490190AE
:1013000008F07EFC824908610298FFF7E9FE039825
:10131000807811287ED103980079000200B20399E9
:1013200049790843009008F09DFD7549019008F047
:1013300067FC7849086003988079000200B203993D
:10134000C9790843009008F08DFD6D49019008F0BF
:1013500057FC704988600398007A000200B2039934
:10136000497A0843009008F07DFD6549019008F036
:1013700047FC684908610398807A000200B203992B
:10138000C97A0843009008F06DFD5D49019008F0AE
:1013900037FC614908600398007B000200B20399A2
:1013A000497B0843009008F05DFD5549019008F025
:1013B00027FC594988600398807B000200B203999A
:1013C000C97B0843009008F04DFD4D49019008F09D
:1013D00017FC514908610398007C000200B2039990
:1013E000497C0843009008F03DFD4549019008F014
:1013F00007FC4A4908600398807C000200B2039908
:10140000C97C0843009008F02DFD3D49019008F08B
:10141000F7FB00E014E0414988600398007D00027A
:1014200000B20399497D0843009008F01BFD344940
:10143000019008F0E5FB394908610298FFF750FE7A
:101440000398807812286FD103980079000200B2C7
:10145000039949790843009008F004FD2849019058
:1014600008F0CEFB2E49086003988079000200B294
:101470000399C9790843009008F0F4FC20490190D1
:1014800008F0BEFB264988600398007A000200B28B
:101490000399497A0843009008F0E4FC1849019048
:1014A00008F0AEFB1E4908610398807A000200B282
:1014B0000399C97A0843009008F0D4FC10490190C0
:1014C00008F09EFB174908600398007B000200B2F9
:1014D0000399497B0843009008F0C4FC084924E0C4
:1014E0005C04002093000020940000209500002060
:1014F0009600002097000020980000209200002015
:101500000000C8423C02002000007A445C02002037
:101510007C0200209C020020BC020020DC02002093
:10152000FC0200201C03002047E0019008F068FB4B
:10153000FE4988600398807B000200B20399C97B52
:101540000843009008F08EFCF949019008F058FB20
:10155000F64908610398007C000200B20399497CB7
:101560000843009008F07EFCF149019008F048FB28
:10157000F04908600398807C000200B20399C97C9E
:101580000843009008F06EFCE949019008F038FB30
:10159000E84988600398007D000200B20399497D04
:1015A0000843009008F05EFCE149019008F028FB38
:1015B000E04908610298FFF793FD039880781328AB
:1015C0007ED103980079000200B20399497908435B
:1015D000009008F047FCD649019008F011FBD6496D
:1015E000086003988079000200B20399C979084322
:1015F000009008F037FCCE49019008F001FBCE497D
:1016000088600398007A000200B20399497A08437F
:10161000009008F027FCC649019008F0F1FAC6498D
:1016200008610398807A000200B20399C97A0843DE
:10163000009008F017FCBE49019008F0E1FABF499C
:1016400008600398007B000200B20399497B0843BD
:10165000009008F007FCB649019008F0D1FAB749AC
:1016600088600398807B000200B20399C97B08431D
:10167000009008F0F7FBAE49019008F0C1FAAF49BD
:1016800008610398007C000200B20399497C08437A
:10169000009008F0E7FBA649019008F0B1FAA849CC
:1016A00008600398807C000200B20399C97C08435B
:1016B000009008F0D7FB9E49019008F0A1FA00E0E5
:1016C00014E09F4988600398007D000200B20399EE
:1016D000497D0843009008F0C5FB9549019008F04A
:1016E0008FFA974908610298FFF7FAFC039880780F
:1016F00014287CD103980079000200B2039949793B
:101700000843009008F0AEFB8949019008F078FA90
:101710008C49086003988079000200B20399C97966
:101720000843009008F09EFB8149019008F068FA98
:10173000844988600398007A000200B20399497ACC
:101740000843009008F08EFB7949019008F058FAA0
:101750007C4908610398807A000200B20399C97A33
:101760000843009008F07EFB7149019008F048FAA8
:10177000754908600398007B000200B20399497B19
:101780000843009008F06EFB6949019008F038FAB0
:101790006D4988600398807B000200B20399C97B81
:1017A0000843009008F05EFB6149019008F028FAB8
:1017B000654908610398007C000200B20399497CE6
:1017C0000843009008F04EFB5949019008F018FAC0
:1017D0005E4908600398807C000200B20399C97CCE
:1017E0000843009008F03EFB5149019000E016E0EC
:1017F00008F006FA554988600398007D000200B29F
:101800000399497D0843009008F02CFB484901905A
:1018100008F0F6F94D4908610298FFF761FC03985A
:101820008078152864D103980079000200B20399EA
:1018300049790843009008F015FB3D49019008F0F4
:10184000DFF94349086003988079000200B20399E8
:10185000C9790843009008F005FB3549019008F06C
:10186000CFF93B4988600398007A000200B20399DF
:10187000497A0843009008F0F5FA2D49019008F0E4
:10188000BFF9334908610398807A000200B20399D6
:10189000C97A0843009008F0E5FA2549019008F05C
:1018A000AFF92C4908600398007B000200B203994D
:1018B000497B0843009008F0D5FA1D49019008F0D3
:1018C0009FF9244988600398807B000200B2039945
:1018D000C97B0843009008F0C5FA1549019008F04B
:1018E0008FF91C4908610298FFF7FAFB01F09AFB97
:1018F0000398807816283BD103980079000200B243
:10190000039949790843009008F0ACFA1249019014
:1019100008F076F91149086003988079000200B256
:101920000399C979084300901AE000001C030020C5
:101930000000C8423C0300205C0300207C03002020
:101940009C030020BC030020DC030020FC030020DB
:101950001C0400203C04002000007A443C000020CD
:1019600008F080FAFE49019008F04AF9FD49086044
:101970000398807803287DD103980079000200B293
:10198000039949790843F8498880039880790002CF
:1019900000B20399C9790843F349C8800398007AD3
:1019A000000200B20399497A0843EF49088003987E
:1019B000807A000200B20399C97A0843EA49488054
:1019C0000398007B000200B20399497B0843E64973
:1019D00008810398807B000200B20399C97B084309
:1019E000E14948810398007C000200B20399497CD8
:1019F0000843DD4988810846B0F90800009008F0E6
:101A000031FADA49019008F0FBF8D9490860D94960
:101A10000860D9490860D448B0F90A00009008F07D
:101A200021FACF49019008F0EBF8D2498860D249F9
:101A30008860CD48B0F90C00009008F013FACB494B
:101A4000019008F0DDF8CB490861CB490861CB482B
:101A5000C74908610398807C000200B20399C97CE1
:101A60000843C149C8810398807D000200B20399F0
:101A7000C97D00E006E00843BB494882C049BA4836
:101A8000FFF7BCFA00BFFFF76BBB70B5072003F090
:101A900013FA044604F04000D8B1602003F00CFAB9
:101AA0000546212D10DA2A46B649612003F034FAA2
:101AB0000821B54803F0A3FD2946B248FFF732FBE1
:101AC0000020B249088003E0FF21E22003F0E0F9A2
:101AD0000DE0AE480088401CAC49088008460088EC
:101AE000B0F5FA6F03DD00200880A549087004F006
:101AF000100030B104F0010018B1FF21E12003F023
:101B0000C7F92146272003F0C3F970BD10B517208F
:101B100003F0D2F910BD70B50024AA222146641C3E
:101B20009B4842542146641C425406222146641CB0
:101B3000425400222146641C425496484278214671
:101B4000641C93484254934802782146641C904890
:101B50004254914842782146641C8D4842548E4834
:101B600002782046611CCCB289490A548B484278DD
:101B70002046611CCCB286490A5488480278204627
:101B8000611CCCB282490A54854842782046611CC7
:101B9000CCB27F490A54824802782146601CC4B204
:101BA0007B4842547F4842782046611CCCB2784939
:101BB0000A547C4802782046611CCCB274490A540D
:101BC000794842782046611CCCB271490A54764863
:101BD00002782046611CCCB26D490A5473484278A1
:101BE0002046611CCCB26A490A54704802782046EB
:101BF000611CCCB266490A546D4842782046611C8B
:101C0000CCB263490A546A4802782046611CCCB2BF
:101C10005F490A54201FC8700025002005E05C4978
:101C2000095C2944CDB2411CC8B2A042F7DB204672
:101C3000611CCCB256490D542146554803F08AF92F
:101C400070BDF8B50024AA222146641C50484254B5
:101C50002146641C425416222146641C4254002230
:101C60002146641C42543E495248006808F05AF923
:101C7000064608F0BBF800B200909DF8012021460E
:101C8000641C434842549DF800202146641C425481
:101C900033493448006808F045F9064608F0A6F8CC
:101CA00000B200909DF801202146641C384842543F
:101CB0009DF800202046611CCCB235490A54201FF3
:101CC000C8700025002005E03149095C2944CDB2E7
:101CD000411CC8B2A042F7DB2046611CCCB22C49A3
:101CE0000D5421462A4803F035F9F8BD70B500249B
:101CF000AA222146641C264842542146641C4254B0
:101D000003222146641C425400222146641C425492
:101D1000154842792146641C1D48425412480279F4
:101D20002146641C1A4842540F48C2792146641C5B
:101D3000174842540C4882792046611CCCB21449A1
:101D40000A54094842782046611CCCB210490A5412
:101D5000054802782046611CCCB20D490A542BE09C
:101D600000007A4440000020B00100200000C8427A
:101D70007C0200205C0200203C020020CDCC4C3DC7
:101D800018000020CE050020000C01409C0000201F
:101D90005C0400207E0000207C00002080000020E9
:101DA000820000208400002086000020880000209F
:101DB0008A0000203C000020FE48C2782046611CBA
:101DC000CCB2FD490A54FB4882782046611CCCB253
:101DD000F9490A54F748427A2046611CCCB2F649C8
:101DE0000A54F448027A2046611CCCB2F2490A54E3
:101DF000F048C27A2046611CCCB2EF490A54ED4843
:101E0000827A2046611CCCB2EB490A54E948427BF5
:101E10002046611CCCB2E8490A54E648027B2046C1
:101E2000611CCCB2E4490A54E248C27B2046611CE2
:101E3000CCB2E1490A54DF48827B2046611CCCB217
:101E4000DD490A54DD490988490001EB4110C117F9
:101E500000EB11510913D74A11821046427C2046EB
:101E6000611CCCB2D4490A54D248027C2046611C81
:101E7000CCB2D1490A54CF48C27C2046611CCCB2B6
:101E8000CD490A54CB48827C2046611CCCB2CA4959
:101E90000A54201FC8700025002005E0C649095CCF
:101EA0002944CDB2411CC8B2A042F7DB2046611CD8
:101EB000CCB2C1490D542146BF4803F04BF870BD68
:101EC000F8B50024AA222146641CBB48425421468E
:101ED000641C425415222146641C425400222146AF
:101EE000641C4254B6490868B64908F01BF8064617
:101EF00007F07CFF00B200909DF801202146641C91
:101F0000AD4842549DF800202146641C4254AC491F
:101F10008868AC4908F006F8064607F067FF00B28B
:101F200000909DF801202146641CA34842549DF86E
:101F300000202046611CCCB29F490A54A049086980
:101F4000A04907F0EFFF064607F050FF00B20090EF
:101F50009DF801202046611CCCB297490A549DF897
:101F600000202046611CCCB293490A549649086867
:101F7000944907F0D7FF064607F038FF00B20090FB
:101F80009DF801202046611CCCB28B490A549DF873
:101F900000202046611CCCB287490A548A498868CF
:101FA000884907F0BFFF064607F020FF00B2009007
:101FB0009DF801202046611CCCB27F490A549DF84F
:101FC00000202046611CCCB27B490A547E49086936
:101FD0007C4907F0A7FF064607F008FF00B2009013
:101FE0009DF801202046611CCCB273490A549DF82B
:101FF00000202046611CCCB26F490A54201FC870D3
:102000000025002005E06C49095C2944CDB2411C43
:10201000C8B2A042F7DB2046611CCCB266490D5421
:102020002146654802F096FFF8BDF8B50024AA22C3
:102030002146641C604842542146641C42541422C8
:102040002146641C425400222146641C42545F49CC
:1020500008685C4907F066FF064607F0C7FE00B255
:1020600000909DF801202146641C534842549DF87D
:1020700000202146641C425454498868514907F0A5
:1020800051FF064607F0B2FE00B200909DF8012015
:102090002146641C484842549DF800202046611C9B
:1020A000CCB245490A5449490869464907F03AFF04
:1020B000064607F09BFE00B200909DF801202046E6
:1020C000611CCCB23C490A549DF800202046611C9A
:1020D000CCB239490A543E4908683A4907F022FF10
:1020E000064607F083FE00B200909DF801202046CE
:1020F000611CCCB230490A549DF800202146601C76
:10210000C4B22D484254324988682E4907F00AFF6C
:10211000064607F06BFE00B200909DF801202046B5
:10212000611CCCB224490A549DF800202046611C51
:10213000CCB221490A5426490869224907F0F2FE27
:10214000064607F053FE00B200909DF8012020469D
:10215000611CCCB218490A549DF800202146601C2D
:10216000C4B2154842541B490868164907F0DAFE04
:10217000064607F03BFE00B200909DF80120204685
:10218000611CCCB20C490A549DF800202046611C09
:10219000CCB209490A540F4988680A4907F0C2FEBF
:1021A000064607F023FE00B200909DF8012021466C
:1021B000601C11E0B00100205C0400209E000020A3
:1021C0001C0400200000C8423C040020BC03002086
:1021D000DC030020FC030020C4B2FE4842549DF8FA
:1021E00000202046611CCCB2FA490A54FA49086919
:1021F000FA4907F097FE064607F0F8FD00B2009096
:102200009DF801202046611CCCB2F2490A549DF889
:1022100000202046611CCCB2EE490A54201FC87031
:102220000025002005E0EB49095C2944CDB2411CA2
:10223000C8B2A042F7DB2046611CCCB2E5490D5480
:102240002146E44802F086FEF8BDF8B50024AA2233
:102250002146641CDF4842542146641C4254132228
:102260002146641C425400222146641C4254DC492D
:102270000868DA4907F056FE064607F0B7FD00B2D7
:1022800000909DF801202146641CD24842549DF8DC
:1022900000202146641C4254D1498868CF4907F088
:1022A00041FE064607F0A2FD00B200909DF8012015
:1022B0002146641CC74842549DF800202046611CFA
:1022C000CCB2C4490A54C6490869C44907F02AFE79
:1022D000064607F08BFD00B200909DF801202046D5
:1022E000611CCCB2BB490A549DF800202046611CF9
:1022F000CCB2B8490A54BB490868B84907F012FE85
:10230000064607F073FD00B200909DF801202046BC
:10231000611CCCB2AF490A549DF800202146601CD4
:10232000C4B2AC484254AF498868AC4907F0FAFDE2
:10233000064607F05BFD00B200909DF801202046A4
:10234000611CCCB2A3490A549DF800202046611CB0
:10235000CCB2A0490A54A3490869A04907F0E2FD9C
:10236000064607F043FD00B200909DF8012020468C
:10237000611CCCB297490A549DF800202146601C8C
:10238000C4B29448425498490868944907F0CAFD79
:10239000064607F02BFD00B200909DF80120204674
:1023A000611CCCB28B490A549DF800202046611C68
:1023B000CCB288490A548C498868884907F0B2FD34
:1023C000064607F013FD00B200909DF8012021465B
:1023D000601CC4B27F4842549DF800202046611C16
:1023E000CCB27C490A54804908697C4907F09AFDBF
:1023F000064607F0FBFC00B200909DF80120204645
:10240000611CCCB273490A549DF800202046611C1F
:10241000CCB270490A54201FC8700025002005E086
:102420006C49095C2944CDB2411CC8B2A042F7DB1B
:102430002046611CCCB267490D542146654802F024
:1024400089FDF8BDF8B50024AA222146641C614824
:1024500042542146641C425412222146641C4254B8
:1024600000222146641C4254604908685B4907F019
:1024700059FD064607F0BAFC00B200909DF8012015
:102480002146641C534842549DF800202146641C98
:10249000425456498868514907F044FD064607F002
:1024A000A5FC00B200909DF801202146641C49481B
:1024B00042549DF800202046611CCCB245490A5484
:1024C0004A490869454907F02DFD064607F08EFC8C
:1024D00000B200909DF801202046611CCCB23D491D
:1024E0000A549DF800202046611CCCB239490A5498
:1024F0003F490868394907F015FD064607F076FCA4
:1025000000B200909DF801202046611CCCB23149F8
:102510000A549DF800202146601CC4B22D48425444
:10252000334988682D4907F0FDFC064607F05EFC3C
:1025300000B200909DF801202046611CCCB22549D4
:102540000A549DF800202046611CCCB221490A544F
:1025500027490869214907F0E5FC064607F046FCD3
:1025600000B200909DF801202046611CCCB21949B0
:102570000A549DF800202146601CC4B215484254FC
:102580001C490868154907F0CDFC064607F02EFCEB
:1025900000B200909DF801202046611CCCB20D498C
:1025A0000A549DF800202046611CCCB209490A5407
:1025B00010498868094907F0B5FC064607F016FC83
:1025C00000B200909DF801202146601CC4B2014871
:1025D000425411E05C040020FC0300200000C842CB
:1025E0005C0300207C0300209C030020FC020020F0
:1025F0001C0300203C0300209DF800202046611CA5
:10260000CCB2FE490A54FE490869FE4907F08AFC2B
:10261000064607F0EBFB00B200909DF80120204633
:10262000611CCCB2F5490A549DF800202046611C7B
:10263000CCB2F2490A54201FC8700025002005E0E2
:10264000EE49095C2944CDB2411CC8B2A042F7DB77
:102650002046611CCCB2E9490D542146E74802F0FE
:1026600079FCF8BDF8B50024AA222146641CE34891
:1026700042542146641C425411222146641C425497
:1026800000222146641C4254DF490868DD4907F0F6
:1026900049FC064607F0AAFB00B200909DF8012015
:1026A0002146641CD54842549DF800202146641CF4
:1026B0004254D5498868D34907F034FC064607F0F0
:1026C00095FB00B200909DF801202146641CCB4888
:1026D00042549DF800202046611CCCB2C7490A54E0
:1026E000C9490869C74907F01DFC064607F07EFB8B
:1026F00000B200909DF801202046611CCCB2BF4979
:102700000A549DF800202046611CCCB2BB490A54F3
:10271000BE490868BB4907F005FC064607F066FBA2
:1027200000B200909DF801202046611CCCB2B34954
:102730000A549DF800202146601CC4B2AF484254A0
:10274000B2498868AF4907F0EDFB064607F04EFB3B
:1027500000B200909DF801202046611CCCB2A74930
:102760000A549DF800202046611CCCB2A3490A54AB
:10277000A6490869A34907F0D5FB064607F036FBD2
:1027800000B200909DF801202046611CCCB29B490C
:102790000A549DF800202146601CC4B29748425458
:1027A0009B490868974907F0BDFB064607F01EFBEA
:1027B00000B200909DF801202046611CCCB28F49E8
:1027C0000A549DF800202046611CCCB28B490A5463
:1027D0008F4988688B4907F0A5FB064607F006FB82
:1027E00000B200909DF801202146601CC4B28348CD
:1027F00042549DF800202046611CCCB27F490A5407
:10280000834908697F4907F08DFB064607F0EEFA19
:1028100000B200909DF801202046611CCCB277499F
:102820000A549DF800202046611CCCB273490A541A
:10283000201FC8700025002005E07049095C29446C
:10284000CDB2411CC8B2A042F7DB2046611CCCB21D
:102850006A490D542146694802F07CFBF8BDF8B581
:102860000024AA222146641C644842542146641C68
:10287000425410222146641C425400222146641C0A
:102880004254644908685F4907F04CFB064607F06C
:10289000ADFA00B200909DF801202146641C574813
:1028A00042549DF800202146641C425459498868CE
:1028B000594907F037FB064607F098FA00B2009036
:1028C0009DF801202146641C4C4842549DF800208C
:1028D0002046611CCCB249490A544E49086949490D
:1028E00007F020FB064607F081FA00B200909DF841
:1028F00001202046611CCCB240490A549DF80020BA
:102900002046611CCCB23D490A54444908683D49FF
:1029100007F008FB064607F069FA00B200909DF840
:1029200001202046611CCCB234490A549DF8002095
:102930002146601CC4B2314842543849886836493F
:1029400007F0F0FA064607F051FA00B200909DF841
:1029500001202046611CCCB228490A549DF8002071
:102960002046611CCCB225490A542C4908692549E6
:1029700007F0D8FA064607F039FA00B200909DF841
:1029800001202046611CCCB21C490A549DF800204D
:102990002146601CC4B219484254214908681949AB
:1029A00007F0C0FA064607F021FA00B200909DF841
:1029B00001202046611CCCB210490A549DF8002029
:1029C0002046611CCCB20D490A54154988680D494E
:1029D00007F0A8FA064607F009FA00B200909DF841
:1029E00001202146601CC4B2044842549DF80020D6
:1029F0002046611CCCB201490A5413E05C0400205B
:102A00003C0300200000C8429C020020BC020020C1
:102A1000DC0200203C02002000007A445C0200201E
:102A20007C020020EB490869EB4907F07BFA064677
:102A300007F0DCF900B200909DF801202046611CEF
:102A4000CCB2E6490A549DF800202046611CCCB265
:102A5000E2490A54201FC8700025002005E0DF4924
:102A6000095C2944CDB2411CC8B2A042F7DB204624
:102A7000611CCCB2D9490D542146D84802F06AFAFB
:102A8000F8BD70B50024AA222146641CD3484254E4
:102A90002146641C425402222146641C42540022F6
:102AA0002146641C4254CE4842782146641CCB48DF
:102AB0004254CB4802782146641CC8484254C84856
:102AC000C2782146641CC5484254C54882782046D5
:102AD000611CCCB2C1490A54C14842792046611CEC
:102AE000CCB2BE490A54BE4802792046611CCCB221
:102AF000BA490A54BB4842782046611CCCB2B74957
:102B00000A54B84802782046611CCCB2B3490A5432
:102B1000B448C2782046611CCCB2B0490A54B148CE
:102B200082782046611CCCB2AC490A54AD48427947
:102B30002046611CCCB2A9490A54AA480279204611
:102B4000611CCCB2A5490A5400222046611CCCB2BB
:102B5000A2490A542146601CC4B2A04842542046EF
:102B6000611CCCB29D490A542046611CCCB29B49E1
:102B70000A542046611CCCB298490A542046611C74
:102B8000CCB296490A54201FC8700025002005E0E9
:102B90009249095C2944CDB2411CC8B2A042F7DB7E
:102BA0002046611CCCB28D490D5421468B4802F061
:102BB000D1F970BD7CB50024AA222146641C874847
:102BC00042542146641C425401222146641C425452
:102BD00000222146641C4254834908687E4907F05C
:102BE000A1F9064607F002F900B201909DF8052010
:102BF0002146641C794842549DF804202146641CF7
:102C0000425479494868744907F08CF9064607F040
:102C1000EDF800B201909DF805202146641C6F4834
:102C200042549DF804202046611CCCB26B490A54E2
:102C30006D498868684907F075F9064607F0D6F8C7
:102C400000B201909DF805202046611CCCB263497A
:102C50000A549DF804202046611CCCB25F490A54F6
:102C60006248006800909DF803202046611CCCB2A9
:102C70005A490A549DF802202046611CCCB257499B
:102C80000A549DF801202046611CCCB253490A54D5
:102C90009DF800202046611CCCB250490A5454488B
:102CA000007830B9A0222046611CCCB24B490A54AE
:102CB00009E04F480078012805D1A1222046611C77
:102CC000CCB246490A54201F4449C8700025002050
:102CD00005E04249095C2944CDB2411CC8B2A0427A
:102CE000F7DB2046611CCCB23C490D5421463B48E1
:102CF00002F030F97CBD10B5FEF7C7FEFEF706FF07
:102D0000044604F0100000B910BD3A48007828B11C
:102D1000002038490870FFF74DFF58E0364800782A
:102D200028B1002034490870FFF7ABFE4FE033486C
:102D3000007828B1002031490870FFF790FD46E087
:102D40002F48007828B100202D490870FFF78AFC31
:102D50003DE02C48007828B100202A490870FFF790
:102D600071FB34E02848007828B10020264908701B
:102D7000FFF76BFA2BE02548007828B100202349A3
:102D80000870FFF752F922E02148007828B10020AE
:102D90001F490870FFF794F819E01E48007828B121
:102DA00000201C490870FEF7A1FF10E01A480078C7
:102DB00028B1002018490870FEF743FF07E01748C4
:102DC000007820B1002015490870FEF7A4FE00BF6E
:102DD0009AE700007C0200200000C8425C0400204A
:102DE0000200002008000020A401002014000020A0
:102DF000180000208F000020900000209300002089
:102E000094000020950000209600002097000020EC
:102E100098000020910000209200002099000020DE
:102E200008B50121084603F0FCFE01214FF40270B1
:102E300003F004FF0120ADF8000000208DF803002E
:102E40006946374802F02CFB08BD00B591B0354803
:102E500004F0E8FF344806903448079000200890BA
:102E60000120099000200A900B904FF480700C9084
:102E700080000D9020200E9000020F9000201090F6
:102E800006A9284805F070F80121264805F097F8B2
:102E90000020019001208DF808008DF809004FF402
:102EA000602003900020049001208DF8140001A9F7
:102EB0001D484C3804F0B5FD0523012209211A48AC
:102EC0004C3804F046FE012117484C3804F0E0FD70
:102ED000012115484C3804F0D0FD13484C3804F05B
:102EE000EEFD00BF10484C3804F0EEFD0028F9D18B
:102EF0000D484C3804F0F2FD00BF0B484C3804F08C
:102F0000F2FD0028F9D1012107484C3804F0F5FD05
:102F100011B000BD10B5FFF783FFFFF796FF10BD9E
:102F2000000C0140080002404C2401409E0000209B
:102F300008B54FF4A06002F0E5F925208DF80000F7
:102F400005208DF8010001208DF802008DF80300A6
:102F5000684602F0DCF91D208DF8000002208DF893
:102F6000010001208DF802008DF80300684602F090
:102F7000CEF908BD10B501F000FA10BD10B5FE4A3B
:102F8000128891B2FD4A108801F07CFAFA4A528800
:102F900091B2FA4A508801F075FAF74A928891B2D4
:102FA000F64A908801F06EFA10BD10B5F349088812
:102FB000F14901F0C2F8F1494888EF49891C01F054
:102FC000BCF8EE498888EC49091D01F0B6F810BD3F
:102FD00010B5EB4A128891B2E84AD08801F052FA53
:102FE000E74A528891B2E54A108901F04BFAE44A67
:102FF000928891B2E14A508901F044FA10BD10B5AF
:10300000DE49C888DE4901F098F8DC490889DC49C6
:10301000891C01F092F8D9494889D949091D01F064
:103020008CF810BD0EB5D7480068D749009006F05F
:1030300079FF019006F0F6FE80B20290CF488089B9
:103040000190029901F01EFACE488068CF490090A5
:1030500006F068FF019006F0E5FE80B20290C748D6
:10306000C0890190029901F00DFAC6480069C6496D
:10307000009006F057FF019006F0D4FE80B2029057
:10308000BE48008A0190029901F0FCF9C04800682E
:10309000BD49009006F046FF019006F0C3FE80B2E5
:1030A0000290B648408A0190029901F0EBF9B848C5
:1030B0008068B649009006F035FF019006F0B2FE38
:1030C00080B20290AD48808A0190029901F0DAF94D
:1030D000AF480069AC49009006F024FF019006F06B
:1030E000A1FE80B20290A548C08A0190029901F029
:1030F000C9F9A8480068A449009006F013FF0190A0
:1031000006F090FE80B202909C48008B01900299DC
:1031100001F0B8F99F4880689C49009006F002FFD2
:10312000019006F07FFE80B202909448408B01909F
:10313000029901F0A7F9974800699349009006F0B9
:10314000F1FE019006F06EFE80B202908B48808BFB
:103150000190029901F096F98F4800688A49009021
:1031600006F0E0FE019006F05DFE80B2029083481A
:10317000C08B0190029901F085F9874880688349E6
:10318000009006F0CFFE019006F04CFE80B2029057
:103190007A48008C0190029901F074F97E48006928
:1031A0007949009006F0BEFE019006F03BFE80B229
:1031B00002907248408C0190029901F063F97748BF
:1031C00000687149009006F0ADFE019006F02AFEFD
:1031D00080B202906948808C0190029901F052F906
:1031E0006E4880686949009006F09CFE019006F0E8
:1031F00019FE80B202906148C08C0190029901F0E2
:1032000041F9664800696049009006F08BFE019024
:1032100006F008FE80B202905848008D0190029995
:1032200001F030F95E4800685749009006F07AFED8
:10323000019006F0F7FD80B202905048408D019059
:10324000029901F01FF9564880685049009006F035
:1032500069FE019006F0E6FD80B202904748808D3D
:103260000190029901F00EF94D480069464900901D
:1032700006F058FE019006F0D5FD80B202903F485E
:10328000C08D0190029901F0FDF8464800683E4962
:10329000009006F047FE019006F0C4FD80B2029057
:1032A0003648008E0190029901F0ECF83D488068A4
:1032B0003649009006F036FE019006F0B3FD80B26C
:1032C00002902E48408E0190029901F0DBF83548BB
:1032D00000692D49009006F025FE019006F0A2FD40
:1032E00080B202902548808E0190029901F0CAF8C0
:1032F0002D4800682449009006F014FE019006F065
:1033000091FD80B202901D48C08E0190029901F09B
:10331000B9F8254880681D49009006F003FE019029
:1033200006F080FD80B202901448008F019002994F
:1033300001F0A8F81C4800691349009006F0F2FD5E
:10334000019006F06FFD80B202900C48408F019012
:10335000029901F097F8154800680B49009006F0B3
:10336000E1FD019006F05EFD80B202900348808F7F
:10337000019002991CE0000036010020A00000200E
:10338000300100203C0200200000C84200007A44C6
:103390005C0200207C0200209C020020BC02002075
:1033A000DC020020FC0200201C0300203C03002063
:1033B00001F068F8FE488068FE49009006F0B2FD12
:1033C000019006F02FFD80B20290FB48C08F019063
:1033D000029901F057F8F6480069F849009006F0A4
:1033E000A1FD019006F01EFD80B20290F248B0F8F7
:1033F00040000190029901F045F8F1480068EF495A
:10340000009006F08FFD019006F00CFD80B2029056
:10341000E948B0F842000190029901F033F8E84819
:103420008068E449009006F07DFD019006F0FAFC0A
:1034300080B20290E048B0F844000190029901F097
:1034400021F8DF480069DD49009006F06BFD01902E
:1034500006F0E8FC80B20290D748B0F84600019030
:10346000029901F00FF8D7480068D449009006F09F
:1034700059FD019006F0D6FC80B20290CE48B0F81B
:1034800048000190029900F0FDFFCE488068C949CC
:10349000009006F047FD019006F0C4FC80B2029057
:1034A000C548B0F84A000190029900F0EBFFC5480A
:1034B0000069C249009006F035FD019006F0B2FCAB
:1034C00080B20290BC48B0F84C000190029900F024
:1034D000D9FFBD480068B949009006F023FD01906E
:1034E00006F0A0FC80B20290B348B0F84E00019004
:1034F000029900F0C7FFB4488068AE49009006F01A
:1035000011FD019006F08EFC80B20290AA48B0F83E
:1035100050000190029900F0B5FFAB480069A7493F
:10352000009006F0FFFC019006F07CFC80B2029057
:10353000A148B0F852000190029900F0A3FFA348FF
:1035400000689E49009006F0EDFC019006F06AFCD0
:1035500080B202909848B0F854000190029900F0AF
:1035600091FF9A4880689349009006F0DBFC019037
:1035700006F058FC80B202908F48B0F856000190D7
:10358000029900F07FFF914800698C49009006F095
:10359000C9FC019006F046FC80B202908648B0F863
:1035A00058000190029900F06DFF89480068834936
:1035B000009006F0B7FC019006F034FC80B2029057
:1035C0007D48B0F85A000190029900F05BFF8048F6
:1035D00080687849009006F0A5FC019006F022FC76
:1035E00080B202907448B0F85C000190029900F03B
:1035F00049FF774800697149009006F093FC0190FB
:1036000006F010FC80B202906B48B0F85E000190AA
:10361000029900F037FF6F4800686849009006F093
:1036200081FC019006F0FEFB80B202906248B0F887
:1036300060000190029900F025FF664880685D49AE
:10364000009006F06FFC019006F0ECFB80B2029057
:103650005948B0F862000190029900F013FF5D48EC
:1036600000695649009006F05DFC019006F0DAFB17
:1036700080B202905048B0F864000190029900F0C6
:1036800001FF554800684D49009006F04BFC019041
:1036900006F0C8FB80B202904748B0F8660001907F
:1036A000029900F0EFFE4C4880684249009006F015
:1036B00039FC019006F0B6FB80B202903E48B0F8AB
:1036C00068000190029900F0DDFE434800693B4923
:1036D000009006F027FC019006F0A4FB80B2029057
:1036E0003548B0F86A000190029900F0CBFE3B48E3
:1036F00000683249009006F015FC019006F092FB3C
:1037000080B202902C48B0F86C000190029900F051
:10371000B9FE324880682749009006F003FC01900A
:1037200006F080FB80B202902348B0F86E00019052
:10373000029900F0A7FE294800692049009006F090
:10374000F1FB019006F06EFB80B202901A48B0F8CF
:1037500070000190029900F095FE0EBD1CB5164850
:10376000808901A9009000F0E8FCBDF8040006F093
:1037700091FB1249009006F043FA194908600E487F
:10378000C08901A9009000F0D8FCBDF8040006F043
:1037900081FB0849009006F033FA11498860064819
:1037A000008A01A9009000F0C8FCBDF8040019E0EF
:1037B0003C03002000007A44A00000200000C84222
:1037C0005C0300207C0300209C030020BC0300203D
:1037D000DC030020FC0300201C0400203C0400202B
:1037E0003C02002006F056FBFE49009006F008FA65
:1037F000FD490861FD48408A01A9009000F09DFC48
:10380000BDF8040006F046FBF649009006F0F8F912
:10381000F7490860F548808A01A9009000F08DFC06
:10382000BDF8040006F036FBF249009006F0E8F916
:10383000EF498860ED48C08A01A9009000F07DFC46
:10384000BDF8040006F026FBE649009006F0D8F922
:10385000E7490861E548008B01A9009000F06DFC84
:10386000BDF8040006F016FBDE49009006F0C8F92A
:10387000E1490860DD48408B01A9009000F05DFC43
:10388000BDF8040006F006FBDA49009006F0B8F92E
:10389000D9498860D548808B01A9009000F04DFC83
:1038A000BDF8040006F0F6FACE49009006F0A8F93B
:1038B000D1490861CD48C08B01A9009000F03DFCC2
:1038C000BDF8040006F0E6FAC649009006F098F943
:1038D000CA490860C548008C01A9009000F02DFC81
:1038E000BDF8040006F0D6FAC249009006F088F947
:1038F000C2498860BD48408C01A9009000F01DFCC1
:10390000BDF8040006F0C6FAB649009006F078F952
:10391000BA490861B548808C01A9009000F00DFCFF
:10392000BDF8040006F0B6FAAE49009006F068F95A
:10393000B3490860AD48C08C01A9009000F0FDFBC0
:10394000BDF8040006F0A6FAAA49009006F058F95E
:10395000AB498860A548008D01A9009000F0EDFBFF
:10396000BDF8040006F096FA9E49009006F048F96A
:10397000A34908619D48408D01A9009000F0DDFB3E
:10398000BDF8040006F086FA9649009006F038F972
:103990009C4908609548808D01A9009000F0CDFBFE
:1039A000BDF8040006F076FA9249009006F028F976
:1039B000944988608D48C08D01A9009000F0BDFB3E
:1039C000BDF8040006F066FA8649009006F018F982
:1039D0008C4908618548008E01A9009000F0ADFB7C
:1039E000BDF8040006F056FA7E49009006F008F98A
:1039F000854908607D48408E01A9009000F09DFB3C
:103A0000BDF8040006F046FA7A49009006F0F8F88E
:103A10007D4988607548808E01A9009000F08DFB7B
:103A2000BDF8040006F036FA6E49009006F0E8F89A
:103A3000754908616D48C08E01A9009000F07DFBBA
:103A4000BDF8040006F026FA6649009006F0D8F8A2
:103A50006E4908606548008F01A9009000F06DFB79
:103A6000BDF8040006F016FA6249009006F0C8F8A6
:103A7000664988605D48408F01A9009000F05DFBB9
:103A8000BDF8040006F006FA5649009006F0B8F8B2
:103A90005E4908615548808F01A9009000F04DFBF8
:103AA000BDF8040006F0F6F94E49009006F0A8F8BB
:103AB000574908604D48C08F01A9009000F03DFBB8
:103AC000BDF8040006F0E6F94A49009006F098F8BF
:103AD0004F4988604548B0F8400001A9009000F0C7
:103AE0002CFBBDF8040006F0D5F93E49009006F025
:103AF00087F8474908613D48B0F8420001A90090A5
:103B000000F01BFBBDF8040006F0C4F93549009035
:103B100006F076F83F4908603448B0F8440001A93F
:103B2000009000F00AFBBDF8040006F0B3F931493B
:103B3000009006F065F8374988602C48B0F84600D8
:103B400001A9009000F0F9FABDF8040006F0A2F90E
:103B50002449009006F054F82E4908612348B0F833
:103B6000480001A9009000F0E8FABDF8040006F052
:103B700091F91C49009006F043F8274908601B485A
:103B8000B0F84A0001A9009000F0D7FABDF804008F
:103B900006F080F91749009006F032F81E49886057
:103BA0001248B0F84C0001A9009000F0C6FABDF828
:103BB000040006F06FF90B49009006F021F8164951
:103BC00008610A48B0F84E0001A9009000F0B5FA6B
:103BD000BDF8040006F05EF90249009006F010F806
:103BE0000E491DE00000C8423C020020A000002059
:103BF0005C02002000007A447C0200209C0200202D
:103C0000BC020020DC020020FC0200201C0300207B
:103C10003C0300205C0300207C0300209C03002068
:103C200008609148B0F8500001A9009000F085FAB2
:103C3000BDF8040006F02EF98C49009005F0E0FF75
:103C40008B4988608848B0F8520001A9009000F0C4
:103C500074FABDF8040006F01DF98649009005F0DD
:103C6000CFFF834908618048B0F8540001A9009053
:103C700000F063FABDF8040006F00CF97D490090ED
:103C800005F0BEFF7C4908607748B0F8560001A9EE
:103C9000009000F052FABDF8040006F0FBF87349FA
:103CA000009005F0ADFF744988606F48B0F8580087
:103CB00001A9009000F041FABDF8040006F0EAF80E
:103CC0006C49009005F09CFF6B4908616648B0F8AC
:103CD0005A0001A9009000F030FABDF8040006F087
:103CE000D9F86449009005F08BFF644908605E488C
:103CF000B0F85C0001A9009000F01FFABDF80400C4
:103D000006F0C8F85949009005F07AFF5B498860D1
:103D10005548B0F85E0001A9009000F00EFABDF819
:103D2000040006F0B7F85349009005F069FF5349C5
:103D300008614D48B0F8600001A9009000F0FDF95D
:103D4000BDF8040006F0A6F84A49009005F058FFB7
:103D50004B4908604448B0F8620001A9009000F0A7
:103D6000ECF9BDF8040006F095F84049009005F024
:103D700047FF434988603C48B0F8640001A90090BF
:103D800000F0DBF9BDF8040006F084F83949009032
:103D900005F036FF3A4908613348B0F8660001A9DA
:103DA000009000F0CAF9BDF8040006F073F831493C
:103DB000009005F025FF334908602B48B0F86800F3
:103DC00001A9009000F0B9F9BDF8040006F062F80E
:103DD0002649009005F014FF2A4988602248B0F86F
:103DE0006A0001A9009000F0A8F9BDF8040006F0EF
:103DF00051F82049009005F003FF224908611A4854
:103E0000B0F86C0001A9009000F097F9BDF804002B
:103E100006F040F81749009005F0F2FE1A490860D4
:103E20001148B0F86E0001A9009000F086F9BDF8C5
:103E3000040006F02FF80D49009005F0E1FE12494C
:103E400088600948B0F8700001A9009000F075F989
:103E5000BDF8040006F01EF80649009005F0D0FEFB
:103E6000094908611CBD0000A000002000007A4440
:103E70009C0300200000C842BC030020DC0300209B
:103E8000FC0300201C0400203C040020002109E069
:103E9000002201E0531C9AB242F234139A42F9DB39
:103EA0004B1C99B28142F3DB704708B50121082011
:103EB00002F0C4FE0121102002F0C0FE01210846DC
:103EC00002F0BCFE01213E4801F0BBFB01213D4850
:103ED00001F0B7FB0820ADF8000003208DF80200C8
:103EE00010208DF803006946374801F0D9FA4FF4E5
:103EF0000050ADF8000003208DF8020010208DF86E
:103F000003006946314801F0CBFA08BD10B508211D
:103F10002D4801F074FB6420FFF7B8FF4FF4005107
:103F20002A4801F06AFB6420FFF7B0FF0821264809
:103F300001F063FB4FF40051244801F060FB642062
:103F4000FFF7A4FF10BD10B521480078E0B121486B
:103F5000007838B9204800682049086001201D49D0
:103F600008702CE01D4800681B490968884226D269
:103F70000020174908704FF40051144801F03FFB2E
:103F80000020144908701AE01248007838B9124825
:103F900000681249086001200E4908700FE00F48C0
:103FA00000680D490968884209D201200849087053
:103FB0004103064801F021FB00200649087010BDAE
:103FC0000004300000023000000C014000100140ED
:103FD00015010020140100202401002018010020F8
:103FE000034606210622F7480188F7480288ABB14C
:103FF000012B1BD13AB94EF6EE60814201D100206F
:1040000070470120FCE739B94EF6EE60824201D1DB
:104010000120F5E70020F3E7AB20F1E709B9002024
:10402000EEE70AB90120EBE7AB20E9E70020E7E77C
:1040300070B5042600240120FFF7D2FF0446AB2C04
:1040400006D1E04800EB8420E0490860AB2070BD59
:10405000DC4800EB8420DD490860601CD949891EDA
:1040600001EB80250CE0D94800680068401C10B9BD
:1040700004263046EBE7D5480068001DD3490860A8
:10408000D2480068A842EED38020E0E710B50424AF
:10409000CC4803F025FA0446042C01D0204610BD7C
:1040A0000021C84803F01FFB0446042C01D0204621
:1040B000F5E7C54803F014FA04462046EFE72DE97A
:1040C000F04104460F4604250026DFF80483012052
:1040D000FFF786FF0646AB2E01D1BDE8F081701CCC
:1040E000B849891E01EB802821E0B84800680068C3
:1040F000401CB8B93946B548006803F0F4FA0546E3
:10410000042D01D02846E8E72146B0480068801C0D
:1041100003F0E9FA0546AD480068001DAB490860A8
:104120002846DAE7A9480068001DA8490860A748A2
:1041300000684045D9D38020CFE72DE9F0470646F7
:104140000F46002545F255584FF001099D4CA246F7
:104150000020FFF745FF0546AB2D01D1BDE8F087F4
:10416000984800EB852A99480068841E0AE0B4F854
:104170000080B04505D134F8020C38804FF00009BA
:1041800004E0241F0AF102008442F0D800BF484630
:10419000E4E72DE9F0474FF0060A06260025002740
:1041A000A8464FF0FF398748B0F800A08648068837
:1041B0005FEA0A0075D0A0F56E40EE3858B3A0F55E
:1041C0008850113800286DD146B97E4803F088F92F
:1041D0000446042C1ED02046BDE8F0874EF6EE6063
:1041E000864210D1774803F07BF90446042C01D0B5
:1041F0002046F1E70021744803F075FA0446042CC8
:1042000008D02046E8E7FFF741FF0446042C01D020
:104210002046E1E7AEE07EBB002522E06948C08889
:104220006C4931F81510884201D10FFA85F94D45D6
:1042300015D0684931F815006749FFF77EFF8046C1
:10424000B8F1010F0BD0634931F8150062490988B4
:10425000FFF735FF0746042F01D03846BCE7681C3E
:1042600085B2392DDADB0021564803F03CFA0446CA
:10427000042C02D02046AFE707E0534803F030F9A2
:104280000446042C1FD02046A6E74FF6FF70864256
:1042900012D14D4803F024F90446042C03D02046E3
:1042A0009AE711E05EE00021464803F01CFA04465C
:1042B000042C08D020468FE7FFF7E8FE0446042CC4
:1042C00001D0204688E755E036B9FFF7DFFE044607
:1042D000042C46D020467FE74FF6FF70864207D178
:1042E000394803F0FDF80446042C3AD0204673E721
:1042F000002523E03448801D0088364931F8151028
:10430000884201D10FFA85F94D4515D0314931F870
:1043100015003149FFF711FF8046B8F1010F0BD0AE
:104320002C4931F815002C490988FFF7C8FE0746CB
:10433000042F01D038464FE7681C85B2392DD9DBF0
:104340000021214803F0CFF90446042C01D0204677
:1043500042E71C4803F0C4F80446042C01D0204670
:104360003AE707E0FFF792FE0446042C01D020460E
:1043700032E700BF00BF04202EE710B5FFF709FFAA
:104380000446FFF755FE204610BD2DE9F84F0746BD
:1043900089460425DFF830A0AAF1010A09480090F7
:1043A0004FF00008002400264FF0000B0020FFF71C
:1043B00017FE8046B8F1010F10D1DFF808A00248BF
:1043C000009016E000000108000401082001002010
:1043D000FF070108A00000201C010020B8F1000F19
:1043E00004D1DFF8C4A03148009002E0AB20BDE862
:1043F000F88F4EF6EE61504603F075F90546042D30
:1044000001D02846F3E7FFF713FE49463846FFF789
:1044100056FE0646042E01D03046E8E700241CE094
:10442000234830F81400B84215D0214931F814005F
:104430002049FFF782FE8346BBF1010F0BD01C49D8
:1044400031F814001B490988FFF739FE0646042E8F
:1044500001D03046CBE7601C84B2392CE0DB0098F9
:1044600003F03EF80546042D01D02846BFE70021A1
:10447000504603F038F90546042D01D02846B6E72A
:104480002846B4E770B505460E4600243146284656
:10449000FFF715FE0446802C04D131462846FFF76D
:1044A00074FF0446204670BD0004010800000108A6
:1044B000A00000201C0100203EB50446012102207E
:1044C00002F0C9FB144801F039F9ADF80440472067
:1044D000ADF800000020ADF80600ADF80200694616
:1044E0000D4801F0FFF901210B4802F01DF80122EF
:1044F0001146094801F06DFD3EBD10B504461CB9DA
:104500000021054801F04AFD012C03D10121024898
:1045100001F044FD10BD00000004004010B588B05B
:1045200004460121880302F089FB0121042002F0E6
:1045300085FB4FF40070ADF8040003208DF80600F1
:1045400018208DF8070001A9944800F0A9FF4FF446
:104550008060ADF8040003208DF8060004208DF87B
:10456000070001A98D4800F09BFF04940020ADF8DE
:104570001400ADF81600ADF81800ADF81C000C20C2
:10458000ADF81A000020ADF80800ADF80A004FF4AD
:104590000070ADF80C000020ADF80E0004A98048B2
:1045A00002F01DF802A97E4802F08EF8012240F2C6
:1045B00025517B4802F0ABF80121794802F09BF8C5
:1045C00008B010BD10B50821754802F06FF910B1A0
:1045D000734802F001F97248008800F08000F0B1E1
:1045E0006F480C30008800F08000C0B16D48017841
:1045F0000078401C6B4A10706B48405C6849091D8C
:1046000008801046007869490978884207D16448D3
:104610000C30008820F0800061490C31088060482F
:10462000008800F0200000286FD05D48001D008841
:10463000C4B25F48007838B9AA2C05D101205C4982
:1046400008705C4804705FE059480078012807D181
:10465000AF2C05D10220564908705648447053E0EB
:1046600053480078022809D1002C07DDF12C05DA27
:1046700003204F4908704F48847045E04C4800784B
:1046800003280CD1322C0ADA042049490870494821
:10469000C4704948047000204849087034E0444818
:1046A0000078042819D144480078002815DD4248D4
:1046B0000078401E40490870404800783F4909781A
:1046C000491C3E4A1170001D3A490C543A48007882
:1046D000D0B905203649087016E03548007805281D
:1046E0000FD100203249087034480078001D31494C
:1046F0000C5432480078401DC1B22E48FCF712FD20
:1047000002E000202A49087000BF10BD10B5044621
:10471000264801780078401C244A107022484454EE
:10472000012240F227711E4801F0F1FF10BD10B5C3
:1047300004460FE020780D2802D1FFF7E7FF08E0DC
:1047400020780A2802D1FFF7E1FF02E02078FFF786
:10475000DDFF641C20780028ECD110BD70B5044644
:104760000D4600200AE0225C10490B780978491CAC
:104770000E4E31700C49CA54411CC8B2A842F2DB3B
:1047800007480C30008800F0800028B9012240F270
:104790002771034801F0BBFF70BD00000008014015
:1047A00000380140280100208E040020290100204B
:1047B0002A0100208E0500202B0100202C01002062
:1047C000002109E0002201E0531C9AB242F23413A6
:1047D0009A42F9DB4B1C99B28142F3DB704700200F
:1047E000FA49087070470020F9490870704730B5E1
:1047F00087B005460C46F7484078F649097840EA04
:104800000120F549B1F90010401A0690F148C0782E
:10481000F049897840EA0120EF49B1F90210401AC5
:104820000590EC484079EB49097940EA0120EA49D2
:10483000B1F90410401A0490E648407AE549097A33
:1048400040EA0120E549B1F90010401A0390E1481F
:10485000C07AE049897A40EA0120E049B1F90210C2
:10486000401A0290DB48407BDA49097B40EA01208C
:10487000DA49B1F90410401A01900698B0F5004FDA
:1048800000DB00E000BF069810F5004F00DA00E002
:1048900000BF0598B0F5004F00DB00E000BF0598B1
:1048A00010F5004F00DA00E000BF0498B0F5004FAB
:1048B00000DB00E000BF049810F5004F00DA00E0D4
:1048C00000BF0398B0F5004F00DB00E000BF039885
:1048D00010F5004F00DA00E000BF0298B0F5004F7D
:1048E00000DB00E000BF029810F5004F00DA00E0A6
:1048F00000BF0198B0F5004F00DB00E000BF019859
:1049000010F5004F00DA00E000BF069800B22880E2
:10491000059800B26880049800B2A880039800B29D
:104920002080029800B26080019800B2A080A84860
:104930000078002856D1FFF706FBA948007878B91F
:104940000020A649088048808880A6490860A649BA
:104950000860A64908600120A149087007B030BD71
:10496000B4F900009F49096808449E490860B4F9F9
:1049700002009D49096808449B490860B4F9040095
:104980009A49096808449949086095480078C828F8
:1049900023D1944800689249097890FBF1F000B265
:1049A0008E490880904800688D49097890FBF1F0A5
:1049B00000B28A4948808D4800688949097890FB8F
:1049C000F1F000B2854988800020854908700120F7
:1049D0007F490870FEF7FCFAC0E781480078401C68
:1049E0007F4908707948007800284ED1FFF7ABFA6C
:1049F0007F48007870B90020774908804880888017
:104A00007C4908607C4908607C490860012078493D
:104A10000870A3E7B5F900007649096808447549AC
:104A20000860B5F9020074490968084472490860D1
:104A30006F480078C82823D16E4800686C4909780F
:104A400090FBF1F000B2644908806B480068684947
:104A5000097890FBF1F000B25F4948806748006830
:104A60006349097890FBF1F000B25B49888000202F
:104A70005F490870012055490870FEF77FFA6DE71D
:104A80005B480078401C5A49087000BF66E710B5C3
:104A9000504B0E223B21D02003F008FC10BDF8B58E
:104AA00006460F4614461D466B46012239463046DF
:104AB00003F03BFC2DB10120A0409DF800100843FD
:104AC00005E00120A0409DF8001021EA0000C0B2DE
:104AD00000906B4601223946304603F0A7FCF8BD32
:104AE0002DE9F8430746884614461D46089E6B4646
:104AF00001224146384603F018FC601CFF2101FAF0
:104B000000F0C4F108012944491EFF220A41104364
:104B100000F0FF09C5F1080006FA00F0C6B2C4F1C2
:104B2000070006419DF8000000EA090000909DF88A
:104B30000000304300906B4601224146384603F0A6
:104B400075FCBDE8F88338B50446032302226B21C7
:104B5000D0200094FFF7C4FF38BD38B504460223C7
:104B600004221B21D0200094FFF7BAFF38BD38B5CE
:104B70000446022304221C21D0200094FFF7B0FF3A
:104B800038BD10B50446234606226B21D020FFF71E
:104B900086FF10BD10B50446234605226A21D020A9
:104BA000FFF77DFF10BD10B50446234601223721D3
:104BB000D020FFF774FF10BD38B50446032302224E
:104BC0001A21D0200094FFF78BFF38BD3D01002053
:104BD0003C010020C00500203601002030010020EB
:104BE0004C01002040010020440100204801002029
:104BF0005C010020500100205401002058010020D9
:104C000010B50020FFF7BDFFC820FFF7D9FD012038
:104C1000FFF799FF3220FFF7D3FD0320FFF79DFF39
:104C20003220FFF7CDFD0120FFF7A1FF3220FFF773
:104C3000C7FD0320FFF7C0FF3220FFF7C1FD0020B2
:104C4000FFF7A8FF3220FFF7BBFD0120FFF7ABFF06
:104C50003220FFF7B5FD10BD30B5B0F57A7F01DB2E
:104C600040F2E730B1F57A7F01DB40F2E731B2F58F
:104C70007A7F01DB40F2E732B3F57A7F01DB40F265
:104C8000E733002800DA0020002900DA0021002A9A
:104C900000DA0022002B00DA00234FF08045A886BE
:104CA0002987AA87374D2B8030BD10B588B00024E6
:104CB0000121084601F0CFFF334800683349B0FBBB
:104CC000F1F0401E84B240F2E730ADF81800ADF8C4
:104CD00014400020ADF81A00ADF8160005A94FF0F9
:104CE000804000F0FFFD6020ADF804000120ADF829
:104CF00006000020ADF80A00ADF80C0001A94FF045
:104D0000804000F02CFE0821C80601F077FA01A9C6
:104D10004FF0804000F065FE0821C80601F077FAE8
:104D200001A94FF0804000F0A9FE0821C80601F05B
:104D30007BFA01A94FF0804000F0EBFE0821C80685
:104D400001F07BFA0121880701F028FA0121880788
:104D500001F024F908B010BD08B50121042001F0CC
:104D60006DFF0F20ADF8000003208DF80200182021
:104D70008DF803006946064800F092FBFFF795FFA7
:104D800008BD0000400000406801002000366E01B0
:104D90000008014000B587B00121042001F04EFF5A
:104DA0000121082001F04AFF0121080301F046FF1C
:104DB000E020ADF8040001208DF8060018208DF8E1
:104DC000070001A92F4800F06BFB0420ADF8040098
:104DD00001208DF8060010208DF8070001A92A484F
:104DE00000F05EFB1020ADF8040001208DF80600F5
:104DF00010208DF8070001A9224800F051FB102176
:104E0000204800F0FAFB0020ADF808004FF4827053
:104E1000ADF80A000020ADF80C00ADF80E00ADF8BA
:104E200010004FF40070ADF812001020ADF814001F
:104E30000020ADF816000720ADF8180002A91348AD
:104E400001F088FF0121114802F029F807B000BDE8
:104E500010B5044600BF02210C4802F0A4F8002857
:104E6000F9D02146094802F04BF800BF012107485C
:104E700002F099F80028F9D0044802F043F8C0B2D3
:104E800010BD000000080140000C0140003001404E
:104E900070B505460C4610218D4800F0B0FB284641
:104EA000FFF7D6FF06462046FFF7D2FF10218848BD
:104EB00000F0A3FB304670BD70B504461021844855
:104EC00000F09DFB2046FFF7C3FF0020FFF7C0FF67
:104ED000054610217E4800F090FB284670BD2DE964
:104EE000F04107460D4616461021794800F087FB31
:104EF0003846FFF7ADFF8046002404E0285DFFF749
:104F0000A7FF601CC4B2B442F8DB1021704800F067
:104F100074FB4046BDE8F0812DE9F04107460D469F
:104F2000164610216A4800F06AFB3846FFF790FFEA
:104F30008046002405E00020FFF78AFF2855601C0A
:104F4000C4B2B442F7DB1021614800F056FB404682
:104F5000BDE8F08170B504460D4604215D4800F0BF
:104F60004EFB05225C492A20FFF7B9FF2A4621465D
:104F7000A020FFF7B4FF0421564800F03EFB70BDAF
:104F800070B504460D460421524800F038FB2A460D
:104F90002146A820FFF7A3FF04214E4800F02DFB77
:104FA00070BD1CB505224C493020FFF798FF052243
:104FB00069461020FFF7B0FF002408E01DF8040048
:104FC0004549095D884200D003E0601CC4B2052C4D
:104FD000F4DB00BF052C01D101201CBD0020FCE743
:104FE00070B504460D4604213A4800F008FB05223E
:104FF0003A492A20FFF773FF052237493020FFF78F
:105000006EFF01212120FFF743FF01212220FFF73E
:105010003FFF1A212420FFF73BFF28212520FFF71F
:1050200037FF0F212620FFF733FF012C08D1202165
:105030003120FFF72DFF0F212020FFF729FF41E04E
:10504000022C08D120213120FFF722FF0E21202041
:10505000FFF71EFF36E0032C1AD1FF21E120FFF7F6
:1050600017FFFF21E220FFF713FF0F212020FFF79A
:105070000FFF5020FFF7ECFE7320FFF7E9FE012140
:105080003C20FFF705FF07213D20FFF701FF19E056
:105090000E212020FFF7FCFEFF21E120FFF7F8FEA4
:1050A000FF21E220FFF7F4FE5020FFF7D1FE73202E
:1050B000FFF7CEFE01213C20FFF7EAFE07213D204D
:1050C000FFF7E6FE0421034800F097FA70BD0000E8
:1050D00000080140000C01405D0100206201002039
:1050E0000948804709480047FEE7FEE7FEE7FEE77C
:1050F000FEE7FEE7FEE7FEE7FEE7FEE704480549B8
:10510000054A064B70470000FF510008ED000008FB
:1051100070060020700C002070080020700800202D
:105120000CB50020019000906C48006840F480307D
:105130006A49086000BF6948006800F400300090C8
:105140000198401C0190009818B90198B0F5A06F23
:10515000F1D16248006800F4003010B101200090E5
:1051600001E0002000900098012843D15C480068CD
:1051700040F010005A4908600846006820F003001B
:1051800008600846006840F0020008605348406824
:10519000524948600846406848600846406840F404
:1051A000806048600846406820F47C1048600846EB
:1051B000406840F4F81048600846006840F080708D
:1051C000086000BF4548006800F000700028F9D072
:1051D0004248406820F00300404948600846406863
:1051E00040F00200486000BF3C48406800F00C00FE
:1051F0000828F9D10CBD10B5FFF792FF10BD10B50E
:105200003648006840F001003449086008464068AC
:10521000344908403149486008460068324908402E
:105220002E4908600846006820F48020086008467F
:10523000406820F4FE0048604FF41F008860FFF7CC
:10524000DAFF4FF000602949086010BD10B5002159
:1052500000200022214B5B6803F00C0121B10429DE
:1052600006D0082928D107E0214B224C236027E0F3
:10527000214B204C236023E0184B5B6803F4701033
:10528000164B5B6803F48032022303EB904022B993
:105290001A4B4343174C23600DE0104B5B6803F43B
:1052A000003323B1124B4343124C236003E0124BF3
:1052B0004343104C236003E00D4B0E4C236000BFB2
:1052C00000BF064B5B68C3F303130D4CE15C094B55
:1052D0001B68CB40074C236010BD0000001002404B
:1052E000002002400000FFF8FFFFF6FE08ED00E09E
:1052F00000127A00680100200024F40000093D003B
:105300006C01002031490143314A1160704770B58A
:10531000002100230F22C47804B32D4C246804F428
:10532000E064C4F5E064210AC1F10403CA40447892
:1053300004FA03F18478144021430901254C0678CE
:10534000A155047804F01F050124AC4005786D11C7
:10535000AD0005F1E025C5F8004109E0047804F04E
:105360001F050124AC401C4D0678761145F82640F7
:1053700070BD1A4A0A400243154B1B1F1A60704742
:1053800039B1134A121D12680243114B1B1D1A60DA
:1053900006E00F4A121D126882430D4B1B1D1A6056
:1053A0007047042808D14FF0E021096941F0040159
:1053B0004FF0E022116107E04FF0E021096921F090
:1053C00004014FF0E0221161704700000000FA056F
:1053D0000CED00E000E400E080E100E080FFFF1F52
:1053E00010B50446CC48844208D10121042001F0C4
:1053F0003FFC0021042001F03BFC46E0C74884420A
:1054000008D10121082001F033FC0021082001F01F
:105410002FFC3AE0C248844208D10121102001F05B
:1054200027FC0021102001F023FC2EE0BD4884421F
:1054300008D10121202001F01BFC0021202001F0D7
:1054400017FC22E0B848844208D10121402001F035
:105450000FFC0021402001F00BFC16E0B348844211
:1054600008D10121802001F003FC0021802001F0FF
:10547000FFFB0AE0AE48844207D10121801501F00C
:10548000F7FB0021A01501F0F3FB10BD10B50121C1
:10549000084601F0EDFB0021012001F0E9FB10BD01
:1054A0002DE9F041024600250026002000230024BB
:1054B000002791F803C00CF00F0591F803C00CF021
:1054C000100CBCF1000F03D091F802C04CEA0505A6
:1054D00091F800C0BCF1000F31D0146800202BE01F
:1054E0004FF0010C0CFA00F3B1F800C00CEA03060F
:1054F0009E4220D183004FF00F0C0CFA03F7BC43FF
:1055000005FA03FC4CEA040491F803C0BCF1280F2F
:1055100006D14FF0010C0CFA00FCC2F814C00AE0EE
:1055200091F803C0BCF1480F05D14FF0010C0CFA03
:1055300000FCC2F810C0401C0828D1D31460B1F898
:1055400000C0BCF1FF0F34DD546800202EE000F1F4
:10555000080C4FF0010808FA0CF3B1F800C00CEA8F
:1055600003069E4221D183004FF00F0C0CFA03F783
:10557000BC4305FA03FC4CEA040491F803C0BCF1F7
:10558000280F05D100F1080C08FA0CF8C2F81480B5
:1055900091F803C0BCF1480F07D100F1080C4FF09F
:1055A000010808FA0CF8C2F81080401C0828CED375
:1055B0005460BDE8F0814FF6FF71018002218170D7
:1055C0000421C17070470246002093680B400BB164
:1055D000012000E0002070470146886880B27047D3
:1055E00002460020D3680B400BB1012000E00020F0
:1055F00070470146C86880B27047016170474161D9
:1056000070470AB1016100E041617047C1607047B5
:105610004FF480320A4382618161826182698269CA
:10562000704702460020434B18684FF680731840BD
:1056300040EA021008433F4B186070473E49C8617A
:105640007047F0B50A46002300240021002500F031
:105650000046B6F1004F02D1364EF16901E0354EF9
:105660007168C0F3034583B200F44016B6F5401FDD
:1056700008D121F070612F4E766826F070662D4FAC
:105680007E6012E000F48016B6F5801F06D1032676
:1056900006FA05F4A14341F0706106E0460D3601BB
:1056A00003FA06F6B14341F0706122B1460D3601AE
:1056B00003FA06F6314300F00046B6F1004F02D17E
:1056C0001C4EF16101E01B4E7160F0BD30B500224F
:1056D0008B071C0F0F2303FA04F2164B08338C10B0
:1056E00053F824309343134C08348D1044F825307C
:1056F00023468C1053F824308C07240F00FA04F44E
:1057000023430C4C08348D1044F8253030BD0A4931
:10571000DC3108607047000000080140000C0140C7
:10572000001001400014014000180140001C01401D
:1057300000200140000001400000204210B5044656
:10574000FE48844208D10121C01401F091FA0021E1
:10575000E01401F08DFAC4E0B4F1804F08D10121CA
:10576000084601F092FA0021012001F08EFAB8E01B
:10577000F348844208D10121022001F086FA002179
:10578000022001F082FAACE0EE48844208D1012107
:10579000042001F07AFA0021042001F076FAA0E05A
:1057A000E948844208D10121082001F06EFA002165
:1057B000082001F06AFA94E0E448844208D101210B
:1057C000102001F062FA0021102001F05EFA88E05A
:1057D000DF48844208D10121202001F056FA00213F
:1057E000202001F052FA7CE0DA48844208D10121FD
:1057F000401401F03DFA0021601401F039FA70E024
:10580000D548844209D10121C80401F031FA0021B0
:105810004FF4002001F02CFA63E0D048844209D113
:105820000121080501F024FA00214FF4801001F055
:105830001FFA56E0CA48844209D10121480501F007
:1058400017FA00214FF4001001F012FA49E0C548A0
:10585000844208D10121402001F017FA00214020A4
:1058600001F013FA3DE0C048844208D101218020B4
:1058700001F00BFA0021802001F007FA31E0BB486B
:10588000844208D10121801501F0FFF90021A01503
:1058900001F0FBF925E0B648844209D10121080452
:1058A00001F0E6F900214FF4803001F0E1F918E051
:1058B000B048844209D10121480401F0D9F90021FE
:1058C0004FF4003001F0D4F90BE0AB48844208D12A
:1058D0000121880401F0CCF900214FF4802001F06F
:1058E000C7F910BD00220288944B98420ED0994B04
:1058F00098420BD0B0F1804F08D0914B984205D020
:10590000904B984202D0904B984204D14FF68F733F
:105910001A404B881A438D4B984207D08C4B9842C3
:1059200004D04FF6FF431A40CB881A4302808B887D
:1059300083850B880385814B98420BD0854B984219
:1059400008D08B4B984205D08A4B984202D08A4BA4
:10595000984201D10B7A038601238382704770B588
:10596000002400220023058C4FF6FE763540058486
:10597000028C8388048B4FF68F752C40B51E2C400B
:105980000D882C43751E2A400D892A434D882A43D1
:105990006A4DA8420BD06F4DA84208D0744DA84262
:1059A00005D0744DA84202D0734DA84213D14FF6D2
:1059B000F7752A404D892A434FF6FB752A408D889A
:1059C0002A434FF6FF652B404FF6FF552B408D893C
:1059D0002B43CD892B4383800483CD888586028425
:1059E00070BD70B5002400220023058C4FF6EF76C1
:1059F00035400584028C8388048B48F6FF752C4063
:105A00004FF6FF452C400D884FF6FF7606EA052538
:105A10002C434FF6DF752A400D8906EA05152A4307
:105A20004D8806EA05152A43444DA84202D0494D47
:105A3000A8421DD14FF67F752A404D894FF6FF765B
:105A400006EA05152A434FF6BF752A408D8806EAF7
:105A500005152A434FF6FF352B404FF2FF752B40BB
:105A60008D8906EA85052B43CD8906EA85052B43FA
:105A700083800483CD880587028470BD70B50024BF
:105A800000220023058C4FF6FF6635400584028C0A
:105A90008388848B4FF68F752C404FF6FC752C4015
:105AA0000D882C434FF6FF552A400D894FF6FF769F
:105AB00006EA05252A434D8806EA05252A431F4D97
:105AC000A84202D0234DA8421DD14FF2FF752A40B3
:105AD0004D894FF6FF7606EA05252A434FF6FF3536
