:020000040800F2
:10000000F809002089010008CD400008CF40000811
:10001000D3400008D7400008DB4000080000000083
:10002000000000000000000000000000DF400008A9
:10003000E140000800000000E3400008E54000083F
:10004000A3010008A3010008A3010008A301000800
:10005000A3010008A3010008A3010008A3010008F0
:10006000A3010008A3010008A3010008A3010008E0
:10007000A3010008A3010008A3010008A3010008D0
:10008000A3010008A3010008A3010008A3010008C0
:10009000A3010008A3010008A3010008A3010008B0
:1000A000A3010008A3010008A3010008A3010008A0
:1000B000A3010008FD3F0008A3010008A3010008F8
:1000C000A3010008A3010008A3010008A301000880
:1000D000A3010008F53F0008A3010008A3010008E0
:1000E000A3010008A3010008A301000800F002F822
:1000F00000F03AF80AA090E8000C82448344AAF188
:100100000107DA4501D100F02FF8AFF2090EBAE885
:100110000F0013F0010F18BFFB1A43F0010318473B
:100120000075000020750000103A24BF78C878C11F
:10013000FAD8520724BF30C830C144BF04680C60ED
:10014000704700000023002400250026103A28BF35
:1001500078C1FBD8520728BF30C148BF0B60704739
:100160001FB51FBD10B510BD05F0C0FC1146FFF74F
:10017000F7FF03F027FF05F0DEFC03B4FFF7F2FF03
:1001800003BC05F0DFFC0000094880470948004730
:10019000FEE7FEE7FEE7FEE7FEE7FEE7FEE7FEE737
:1001A000FEE7FEE704480549054A064B7047000094
:1001B000A7020008ED000008F8030020F80900205D
:1001C000F8050020F80500200CB5002001900090F3
:1001D0006C48006840F480306A49086000BF694894
:1001E000006800F4003000900198401C01900098D5
:1001F00018B90198B0F5A06FF1D16248006800F419
:10020000003010B10120009001E000200090009823
:10021000012843D15C48006840F010005A4908604A
:100220000846006820F0030008600846006840F0B7
:1002300002000860534840685249486008464068D8
:1002400048600846406840F480604860084640685E
:1002500020F47C1048600846406840F4F81048607C
:100260000846006840F08070086000BF454800689C
:1002700000F000700028F9D04248406820F00300E8
:10028000404948600846406840F00200486000BFAE
:100290003C48406800F00C000828F9D10CBD10B5AE
:1002A000FFF792FF10BD10B53648006840F001001E
:1002B000344908600846406834490840314948607C
:1002C00008460068324908402E4908600846006820
:1002D00020F4802008600846406820F4FE00486052
:1002E0004FF41F008860FFF7DAFF4FF000602949E4
:1002F000086010BD10B5002100200022214B5B6872
:1003000003F00C0121B1042906D0082928D107E007
:10031000214B224C236027E0214B204C236023E01B
:10032000184B5B6803F47010164B5B6803F4803263
:10033000022303EB904022B91A4B4343174C23602E
:100340000DE0104B5B6803F4003323B1124B4343C1
:10035000124C236003E0124B4343104C236003E034
:100360000D4B0E4C236000BF00BF064B5B68C3F310
:1003700003130D4CE15C094B1B68CB40074C236019
:1003800010BD000000100240002002400000FFF8F5
:10039000FFFFF6FE08ED00E000127A0000000020EA
:1003A0000024F40000093D0004000020314901430D
:1003B000314A1160704770B5002100230F22C478C4
:1003C00004B32D4C246804F4E064C4F5E064210A0D
:1003D000C1F10403CA40447804FA03F1847814405C
:1003E00021430901254C0678A155047804F01F0526
:1003F0000124AC4005786D11AD0005F1E025C5F88C
:10040000004109E0047804F01F050124AC401C4DB4
:100410000678761145F8264070BD1A4A0A40024314
:10042000154B1B1F1A60704739B1134A121D126811
:100430000243114B1B1D1A6006E00F4A121D126881
:1004400082430D4B1B1D1A607047042808D14FF0E2
:10045000E021096941F004014FF0E022116107E059
:100460004FF0E021096921F004014FF0E022116111
:10047000704700000000FA050CED00E000E400E029
:1004800080E100E080FFFF1F10B50446CC488442A5
:1004900008D10121042001F03FFC0021042001F0DB
:1004A0003BFC46E0C748844208D10121082001F006
:1004B00033FC0021082001F02FFC3AE0C2488442BE
:1004C00008D10121102001F027FC0021102001F0AB
:1004D00023FC2EE0BD48844208D10121202001F0F8
:1004E0001BFC0021202001F017FC22E0B8488442C8
:1004F00008D10121402001F00FFC0021402001F033
:100500000BFC16E0B348844208D10121802001F0A1
:1005100003FC0021802001F0FFFB0AE0AE4884428A
:1005200007D10121801501F0F7FB0021A01501F092
:10053000F3FB10BD10B50121084601F0EDFB0021D1
:10054000012001F0E9FB10BD2DE9F0410246002534
:100550000026002000230024002791F803C00CF09F
:100560000F0591F803C00CF0100CBCF1000F03D084
:1005700091F802C04CEA050591F800C0BCF1000FEB
:1005800031D0146800202BE04FF0010C0CFA00F37E
:10059000B1F800C00CEA03069E4220D183004FF060
:1005A0000F0C0CFA03F7BC4305FA03FC4CEA0404F5
:1005B00091F803C0BCF1280F06D14FF0010C0CFAE2
:1005C00000FCC2F814C00AE091F803C0BCF1480F67
:1005D00005D14FF0010C0CFA00FCC2F810C0401C11
:1005E0000828D1D31460B1F800C0BCF1FF0F34DD8E
:1005F000546800202EE000F1080C4FF0010808FAC2
:100600000CF3B1F800C00CEA03069E4221D183002E
:100610004FF00F0C0CFA03F7BC4305FA03FC4CEA4D
:10062000040491F803C0BCF1280F05D100F1080CB7
:1006300008FA0CF8C2F8148091F803C0BCF1480F16
:1006400007D100F1080C4FF0010808FA0CF8C2F8C5
:100650001080401C0828CED35460BDE8F0814FF6CE
:10066000FF710180022181700421C1707047024630
:10067000002093680B400BB1012000E00020704780
:100680000146886880B2704702460020D3680B405C
:100690000BB1012000E0002070470146C86880B21D
:1006A000704701617047416170470AB1016100E024
:1006B00041617047C16070474FF480320A438261E4
:1006C0008161826182698269704702460020434BE2
:1006D00018684FF68073184040EA021008433F4BF9
:1006E000186070473E49C8617047F0B50A4600235C
:1006F00000240021002500F00046B6F1004F02D191
:10070000364EF16901E0354E7168C0F3034583B29E
:1007100000F44016B6F5401F08D121F070612F4E4D
:10072000766826F070662D4F7E6012E000F4801629
:10073000B6F5801F06D1032606FA05F4A14341F061
:10074000706106E0460D360103FA06F6B14341F04A
:10075000706122B1460D360103FA06F6314300F00E
:100760000046B6F1004F02D11C4EF16101E01B4E74
:100770007160F0BD30B500228B071C0F0F2303FA08
:1007800004F2164B08338C1053F824309343134C67
:1007900008348D1044F8253023468C1053F824304B
:1007A0008C07240F00FA04F423430C4C08348D10FA
:1007B00044F8253030BD0A49DC310860704700003C
:1007C00000080140000C01400010014000140140ED
:1007D00000180140001C01400020014000000140C1
:1007E0000000204210B50446FE48844208D1012191
:1007F000C01401F091FA0021E01401F08DFAC4E078
:10080000B4F1804F08D10121084601F092FA00218D
:10081000012001F08EFAB8E0F348844208D10121AA
:10082000022001F086FA0021022001F082FAACE0F9
:10083000EE48844208D10121042001F07AFA002117
:10084000042001F076FAA0E0E948844208D10121B1
:10085000082001F06EFA0021082001F06AFA94E005
:10086000E448844208D10121102001F062FA0021FD
:10087000102001F05EFA88E0DF48844208D10121AF
:10088000202001F056FA0021202001F052FA7CE0ED
:10089000DA48844208D10121401401F03DFA0021D8
:1008A000601401F039FA70E0D548844209D1012181
:1008B000C80401F031FA00214FF4002001F02CFAB5
:1008C00063E0D048844209D10121080501F024FAEF
:1008D00000214FF4801001F01FFA56E0CA4884420C
:1008E00009D10121480501F017FA00214FF4001049
:1008F00001F012FA49E0C548844208D101214020A4
:1009000001F017FA0021402001F013FA3DE0C04841
:10091000844208D10121802001F00BFA00218020BF
:1009200001F007FA31E0BB48844208D1012180156B
:1009300001F0FFF90021A01501F0FBF925E0B64810
:10094000844209D10121080401F0E6F900214FF4A5
:10095000803001F0E1F918E0B048844209D101216A
:10096000480401F0D9F900214FF4003001F0D4F926
:100970000BE0AB48844208D10121880401F0CCF996
:1009800000214FF4802001F0C7F910BD0022028839
:10099000944B98420ED0994B98420BD0B0F1804FB7
:1009A00008D0914B984205D0904B984202D0904B82
:1009B000984204D14FF68F731A404B881A438D4BDF
:1009C000984207D08C4B984204D04FF6FF431A4010
:1009D000CB881A4302808B8883850B880385814BE3
:1009E00098420BD0854B984208D08B4B984205D04B
:1009F0008A4B984202D08A4B984201D10B7A0386E7
:100A000001238382704770B5002400220023058CE7
:100A10004FF6FE7635400584028C8388048B4FF6B2
:100A20008F752C40B51E2C400D882C43751E2A4016
:100A30000D892A434D882A436A4DA8420BD06F4D39
:100A4000A84208D0744DA84205D0744DA84202D0E7
:100A5000734DA84213D14FF6F7752A404D892A43AA
:100A60004FF6FB752A408D882A434FF6FF652B40D1
:100A70004FF6FF552B408D892B43CD892B43838027
:100A80000483CD888586028470BD70B50024002261
:100A90000023058C4FF6EF7635400584028C838861
:100AA000048B48F6FF752C404FF6FF452C400D880F
:100AB0004FF6FF7606EA05252C434FF6DF752A40F0
:100AC0000D8906EA05152A434D8806EA05152A43CD
:100AD000444DA84202D0494DA8421DD14FF67F7522
:100AE0002A404D894FF6FF7606EA05152A434FF650
:100AF000BF752A408D8806EA05152A434FF6FF3553
:100B00002B404FF2FF752B408D8906EA85052B435C
:100B1000CD8906EA85052B4383800483CD8805872C
:100B2000028470BD70B5002400220023058C4FF6AE
:100B3000FF6635400584028C8388848B4FF68F7561
:100B40002C404FF6FC752C400D882C434FF6FF557A
:100B50002A400D894FF6FF7606EA05252A434D887F
:100B600006EA05252A431F4DA84202D0234DA8427C
:100B70001DD14FF2FF752A404D894FF6FF7606EAE8
:100B800005252A434FF6FF352A408D8806EA0525BC
:100B90002A434EF6FF752B404DF6FF752B408D898D
:100BA00006EA05152B43CD8906EA05152B438380FC
:100BB0008483CD888587028470BD70B500220023B0
:100BC0000024058C4EF6FF7635400584038C84881E
:100BD000828B48F6FF752A404FF6FF452A400D8864
:100BE00020E00000002C014000040040000800400C
:100BF000000C004000100040001400400034014090
:100C0000004C0140005001400054014000180040D9
:100C1000001C004000200040004001400044014012
:100C2000004801404FF6FF7606EA05252A434DF6B7
:100C3000FF752B400D8906EA05352B434D8806EAE2
:100C400005352B43FA4DA84202D0FA4DA84208D1EF
:100C50004BF6FF752C408D894FF6FF7606EA851519
:100C60002C4384808283CD88A0F84050038470BDDB
:100C7000828B4FF2FF331A408283828B4FF6FF73D1
:100C800003EA01231A4382837047F0B50C461546E8
:100C9000002200210026078C4EF6FF7C07EA0C0795
:100CA0000784828B018C4FF6FF7707EA043640F603
:100CB000FF473A404FF6FF7707EA05273A434FF6DA
:100CC000FF7707EA03373A43D94FB8420ED0D94FDE
:100CD000B8420BD0B0F1804F08D0D74FB84205D002
:100CE000D64FB84202D0D64FB84206D14DF6FF7764
:100CF000394046F48057394305E047F6FF573940FD
:100D000044F48057394382830184F0BD828B4FF6CF
:100D1000F3731A408283828B0A4382837047F0B553
:100D20000C461546002200210026078C4FF6FF6C6A
:100D300007EA0C070784828B018C4FF6FF7707EADE
:100D400004264FF60C773A404FF6FF7707EA031771
:100D50002F433A43B64FB8420ED0B64FB8420BD0ED
:100D6000B0F1804F08D0B44FB84205D0B34FB8426D
:100D700002D0B34FB84206D14FF6FF57394046F480
:100D80008077394305E04FF2FF57394044F48077CC
:100D9000394382830184F0BD028B4FF2FF331A4046
:100DA0000283028B4FF6FF7303EA01231A43028387
:100DB0007047F0B50C461546002200210026078C2E
:100DC0004FF6EF7C07EA0C070784028B018C4FF685
:100DD000FF7707EA041640F6FF473A404FF6FF77E1
:100DE00007EA03373A434FF6FF7707EA05273A4306
:100DF0008F4FB8420ED08F4FB8420BD0B0F1804F1A
:100E000008D08D4FB84205D08C4FB84202D08C4FDD
:100E1000B84206D14FF6DF77394046F01007394324
:100E200005E04FF65F77394044F0100739430283FD
:100E30000184F0BD028B4FF6F3731A400283028BDC
:100E40000A4302837047F0B50C4615460022002184
:100E5000068C4FF6FE773E400684028B018C4FF6DF
:100E60000C7632407E1C06EA03162E433243704E47
:100E7000B0420ED06F4EB0420BD0B0F1804F08D0D0
:100E80006D4EB04205D06D4EB04202D06C4EB042B5
:100E900006D14FF6FD76314044F00106314305E0BE
:100EA0004FF6F576314044F0010631430283018468
:100EB000F0BD70B505460C465D4885420ED05D48D4
:100EC00085420BD0B5F1804F08D05B48854205D0F4
:100ED0005A48854202D05A48854200D100E000BFFE
:100EE000208850B92389A28861882846FFF7ABFF84
:100EF000E1882846FFF79EFF25E0208804280AD1D4
:100F00002389A28861882846FFF753FFE188284695
:100F1000FFF742FF17E0208808280AD12389A2881A
:100F200061882846FFF7FBFEE1882846FFF7EEFEC2
:100F300009E02389A28861882846FFF7A6FEE18898
:100F40002846FFF795FE70BD2DE9F04105460C4699
:100F500000260127608808B9022600E00026A08844
:100F6000012801D1022700E001272088A0B92389A8
:100F7000A28861882846FFF766FFE1882846FFF7C8
:100F800059FF23893A4631462846FFF712FFE18888
:100F90002846FFF701FF13E02389A28861882846CD
:100FA000FFF707FFE1882846FFF7F6FE23893A4658
:100FB00031462846FFF747FFE1882846FFF73AFF0A
:100FC000BDE8F0810A884B881A438B881A43CB8886
:100FD0001A430B891A434B891A438B891A43A0F889
:100FE000442070474FF6FF71818000210180C1804D
:100FF0004180017270470021018041808180C18061
:10100000018141818181C18170470021018041803E
:10101000012181800021C180018170470021018070
:1010200041808180C18001814181818170470000C0
:10103000002C014000340140000400400008004042
:10104000000C004021B1028842F00102028004E05D
:1010500002884FF6FE731A400280704731B1B0F833
:10106000442042F40042A0F8442005E0B0F84420B7
:10107000C2F30E02A0F8442070471AB183890B43D3
:10108000838102E083898B4383817047818270472B
:1010900041EA0203A0F8483070471AB183890B4334
:1010A000838102E083898B438381704701894FF6F6
:1010B000F8721140018170470A46002101894FF6FC
:1010C0008F73194011430181704730B504460D46B6
:1010D00029462046FFF7F0FF208940F007002081D5
:1010E00030BD2DE9F04104460D4616461F46602DE1
:1010F00006D13B46012231462046FFF75AFE05E065
:101100003B46012231462046FFF79DFE29462046F8
:10111000FFF7D2FF208940F007002081BDE8F08171
:1011200030B50C4600210189C9B24FF6FF7505EABA
:101130000325154325432943018130BD2DE9F041A5
:1011400005460E4617469846002443463A46314621
:101150002846FFF7E5FF2C894FF6F870044044F06D
:1011600007044FF68F70044044F070042C81BDE8F2
:10117000F081F0B504460D4616461F463B46324602
:1011800029462046FFF7CCFF208940F4804020818B
:10119000F0BD0185828270470A46002101884FF622
:1011A0008F731940114301807047F0B50C46154606
:1011B0001E460021002200230189028B038C4FF67A
:1011C000F877394021434FF6FC473A4040F2011787
:1011D0003A434FF6DD773B404FF6FF7707EA0617B5
:1011E0002F433B43018102830384F0BD0A46002163
:1011F000018B4FF68F7319401143018370470A46E4
:101200000021018B48F6FF7319404FF6FF7303EA84
:1012100002231943018370470A460021818B4FF650
:101220008F7319401143818370470A460021818BD7
:1012300048F6FF7319404FF6FF7303EA0223194380
:101240008183704721B1028842F08002028004E06D
:1012500002884FF67F731A400280704721B182885E
:1012600042F00402828004E082884FF6FB731A4049
:101270008280704721B1828842F00802828004E0B7
:1012800082884FF6F7731A408280704721B18288B6
:1012900042F00102828004E082884FF6FE731A4019
:1012A000828070470A460021018B4FF6F773194080
:1012B0001143018370470A460021018B4FF2FF73EF
:1012C00019404FF6FF7303EA022319430183704765
:1012D0000A460021818B4FF6F77319401143818331
:1012E00070470A460021818B4FF2FF7319404FF679
:1012F000FF7303EA02231943818370470A460021E2
:10130000018B4FF6FB7319401143018370470A4666
:101310000021018B4FF6FF3319404FF6FF7303EAAC
:1013200002231943018370470A460021818B4FF63F
:10133000FB7319401143818370470A460021818B5A
:101340004FF6FF3319404FF6FF7303EA02231943A8
:10135000818370470A460021018B4FF67F73194045
:101360001143018370470A460021018BC1F30E012E
:101370004FF6FF7303EA02231943018370470A46BD
:101380000021818B4FF67F73194011438183704791
:101390000A460021818BC1F30E014FF6FF7303EA69
:1013A00002231943818370470A460021018C4FF6BE
:1013B000FD7319401143018470470A460021018CD6
:1013C0004FF6F77319401143018470470A46002114
:1013D000018C4FF6DF7319404FF6FF7303EA0213D7
:1013E0001943018470470A460021018C4FF67F7330
:1013F00019404FF6FF7303EA021319430184704743
:101400000A460021018C4FF6FF5319404FF6FF7337
:1014100003EA02231943018470470A460021018C24
:101420004FF2FF7319404FF6FF7303EA022319438B
:10143000018470470A460021018C4DF6FF73194064
:101440004FF6FF7303EA023319430184704730B546
:10145000002301248C40A3B2048C9C430484048C9C
:1014600002FA01F5ADB22C43048430BD30B500233F
:1014700004248C40A3B2048C9C430484048C02FAA0
:1014800001F5ADB22C43048430BD70B50346002095
:1014900000241846183001258D40ACB21D8CA543A0
:1014A0001D8409B1082909D100EB6100056825F008
:1014B000700505600568154305600EE00D1FC5F356
:1014C0004E052844056825F4E045056005684FF69B
:1014D000FF7606EA02263543056070BD21B1028819
:1014E00042F00202028004E002884FF6FD731A40C7
:1014F0000280704721B1028842F00402028004E0B9
:1015000002884FF6FB731A400280704721B182882F
:1015100042F08002828004E082884FF67F731A4096
:101520008280704702884FF6F7731A400280028863
:101530000A430280704782884FF68F731A40828078
:1015400082880A438280704702894FF6F8731A40F6
:10155000028102890A430281704702894FF67F7334
:101560001A40028102890A430281704781847047D0
:1015700081857047818670470187704781877047F2
:10158000A0F84010704702884FF6FF431A400280CF
:1015900002880A43028070470146888E70470146E0
:1015A000088F70470146888F70470146B1F84000A8
:1015B00070470146888C70470146088D7047024687
:1015C0000020138A0B400BB1012000E0002070477F
:1015D000CA430282704730B502460020002300242F
:1015E000158A05EA0103958905EA010413B10CB1D6
:1015F000012000E0002030BDCA4302827047000095
:1016000010B50446FB48844209D10121880300F04B
:1016100083FB00214FF4804000F07EFB32E0F6486F
:10162000844209D10121480400F083FB00214FF4DA
:10163000003000F07EFB25E0F048844209D1012112
:10164000880400F076FB00214FF4802000F071FB4D
:1016500018E0EB48844209D10121C80400F069FB7D
:1016600000214FF4002000F064FB0BE0E5488442C9
:1016700008D10121080500F05CFB00214FF4801027
:1016800000F057FB10BD2DE9F04786B005460E4629
:101690000024A24600BFA1460027B08900B100BFC8
:1016A0002F462C8A4CF6FF700440F08804432C82AD
:1016B000AC894EF6F3100440B08831890843718933
:1016C00008430443AC81AC8A4FF6FF400440B08924
:1016D0000443AC8201A800F098FAC648874202D1C0
:1016E000DDF810A001E0DDF80CA0A88900F40040AE
:1016F00040B10AEBCA0000EB0A1031684900B0FBA8
:10170000F1F807E00AEBCA0000EB0A103168890023
:10171000B0FBF1F86420B8FBF0F00401200964216B
:1017200001FB1089A88900F4004040B1322000EB91
:10173000C900B0FBF1F000F00700044308E03220DC
:1017400000EB09106421B0FBF1F000F00F0004433E
:101750002C8106B0BDE8F0874FF4165101600021DE
:101760008180C18001810C214181002181817047EC
:1017700010B502460020108A4FF2FF0318400B8874
:101780004C8823438C882343CC88234318431082FE
:1017900010BD0021018041808180C180704721B14E
:1017A000828942F40052828104E082894DF6FF73FF
:1017B0001A4082817047F0B50346002400260025B8
:1017C000002040F66A17B94200D100BF1846C1F3A5
:1017D000421401F01F06012707FA06F5012C01D17A
:1017E0000C3004E0022C01D1103000E014301AB1AA
:1017F00007682F43076002E00768AF430760F0BD4A
:101800001AB1838A0B43838202E0838A8B438382EB
:101810007047028A4FF6F0731A400282028A0A4326
:101820000282704782894FF2FF731A408281828957
:101830000A438281704721B1828942F0020282818B
:1018400004E082894FF6FD731A4082817047028A54
:101850004FF6DF731A400282028A0A4302827047FF
:1018600021B1028A42F48042028204E0028A4BF6ED
:10187000FF731A4002827047C1F3080282807047EA
:1018800001468888C0F308007047818941F0010152
:1018900081817047028BD2B20283028B42EA01221D
:1018A00002837047028B02F47F420283028B0A4359
:1018B0000283704721B1828A42F02002828204E0D2
:1018C000828A4FF6DF731A408282704721B1828A82
:1018D00042F01002828204E0828A4FF6EF731A40CF
:1018E0008282704721B1828A42F00802828204E03B
:1018F000828A4FF6F7731A408282704721B182893B
:1019000042F40042828103E08289C2F30E028281A6
:10191000704721B1828A42F40062828204E0828AA6
:101920004FF2FF731A4082827047828A4FF6FB7330
:101930001A408282828A0A438282704721B1828A57
:1019400042F00202828204E0828A4FF6FD731A405E
:101950008282704702460020B1F5007F00D100BFAF
:1019600013880B400BB1012000E00020704701F408
:101970000072B2F5007F00D100BFCA4302807047F9
:1019800070B50246002400230025002040F66A16A8
:10199000B14200D100BFC1F3421501F01F0301267F
:1019A00006FA03F3012D02D19689334006E0022D99
:1019B00002D1168A334001E0968A33400C12012688
:1019C00006FA04F41688344013B10CB1012000E08B
:1019D000002070BD10B50022002340F66A14A14219
:1019E00000D100BF0A1201249440A3B2DC4304805A
:1019F00010BD000000380140004400400048004095
:101A0000004C004000500040DF48006840F00100FA
:101A1000DD49086008464068DC490840DA4948600A
:101A200008460068DA490840D74908600846006857
:101A300020F4802008600846406820F4FE004860DA
:101A40004FF41F0088607047CF49096821F4803146
:101A5000CD4A11601146096821F480211160B0F56A
:101A6000803F03D0B0F5802F0ED106E0C64909684B
:101A700041F48031C44A116007E0C349096841F468
:101A8000A021C14A116000E000BF00BF704710B53F
:101A900001460022002300204A11012A02D1BA4C3B
:101AA000236806E0022A02D1B74C236A01E0B64C53
:101AB000636A01F01F02012494401C400CB1012014
:101AC00000E0002010BD38B5002000900024002563
:101AD00000BF3120FFF7DBFF05460098401C009057
:101AE0000098B0F5A06F01D0002DF2D03120FFF7A3
:101AF000CEFF08B1012400E00024204638BD014695
:101B00000020A14A106820F0F80040EAC1001060EF
:101B10007047A04908607047024600209A4B5868F9
:101B200020F47C1042EA01031843974B5860704739
:101B300098490866704701460020934A506820F093
:101B400003000843506070478F48406800F00C0065
:101B50007047014600208C4A506820F0F00008438E
:101B60005060704701460020874A506820F4E060CA
:101B700008435060704701460020834A506820F4B3
:101B8000605040EAC1005060704729B17E4A527AE5
:101B900002437D4B5A7204E07B4A527A82437A4B6D
:101BA0005A7270477B49D83108607047014600205F
:101BB000754A506820F44040084350607047002147
:101BC000714A20321170704A82F82010012802D028
:101BD00004280AD104E001216B4A2032117005E08B
:101BE0000521694A2032117000E000BF00BF704734
:101BF0006949086070476449096A0143624A116291
:101C00007047654944390860704730B500210022AB
:101C1000002400235C4D6D6805F00C0121B10429FE
:101C200005D0082923D105E05C4D056022E05C4D1C
:101C300005601FE0544D6D6805F47012524D6D68DB
:101C400005F48034022505EB92421CB9554D5543ED
:101C500005600BE04C4D6D6805F400351DB14F4D2E
:101C60005543056002E04E4D5543056002E04B4D83
:101C7000056000BF00BF444D6D6805F0F001090923
:101C8000494D6B5C0568DD4045603F4D6D6805F46E
:101C9000E061090A444D6B5C4568DD4085603A4D62
:101CA0006D6805F46051C90A3F4D6B5C4568DD40C5
:101CB000C560354D6D6805F44041890B3B4D6B5C4B
:101CC000C568B5FBF3F5056130BD29B12E4A5269EF
:101CD00002432D4B5A6104E02B4A526982432A4B3E
:101CE0005A61704729B1284A92690243264B9A618A
:101CF00004E0254A92698243234B9A61704729B1D7
:101D0000214AD2690243204BDA6104E01E4AD269BB
:101D100082431D4BDA61704729B11B4AD2680243E6
:101D2000194BDA6004E0184AD2688243164BDA6035
:101D3000704729B1144A12690243134B1A6104E037
:101D4000114A12698243104B1A6170471249403997
:101D5000086070470F49C86470470B49C8717047E5
:101D60000948406A40F08070074948627047014660
:101D70000020054A92680A400AB1012000E00020D4
:101D80007047014988727047001002400000FFF858
:101D9000FFFFF6FE000042428004424200127A0039
:101DA0000024F40000093D0014000020240000205D
:101DB00010B50446BE48844208D101218014FFF7C3
:101DC000ABFF0021A014FFF7A7FF16E0B94884423B
:101DD00008D101210014FFF7ACFF00212014FFF708
:101DE000A8FF0AE0B448844207D10121C013FFF7DD
:101DF000A0FF0021E013FFF79CFF10BD10B50022EB
:101E0000028802F441520B884C8823438C88234378
:101E1000CC8823430C8923434C8923438C89234357
:101E2000CC8923431A430280838B4FF2FF742340F3
:101E300083830B8A038210BD2DE9F04F85B00546E0
:101E40000C464FF0000902274FF000084FF0010B3D
:101E50000026B246A88B4FF240010840A88302201A
:101E60002884B5F81C90A068022801D100BF38E092
:101E7000A08810B94FF0010B01E04FF0020B8D4824
:101E8000854200D100E000BF6846FFF7BEFEDDF8E6
:101E900000A0E088B0F5007F0AD14FEA1A2000EBDD
:101EA00080004000A168B0FBF1F0401D86B20BE05D
:101EB0004FEA4B10BAFBF0F000EB80004000A16845
:101EC000B0FBF1F0401D86B20A20B6FBF0F606F03A
:101ED0000108A6EB0800C0F34F074FF6FF7000EAB9
:101EE0000828022F01DBFF2F02DD02274FF0000838
:101EF000E08840EA080038432884A088A189084384
:101F0000618808432188084340F4006040EA0909D9
:101F1000A5F81C9005B0BDE8F08F0021018041803C
:101F20008180C180018141818181C181072101823C
:101F300070470021018041808180C1800221816041
:101F400000218181704721B1028842F04002028065
:101F500004E002884FF6BF731A400280704721B137
:101F6000828B42F48062828304E0828B4FF6FF33DF
:101F70001A408283704730B5002400230C110125DC
:101F8000A540ABB21AB185881D43858002E08588E3
:101F90009D43858030BD1AB183880B43838002E066
:101FA00083888B438380704781817047014688898D
:101FB00070474FF6FF62914204D0028842F480726B
:101FC000028004E002884FF6FF631A4002807047E7
:101FD00021B1828842F00402828004E082884FF6B8
:101FE000FB731A408280704702884FF2FF731A40D9
:101FF000028002880A4302807047018841F48051C0
:102000000180704721B1028842F40052028004E04E
:1020100002884DF6FF731A40028070470246002086
:10202000012901D0108B00E0908A70470146088A90
:102030007047B1F5804F04D1028842F4804202809B
:1020400004E002884BF6FF731A4002807047024694
:10205000002013890B400BB1012000E000207047E5
:10206000CA4302817047F0B50246002000240023D5
:10207000002501F00F070126BE40B4B20B11012666
:102080009E40B3B2968806EA03051689264016B12B
:102090000DB1012000E00020F0BD10B5002201F0DC
:1020A0000F040123A3409AB2D343038110BD000063
:1020B0000030014000380040003C00400146002054
:1020C000FE4A106800F03800084310607047FB4972
:1020D000096821F00801F94A1160114609680143B5
:1020E00011607047F549096821F01001F34A116049
:1020F00011460968014311607047F148EF49486093
:10210000F04848607047EE48EC494860ED48486048
:102110007047EA48006940F08000E849086170476C
:10212000E648006940F08000E449086170470420F7
:10213000E249C96801F0010109B101200EE0DF495F
:10214000C96801F0040109B1022007E0DB49C96850
:1021500001F0100109B1032000E00420704700B530
:1021600002460423FFF7E3FF034603E0FFF7DFFF28
:102170000346521E012B01D1002AF7D102B90523D3
:10218000184600BD30B5044604254FF43020FFF753
:10219000E6FF0546042D17D1C848006940F002004B
:1021A000C649086108464461006940F04000086182
:1021B0004FF43020FFF7D3FF0546C048006941F6D1
:1021C000FD710840BD490861284630BD10B50424A2
:1021D0004FF43020FFF7C3FF0446042C16D1B74854
:1021E000006940F00400B54908610846006940F004
:1021F000400008614FF43020FFF7B1FF0446AF48BC
:10220000006941F6FB710840AC490861204610BDE9
:1022100000B502460423FFF78AFF034603E0FFF7F9
:1022200086FF0346521E012B01D1002AF7D102B9C5
:102230000523184600BD10B504244FF43020FFF7E5
:10224000E7FF0446042C16D19C48006940F00400C6
:102250009A4908610846006940F0400008614FF45F
:102260003020FFF7D5FF04469448006941F6FB7122
:10227000084092490861204610BD00208F49C96975
:1022800001F0020109B1012000E00020704730B5E3
:10229000A5250424FFF7F1FF00B100254FF43020FD
:1022A000FFF75DFF0446042C3AD1854883498860D6
:1022B000844888600846006940F0200008610846AC
:1022C000006940F0400008614FF43020FFF747FFFD
:1022D0000446042C1BD17948006941F6DF7108409F
:1022E000764908610846006940F0100008617648A8
:1022F0000580E002FFF733FF0446052C10D06F483D
:10230000006941F6EF7108406C49086108E0052C4E
:1023100006D06A48006941F6EF71084067490861D4
:10232000204630BD78B506460C46042500200090B6
:10233000E802FFF714FF0546042D24D15F48006929
:1023400040F001005D4908613480E802FFF707FFB3
:102350000546042D10D1B01C0090200C0099088077
:10236000E802FFF7FCFE05465448006941F6FE719D
:1023700008405249086106E05048006941F6FE7184
:1023800008404E490861284678BD70B504460D46A0
:102390000426F002FFF7E3FE0646042E11D147485B
:1023A000006940F00100454908612580F002FFF70F
:1023B000D6FE06464148006941F6FE7108403F4995
:1023C0000861304670BD70B505460E460424E00233
:1023D000FFF7C5FE0446042C17D1394837498860F9
:1023E000384888600846006940F0100008612E8077
:1023F000E002FFF7B4FE0446052C06D02F48006922
:1024000041F6EF7108402D490861204670BD2DE965
:10241000F04304464FF6FF763746B046B1460425F2
:10242000E443E6B2C4F30727C4F307484FEA14694C
:10243000E802FFF794FE0546042D49D120481F49C4
:102440008860204888600846006940F010000861F4
:10245000FF2E06D01C4808300680E802FFF77FFEFA
:102460000546042D08D1FF2F06D017480A300780F3
:10247000E802FFF774FE0546042D0AD1B8F1FF0FFC
:1024800007D011480C30A0F80080E802FFF767FE83
:102490000546042D0AD1B9F1FF0F07D00A480E30C6
:1024A000A0F80090E802FFF75AFE0546052D0FD070
:1024B0000248006941F6EF71084007E00020024041
:1024C00023016745AB89EFCD00F8FF1F664908611E
:1024D0002846BDE8F08330B5054604244FF430208B
:1024E000FFF73DFE0446042C41D160485E498860F8
:1024F0005F4888600846006940F02000086108468F
:10250000006940F0400008614FF43020FFF727FEDB
:102510000446042C22D15448006941F6DF7108407A
:10252000514908610846006940F0100008611DB17A
:1025300000205049088002E0A5204E4908804FF451
:102540003020FFF70CFE0446052C10D046480069E9
:1025500041F6EF7108404449086108E0052C06D0B7
:102560004148006941F6DF7108403F490861204653
:1025700030BDF0B505460E46174604243B483A499F
:1025800088603B488860E002FFF7E9FD0446042CC0
:1025900019D13548006940F010003349086147F00F
:1025A000F800304328433349891C0880E002FFF7D4
:1025B000D6FD0446052C06D02B48006941F6EF7184
:1025C0000840294908612046F0BD2748C0698008B5
:1025D00070472548006A704700202349096801F0C8
:1025E000200109B1012000E00020704729B11E4AF6
:1025F000126902431C4B1A6104E01B4A12698243B0
:10260000194B1A61704701460020012908D1164A6A
:10261000D26902F001020AB1012008E0002006E0C0
:10262000114AD2680A400AB1012000E00020704738
:102630000D49C860704704200B49C96801F00101C9
:1026400009B101200EE00849C96801F0040109B18F
:10265000022007E00449C96801F0100109B1032014
:1026600000E004207047000000200240230167457D
:10267000AB89EFCD00F8FF1F10B50446FA4884423D
:1026800008D101214015FFF747FB00216015FFF736
:1026900043FB17E0F548844208D101210015FFF7FC
:1026A0003BFB00212015FFF737FB0BE0F04884428D
:1026B00008D10121C803FFF72FFB00214FF4004090
:1026C000FFF72AFB10BD30B50246002000235068FA
:1026D000E84C20400D790C6844EA05242043506002
:1026E0009068E54C2040D1E902542C434D7944EAEE
:1026F000450420439060D06A20F470000C7C641E76
:10270000E4B2234340EA0350D06230BD00210160AF
:10271000017141718160C16001210174704721B173
:10272000826842F00102826003E0826822F00102C6
:102730008260704721B1826842F48072826003E057
:10274000826822F480728260704710B50023CBB299
:102750001AB144681C43446002E044689C434460EE
:1027600010BD816841F0080181607047014600207A
:102770008A6802F008020AB1012000E000207047D8
:10278000816841F0040181607047014600208A6839
:1027900002F004020AB1012000E00020704721B1DC
:1027A000826842F4A002826003E0826822F4A00200
:1027B00082607047014600208A6802F480020AB1F4
:1027C000012000E00020704710B50A4600210023D8
:1027D000416821F46041531E41EA4331416010BD1C
:1027E00021B1426842F40062426003E0426822F490
:1027F000006242607047F0B504460D46002000219B
:10280000092D11DDE068A5F10A0606EB460707264B
:1028100006FA07F18843A5F10A0606EB460603FA15
:1028200006F10843E0600CE0206905EB4507072648
:1028300006FA07F1884305EB450603FA06F108435B
:102840002061072A0FDA606B561E06EB86071F26EB
:1028500006FA07F18843561E06EB860605FA06F1CE
:102860000843606322E00D2A0FDA206BD61F06EBC7
:1028700086071F2606FA07F18843D61F06EB860651
:1028800005FA06F10843206310E0E06AA2F10D06A4
:1028900006EB86071F2606FA07F18843A2F10D060C
:1028A00006EB860605FA06F10843E062F0BD21B1A9
:1028B000826842F48012826003E0826822F480120F
:1028C000826070470146C86C80B2704766484C30E1
:1028D0000068704721B1426842F48062426003E0C0
:1028E000426822F480624260704721B1426842F43B
:1028F0008052426003E0426822F480524260704796
:102900000A460021816821F4E0411143816070474B
:1029100021B1826842F40042826003E0826822F4BE
:1029200000428260704721B1826842F402128260E4
:1029300003E0826822F402128260704701460020A0
:102940008A6802F400120AB1012000E000207047FA
:10295000F0B504461546002000220026092911DDA5
:10296000E068A1F10A0707EB470C072707FA0CF20A
:102970009043A1F10A0707EB470703FA07F2104358
:10298000E0600CE0206901EB410C072707FA0CF22C
:10299000904301EB410703FA07F210432061A06B5B
:1029A000C0F30156EF1C06F1010CA7EB0C0707EB77
:1029B000870C1F2707FA0CF29043EF1C06F1010C5D
:1029C000A7EB0C0707EB870701FA07F21043A06398
:1029D000F0BD10B50A4600210023816B21F440119F
:1029E000531E41EA0351816310BD08B500230093D3
:1029F0000090009B0B440093009B1A6008BD08B533
:102A0000024600200090009201F12800009B18442B
:102A100000900098006880B208BD0A460021416815
:102A2000164B194011434160704741628262704702
:102A30000A460021416821F01F011143416070479F
:102A400040B109490831096841F40001064A0832D9
:102A5000116007E004490831096821F40001024AC5
:102A60000832116070470000002401400028014036
:102A7000003C0140FFFEF0FFFDF7F1FFFFFD3FFFCF
:102A80000246002013680B400BB1012000E000203B
:102A90007047CA430260704770B5024600200023A9
:102AA00000240B125568CEB205EA060415681D40D5
:102AB00015B10CB1012000E0002070BD00220A1207
:102AC000D34303607047000001684FF6FE72114067
:102AD00001600021016041608160C1608D498842D0
:102AE00008D18C490839496841F00F01894A083AF0
:102AF00051608AE087491431884208D185490839F4
:102B0000496841F0F001834A083A51607DE081490B
:102B10002831884208D17F490839496841F47061F9
:102B20007C4A083A516070E07A493C31884208D1C9
:102B300078490839496841F47041764A083A516049
:102B400063E074495031884208D1724908394968B4
:102B500041F470216F4A083A516056E06D49643182
:102B6000884208D16B490839496841F47001694AC3
:102B7000083A516049E067497831884208D165498F
:102B80000839496841F07061624A083A51603CE096
:102B90006149884206D1011F096841F00F01021FF7
:102BA000116032E05C491431884208D15A49091F4A
:102BB000096841F0F001584A121F116025E056499A
:102BC0002831884208D15449091F096841F47061CD
:102BD000514A121F116018E04F493C31884208D118
:102BE0004D49091F096841F470414B4A121F116099
:102BF0000BE049495031884207D14749091F09680C
:102C000041F47021444A121F1160704710B5002230
:102C1000026847F6F0739A430C6A8B6823430C6989
:102C200023434C6923438C692343CC6923434C6A77
:102C300023438C6A23431A430260CB6843600B68CA
:102C400083604B68C36010BD0021016041608160FA
:102C5000C160016141618161C16101624162816262
:102C6000704721B1026842F00102026004E002688C
:102C70004FF6FE731A40026070471AB103680B43A7
:102C8000036002E003688B43036070474160704754
:102C90000146486880B2704701460020002201F0DA
:102CA00080531BB11C4B083B1A6802E0194B083BD0
:102CB0001A6802EA01030BB1012000E0002070470E
:102CC00000F0805119B11449091F086002E0114950
:102CD00008394860704701460020002201F0805307
:102CE0001BB10D4B083B1A6802E00A4B083B1A68FF
:102CF00002EA01030BB1012000E00020704700F060
:102D0000805119B10449091F086002E001490839DE
:102D100048607047080002400804024008B54FF4BC
:102D2000A060FDF743FB25208DF8000003208DF8FF
:102D300001008DF8020001208DF803006846FDF7C0
:102D40003AFB1D208DF8000002208DF801008DF85F
:102D5000020001208DF803006846FDF72CFB08BD3A
:102D600010B500F0D6FF10BD10B5AE4A128891B272
:102D7000AD4A108801F052F8AA4A528891B2AA4A84
:102D8000508801F04BF8A74A928891B2A64A9088E1
:102D900001F044F810BD10B5A3490888A14900F01E
:102DA00098FEA14948889F49891C00F092FE9E49DF
:102DB00088889C49091D00F08CFE10BD10B59B4A07
:102DC000128891B2984AD08801F028F8974A528820
:102DD00091B2954A108901F021F8944A928891B2F3
:102DE000914A508901F01AF810BD10B58E49C88873
:102DF0008E4900F06EFE8C4908898C49891C00F0D0
:102E000068FE894948898949091D00F062FE10BDA4
:102E100070B587490868874904F09EF9054604F0B3
:102E20001BF984B280498889214600F0F7FF804968
:102E30008868804904F090F9054604F00DF984B2E1
:102E40007949C889214600F0E9FF7949086979493B
:102E500004F082F9054604F0FFF884B27249088A4A
:102E6000214600F0DBFF74490868724904F074F9E8
:102E7000054604F0F1F884B26B49488A214600F017
:102E8000CDFF6D4988686B4904F066F9054604F08A
:102E9000E3F884B26449888A214600F0BFFF66499E
:102EA0000869644904F058F9054604F0D5F884B27D
:102EB0005D49C88A214600F0B1FF604908685D4954
:102EC00004F04AF9054604F0C7F884B25649088B65
:102ED000214600F0A3FF59498868564904F03CF99F
:102EE000054604F0B9F884B24F49488B214600F0FA
:102EF00095FF524908694F4904F02EF9054604F040
:102F0000ABF884B24849888B214600F087FF70BD3A
:102F100038B545498889694600F0DBFDBDF80000F9
:102F200004F0D2F80446434903F084FF40490860A6
:102F30003D49C889694600F0CCFDBDF8000004F0A9
:102F4000C3F804463B4903F075FF394988603649A8
:102F5000088A694600F0BDFDBDF8000004F0B4F831
:102F60000446344903F066FF314908612E49488A16
:102F7000694600F0AEFDBDF8000004F0A5F8044677
:102F80002C4903F057FF2C4908602749888A694675
:102F900000F09FFDBDF8000004F096F804462549B6
:102FA00003F048FF244988601F49C88A694600F039
:102FB00090FDBDF8000004F087F804461D4903F0B9
:102FC00039FF1D4908611849088B694600F081FDE9
:102FD000BDF8000004F078F80446164903F02AFF13
:102FE000164908601049488B694600F072FDBDF82B
:102FF000000004F069F804460E4903F01BFF0F4976
:1030000088600949888B694600F063FDBDF80000BF
:1030100004F05AF80446074903F00CFF0749086119
:1030200038BD00007A0000202A0000207400002033
:10303000380300200000C842580300207803002015
:103040003EB5044601210220FEF759FE1B48FDF75C
:10305000C9FBADF804404720ADF800000020ADF8F2
:103060000600ADF8020069461448FDF78FFC012107
:103070001248FEF7ADFA012211461048FDF7FDFF98
:1030800001210E48FDF7DEFF3EBD10B504460020CD
:103090000A49243108800AE000BF01210748FEF7F1
:1030A0009AFA0028F9D001210448FEF7A5FA200079
:1030B000A4F101018CB2EFD110BD0000000400406A
:1030C00010B588B0044601218803FEF70BFE0121EC
:1030D0000420FEF707FE4FF40070ADF80400032053
:1030E0008DF8060018208DF8070001A99B48FDF710
:1030F0002BFA4FF48060ADF8040003208DF8060031
:1031000004208DF8070001A99448FDF71DFA0494E6
:103110000020ADF81400ADF81600ADF81800ADF8B9
:103120001C000C20ADF81A000020ADF80800ADF826
:103130000A004FF40070ADF80C000020ADF80E004E
:1031400004A98748FEF79FFA02A98548FEF710FBFD
:10315000012240F225518248FEF72DFB01218048D3
:10316000FEF71DFB08B010BD7D48008800F45870C4
:1031700008B17B4800887A48008800F08000F0B1F0
:1031800077480C30008800F08000C0B175480178A5
:103190000078401C734A10707348405C7049091DE8
:1031A00008801046007871490978884207D16C4838
:1031B0000C30008820F0800069490C310880684894
:1031C000008800F02000002836D06549091D0988D4
:1031D000C8B26749097859B98A2816D16549664A3B
:1031E000127801EB421108700121614A11700CE064
:1031F0006049614A127801EB42115D4A12788854A5
:103200005B490978491C5A4A1170594909782029A3
:1032100011D10021564A11705749097831B1002166
:10322000554A11700121554A117004E00121524A9A
:103230001170534A117000BF704710B504464B48D7
:1032400001780078401C494A1070474844540122D4
:1032500040F227714248FEF7AEFA204610BD31B564
:1032600000249DF80110414802780078401C3F4B33
:1032700018703D4881549DF8002018460178007868
:10328000401C187038484254012240F227713448DB
:10329000FEF791FA9DF801002044C4B29DF80000A9
:1032A0002044C4B2204638BD31B5002435490098C9
:1032B00008600846C1782D4802780078401C2B4BE6
:1032C0001870294881542F48817818460278007870
:1032D000401C1870244881542A48417818460278C6
:1032E0000078401C18702048815426480178184600
:1032F00002780078401C18701B488154012240F26B
:1033000027711748FEF757FA9DF803002044C4B20E
:103310009DF802002044C4B29DF801002044C4B2CC
:103320009DF800002044C4B2204638BD10B50446C4
:103330000FE020780D2802D1FFF77FFF08E020780A
:103340000A2802D1FFF779FF02E02078FFF775FF26
:10335000641C20780028ECD110BD0000000801405A
:103360000038014054000020F000002055000020EB
:1033700057000020EF0100205600002059000020D7
:10338000580000205000002000B587B00121042023
:10339000FEF7A8FC01210820FEF7A4FC0121080388
:1033A000FEF7A0FCE020ADF8040001208DF8060037
:1033B00018208DF8070001A93548FDF7C5F804204D
:1033C000ADF8040001208DF8060010208DF80700EC
:1033D00001A93048FDF7B8F81020ADF8040001202D
:1033E0008DF8060010208DF8070001A92848FDF788
:1033F000ABF80120ADF804008DF8060048208DF8E8
:10340000070001A92348FDF79FF810212048FDF788
:1034100048F90020ADF808004FF48270ADF80A00BA
:103420000020ADF80C00ADF80E00ADF810004FF420
:103430000070ADF812001020ADF814000020ADF8B7
:1034400016000720ADF8180002A91348FEF7D6FCB5
:1034500001211148FEF777FD07B000BD10B5044605
:1034600000BF02210C48FEF7F2FD0028F9D02146EA
:103470000948FEF799FD00BF01210748FEF7E7FD67
:103480000028F9D00448FEF791FDC0B210BD00003D
:1034900000080140000C014000300140002109E01B
:1034A000002201E0531C9AB242F234139A42F9DB33
:1034B0004B1C99B28142F3DB704708B5012108200B
:1034C000FEF710FC01211020FEF70CFC012108463C
:1034D000FEF708FC01214248FDF707F90820ADF886
:1034E000000003208DF8020010208DF803006946CB
:1034F0003C48FDF729F84FF40050ADF800000320D8
:103500008DF8020010208DF8030069463648FDF75B
:103510001BF84FF48060ADF8000003208DF8020026
:1035200014208DF8030069462E48FDF70DF84FF47E
:103530000060ADF8000003208DF8020014208DF823
:10354000030069462748FCF7FFFF08BD10B50821B6
:103550002448FDF7A8F84FF400512348FDF7A1F8DF
:10356000C820FFF79BFF08211E48FDF79AF84FF48B
:1035700000511D48FDF797F8C820FFF78FFF08217D
:103580001848FDF790F84FF400511748FDF789F8F7
:10359000C820FFF783FF08211248FDF782F84FF497
:1035A00000511148FDF77FF8C820FFF777FF082189
:1035B0000C48FDF778F84FF400510B48FDF771F80F
:1035C000C820FFF76BFF08210648FDF76AF84FF4A3
:1035D00000510548FDF767F8C820FFF75FFF10BDF1
:1035E00000023000000C01400010014030B5B0F581
:1035F0007A7F01DB40F2E730B1F57A7F01DB40F200
:10360000E731B2F57A7F01DB40F2E732B3F57A7F3A
:1036100001DB40F2E733002800DA0020002900DA5D
:103620000021002A00DA0022002B00DA00234FF0EC
:103630008045A8862987AA87374D2B8030BD10B5D5
:1036400088B0002401210846FEF759FB3348006882
:103650003349B0FBF1F0401E84B240F2E730ADF8E0
:103660001800ADF814400020ADF81A00ADF81600AF
:1036700005A94FF08040FDF789F96020ADF80400FE
:103680000120ADF806000020ADF80A00ADF80C00EE
:1036900001A94FF08040FDF7B6F90821C806FDF7F3
:1036A00001FE01A94FF08040FDF7EFF90821C8069F
:1036B000FDF701FE01A94FF08040FDF733FA082124
:1036C000C806FDF705FE01A94FF08040FDF775FA29
:1036D0000821C806FDF705FE01218807FDF7B2FDA8
:1036E00001218807FDF7AEFC08B010BD08B5012127
:1036F0000420FEF7F7FA0F20ADF8000003208DF844
:10370000020018208DF8030069460648FCF71CFFEC
:10371000FFF795FF08BD00004000004000000020BA
:1037200000366E010008014070B505460C461021B8
:103730008D48FCF7B8FF2846FFF790FE0646204666
:10374000FFF78CFE10218848FCF7ABFF304670BDB8
:1037500070B5044610218448FCF7A5FF2046FFF70A
:103760007DFE0020FFF77AFE054610217E48FCF71B
:1037700098FF284670BD2DE9F04107460D461646D4
:1037800010217948FCF78FFF3846FFF767FE804627
:10379000002404E0285DFFF761FE601CC4B2B4425F
:1037A000F8DB10217048FCF77CFF4046BDE8F08153
:1037B0002DE9F04107460D46164610216A48FCF7F0
:1037C00072FF3846FFF74AFE8046002405E00020DD
:1037D000FFF744FE2855601CC4B2B442F7DB102149
:1037E0006148FCF75EFF4046BDE8F08170B50446D5
:1037F0000D4604215D48FCF756FF05225C492A204E
:10380000FFF7B9FF2A462146A020FFF7B4FF0421A5
:103810005648FCF746FF70BD70B504460D460421BE
:103820005248FCF740FF2A462146A820FFF7A3FF95
:1038300004214E48FCF735FF70BD1CB505224C49EC
:103840003020FFF798FF052269461020FFF7B0FFF0
:10385000002408E01DF804004549095D884200D0B5
:1038600003E0601CC4B2052CF4DB00BF052C01D1C1
:1038700001201CBD0020FCE770B504460D46042164
:103880003A48FCF710FF05223A492A20FFF773FF58
:10389000052237493020FFF76EFF01212120FFF775
:1038A00043FF01212220FFF73FFF1A212420FFF7C9
:1038B0003BFF28212520FFF737FF0F212620FFF7A8
:1038C00033FF012C08D120213120FFF72DFF0F21DC
:1038D0002020FFF729FF41E0022C08D120213120D0
:1038E000FFF722FF0E212020FFF71EFF36E0032CFA
:1038F0001AD1FF21E120FFF717FFFF21E220FFF798
:1039000013FF0F212020FFF70FFF5020FFF7A6FD28
:103910007320FFF7A3FD01213C20FFF705FF0721DE
:103920003D20FFF701FF19E00E212020FFF7FCFEEC
:10393000FF21E120FFF7F8FEFF21E220FFF7F4FE70
:103940005020FFF78BFD7320FFF788FD01213C20FD
:10395000FFF7EAFE07213D20FFF7E6FE04210348BA
:10396000FCF79FFE70BD000000080140000C014004
:103970005A0000205F000020034606210622F74877
:103980000188F7480288ABB1012B1BD13AB94EF63A
:10399000EE60814201D1002070470120FCE739B977
:1039A0004EF6EE60824201D10120F5E70020F3E7F8
:1039B000AB20F1E709B90020EEE70AB90120EBE7F7
:1039C000AB20E9E70020E7E770B5042600240120DA
:1039D000FFF7D2FF0446AB2C06D1E04800EB842071
:1039E000E0490860AB2070BDDC4800EB8420DD4975
:1039F0000860601CD949891E01EB80250CE0D9487C
:103A000000680068401C10B904263046EBE7D54832
:103A10000068001DD3490860D2480068A842EED370
:103A20008020E0E710B50424CC48FEF7ABFB044649
:103A3000042C01D0204610BD0021C848FEF7A5FC8B
:103A40000446042C01D02046F5E7C548FEF79AFB52
:103A500004462046EFE72DE9F04104460F460425D1
:103A60000026DFF804830120FFF786FF0646AB2E11
:103A700001D1BDE8F081701CB849891E01EB802896
:103A800021E0B84800680068401CB8B93946B5481C
:103A90000068FEF77AFC0546042D01D02846E8E7C9
:103AA0002146B0480068801CFEF76FFC0546AD4813
:103AB0000068001DAB4908602846DAE7A94800689D
:103AC000001DA8490860A74800684045D9D3802058
:103AD000CFE72DE9F04706460F46002545F2555839
:103AE0004FF001099D4CA2460020FFF745FF054617
:103AF000AB2D01D1BDE8F087984800EB852A9948A5
:103B00000068841E0AE0B4F80080B04505D134F89E
:103B1000020C38804FF0000904E0241F0AF1020073
:103B20008442F0D800BF4846E4E72DE9F0474FF063
:103B3000060A062600250027A8464FF0FF398748C9
:103B4000B0F800A0864806885FEA0A0075D0A0F5A4
:103B50006E40EE3858B3A0F58850113800286DD16A
:103B600046B97E48FEF70EFB0446042C1ED02046C4
:103B7000BDE8F0874EF6EE60864210D17748FEF73A
:103B800001FB0446042C01D02046F1E700217448D3
:103B9000FEF7FBFB0446042C08D02046E8E7FFF7BD
:103BA00041FF0446042C01D02046E1E7AEE07EBB95
:103BB000002522E06948C0886C4931F81510884218
:103BC00001D10FFA85F94D4515D0684931F8150036
:103BD0006749FFF77EFF8046B8F1010F0BD06349BC
:103BE00031F8150062490988FFF735FF0746042FB1
:103BF00001D03846BCE7681C85B20F2DDADB002106
:103C00005648FEF7C2FB0446042C02D02046AFE71C
:103C100007E05348FEF7B6FA0446042C1FD02046AE
:103C2000A6E74FF6FF70864212D14D48FEF7AAFA7A
:103C30000446042C03D020469AE711E05EE0002100
:103C40004648FEF7A2FB0446042C08D020468FE726
:103C5000FFF7E8FE0446042C01D0204688E755E033
:103C600036B9FFF7DFFE0446042C46D020467FE736
:103C70004FF6FF70864207D13948FEF783FA0446B3
:103C8000042C3AD0204673E7002523E03448801DF9
:103C90000088364931F81510884201D10FFA85F9AC
:103CA0004D4515D0314931F815003149FFF711FF65
:103CB0008046B8F1010F0BD02C4931F815002C4982
:103CC0000988FFF7C8FE0746042F01D038464FE7A2
:103CD000681C85B20F2DD9DB00212148FEF755FB6A
:103CE0000446042C01D0204642E71C48FEF74AFA5D
:103CF0000446042C01D020463AE707E0FFF792FE85
:103D00000446042C01D0204632E700BF00BF042047
:103D10002EE710B5FFF709FF0446FFF755FE2046D2
:103D200010BD2DE9F84F074689460425DFF830A07D
:103D3000AAF1010A094800904FF00008002400266B
:103D40004FF0000B0020FFF717FE8046B8F1010F7F
:103D500010D1DFF808A00248009016E0000001082A
:103D60000004010868000020FF0701082A00002065
:103D700064000020B8F1000F04D1DFF8C4A031487E
:103D8000009002E0AB20BDE8F88F4EF6EE615046A1
:103D9000FEF7FBFA0546042D01D02846F3E7FFF7AE
:103DA00013FE49463846FFF756FE0646042E01D05C
:103DB0003046E8E700241CE0234830F81400B842FD
:103DC00015D0214931F814002049FFF782FE8346BF
:103DD000BBF1010F0BD01C4931F814001B490988B5
:103DE000FFF739FE0646042E01D03046CBE7601CB3
:103DF00084B20F2CE0DB0098FEF7C4F90546042DD1
:103E000001D02846BFE700215046FEF7BEFA05461E
:103E1000042D01D02846B6E72846B4E770B505461C
:103E20000E46002431462846FFF715FE0446802C36
:103E300004D131462846FFF774FF0446204670BD82
:103E400000040108000001082A000020640000208E
:103E500008B501210846FDF738FF01214FF4027033
:103E6000FDF740FF0220ADF8000000208DF80300B0
:103E700069463748FCF768FB08BD00B591B0354886
:103E8000FEF722FE34480690344807900020089040
:103E90000120099000200A900B904FF480700C9044
:103EA00080000D9020200E9000020F9000201090B6
:103EB00006A92848FEF7AAFE01212648FEF7D1FEF2
:103EC0000020019001208DF808008DF809004FF4C2
:103ED000602003900020049001208DF8140001A9B7
:103EE0001D484C38FEF7EFFB0523012209211A4833
:103EF0004C38FEF780FC012117484C38FEF71AFCBD
:103F0000012115484C38FEF70AFC13484C38FEF7DF
:103F100028FC00BF10484C38FEF728FC0028F9D1D7
:103F20000D484C38FEF72CFC00BF0B484C38FEF710
:103F30002CFC0028F9D1012107484C38FEF72FFC52
:103F400011B000BD10B5FFF783FFFFF796FF10BD5E
:103F5000000C0140080002404C2401406C0000208D
:103F600010B5FFF7AAFAFFF7F1FA4FF4FA70FFF76E
:103F700067F8FFF7BBFBFFF707FAFEF7CFFE282134
:103F80000420FFF779FC00F018FBFFF7DBFFFEF7DA
:103F9000B4F8FEF7E5FEFEF7FEFEFEF726FFFEF79D
:103FA000B7FF0D480D4908600D4908600D480B49E1
:103FB00008610B4908614FF07C500B4908600B48C1
:103FC000086110BD00200A490870FFF7C9FF0120F1
:103FD0000749087000BFFEE70000A040580300201A
:103FE00038030020CDCCCC3D78030020CDCC4C3D17
:103FF0002800002010B5FFF7B7F810BD1CB53A48EF
:10400000008800F0010000285ED04FF6FE703649AF
:10401000088036480068401C3449086034480078FD
:1040200000B91CBD33480078401C32490870324842
:104030000078401C3049087030480078401C2F49F7
:10404000087000F02CFE2B480078022804D10020D4
:104050002849087000F09AFF2748007804281CD1EE
:1040600000202549087001F0B5FA25480068254967
:104070000968254BCDE900109A6859681868234BE8
:104080001B6801F01BFB00F042FE2148007820B1C4
:104090004FF400511F48FCF704FB18480078C8286B
:1040A00012D10020154908701B48008800B21B4936
:1040B000088200F0A9FE08211948FCF7F2FA4FF433
:1040C00000511448FCF7EFFA00BFAAE7704700BFA1
:1040D000FEE700BFFEE700BFFEE700BFFEE7704758
:1040E0007047704770470000100400404C000020EB
:1040F000280000206E0000206F00002070000020CB
:10410000B8000020B4000020B4020020B00000205D
:10411000ED000020001001406C0000207E02002015
:10412000000C0140F84A117800BF01EB4002F64B49
:104130001B689A42F9D8704710B5F4484078F349A3
:10414000097840EA0120F2490988401A00B2F14991
:104150000880EE48C078ED49897840EA0120EC49B2
:104160004988401A00B2EB494880E8484079E7495D
:10417000097940EA0120E6498988401A00B2E549F8
:104180008880E248407AE149097A40EA0120E24920
:104190000988401A00B2E1490880DC48C07ADB494E
:1041A000897A40EA0120DC494988401A00B2DB499B
:1041B0004880D648407BD549097B40EA0120D64952
:1041C0008988401A00B2D5498880D54800780028EF
:1041D00056D1D448007870B90020CF490880488073
:1041E0008880D1490860D1490860D1490860012020
:1041F000CC49087010BDC948B0F90000CA49096827
:104200000844C9490860C548B0F90200C7490968AF
:104210000844C6490860C148B0F90400C4490968A7
:104220000844C3490860BF480078C82823D1BE4865
:104230000068BC49097890FBF1F000B2B6490880EB
:10424000BA480068B749097890FBF1F000B2B2496A
:104250004880B7480068B349097890FBF1F000B294
:10426000AD4988800020AF4908700120AC49087032
:10427000FEF7A4FDBEE7AB480078401CA9490870D2
:10428000AC48007800284ED1AB48007870B90020C7
:104290009F49088048808880A8490860A84908602C
:1042A000A84908600120A4490870A3E79948B0F91B
:1042B0000000A24909680844A04908609548B0F97F
:1042C00002009F49096808449D4908609A4800789F
:1042D000C82823D1994800689749097890FBF1F0E4
:1042E00000B28B490880964800689349097890FB92
:1042F000F1F000B286494880924800688E490978FA
:1043000090FBF1F000B28249888000208A49087051
:10431000012088490870FEF727FD6BE78648007882
:10432000401C8549087000BF64E708B54FF4006081
:10433000ADF8000014208DF8030003208DF8020072
:1043400069468148FCF700F908BD08B54FF40060E4
:10435000ADF8000004208DF8030069467A48FCF7A8
:10436000F3F808BD08B50120009002E00098401E57
:10437000009000980028F9D108BD10B54FF4806175
:104380007148FCF790F9FFF7EDFF4FF400616E48BC
:10439000FCF787F9FFF7E6FF4FF480616A48FCF706
:1043A00080F9FFF7DFFF4FF400616748FCF77BF906
:1043B000FFF7D8FF10BD10B54FF480616248FCF7DD
:1043C00072F9FFF7CFFF4FF400615F48FCF76BF91C
:1043D000FFF7C8FF4FF480615B48FCF762F9FFF715
:1043E000C1FF4FF400615848FCF75BF9FFF7BAFFD3
:1043F00010BD10B54FF480615348FCF754F9FFF736
:10440000B1FF4FF400615048FCF74BF9FFF79DFFF7
:10441000FFF7A8FF4FF480614B48FCF742F9FFF724
:10442000A1FF4FF400614848FCF721F940B1FFF7C4
:104430007CFF4FF480614448FCF735F9002010BD43
:104440004FF480614048FCF72EF9FFF76EFFFFF74D
:1044500089FF0120F3E770B5044600251FE04FF403
:1044600080613948FCF71FF904F0800028B14FF44F
:1044700000613548FCF715F904E04FF4006132485B
:10448000FCF711F96006040EFFF76CFF4FF4806132
:104490002D48FCF706F9FFF765FF681CC5B2082D2B
:1044A000DDDB4FF480612848FCF7FDF8FFF7A1FF42
:1044B00000B970BD00BFFCE770B50024FFF745FFF1
:1044C00000251CE06006040E4FF480611E48FCF7D6
:1044D000E8F8FFF747FF4FF400611B48FCF7C7F807
:1044E000012801D144F00104FFF73CFF4FF4806143
:1044F0001548FCF7D8F8FFF735FF681CC5B2082D42
:10450000E0DB204670BD00004C0000206F02002060
:104510007A00002082000020740000208800002023
:10452000800000209C0000209000002094000020CB
:104530009800002081000020AC000020A000002096
:10454000A4000020A8000020000C014070B5054622
:104550000C46FFF712FFD020FFF77DFF2846FFF73C
:104560007AFF2046FFF777FFFFF725FF70BD70B594
:104570000446FFF702FFD020FFF76DFF2046FFF74C
:104580006AFFFFF7FAFED120FFF765FFFFF794FF00
:104590000546FFF72EFFFFF70EFF284670BD70B5EA
:1045A00004462046FFF7E3FF0546611CC8B2FFF74B
:1045B000DEFF064606EB052070BD10B500216B201E
:1045C000FFF7C4FF0220FEF760FD04211920FFF76A
:1045D000BDFF0220FEF759FD02211A20FFF7B6FFAA
:1045E0000220FEF752FD18211B20FFF7AFFF02202B
:1045F000FEF74BFD10211C20FFF7A8FF0220FEF75D
:1046000044FD10BD10B53B20FFF7B1FF1C490870F9
:104610003C20FFF7ACFF1A4948703D20FFF7A7FF89
:10462000174988703E20FFF7A2FF1549C8703F2048
:10463000FFF79DFF124908714020FFF798FF1049CE
:1046400048714320FFF793FF0D4908724420FFF79C
:104650008EFF0B4948724520FFF789FF0849887291
:104660004620FFF784FF0649C8724720FFF77FFF07
:10467000034908734820FFF77AFF0149487310BDCA
:104680006F020020FE48007890B9FE48B0F904009F
:10469000B0F5966F0CDAFB48B0F9060040F24C41D9
:1046A000884205DAF8480088401CF749088002E093
:1046B0000020F5490880F44800884B2802DD0120DD
:1046C000EF490870EE480078012812D1ED48B0F9A2
:1046D0000400B0F5966F0CDAEA48B0F9060040F233
:1046E0006C71884205DDE9480088401CE749088074
:1046F00002E00020E5490880E44800884B2802DDFC
:104700000020DF4908707047F8B58820E04908703C
:10471000AC2048701C208870AD20C870DD49086846
:10472000DD4902F019FD064602F096FC80B20090C9
:104730009DF80100D64908719DF800004871D549DF
:104740008868D54902F008FD064602F085FC80B273
:1047500000909DF80100CE4988719DF80000C87155
:10476000CC490869CC4902F0F7FC064602F074FC1B
:1047700080B200909DF80100C54908729DF80000C4
:104780004872C6490868C44902F0E6FC064602F0D1
:1047900063FC80B200909DF80100BD4988729DF8CD
:1047A0000000C872BD498868BB4902F0D5FC0646C6
:1047B00002F052FC80B200909DF80100B4490873E9
:1047C0009DF800004873B5490869B34902F0C4FC7C
:1047D000064602F041FC80B200909DF80100AC4911
:1047E00088739DF80000C873AD490868AA4902F0B3
:1047F000B3FC064602F030FC80B200909DF8010048
:10480000A34908749DF800004874A5498868A24926
:1048100002F0A2FC064602F01FFC80B200909DF858
:1048200001009B4988749DF80000C8749C49086980
:10483000994902F091FC064602F00EFC80B200900D
:104840009DF80100924908759DF800004875002503
:10485000002405E08E48005D2844C5B2601CC4B247
:104860001F2CF7DB8A48C5772021FEF7BFFFF8BD74
:1048700070B5882086490870AC2048701C2088706C
:10488000AC20C87087484078087186480078487125
:104890008448C078887183488078C871814840799D
:1048A00008728048007948727F48407888727E4854
:1048B0000078C8727C48C07808737B488078487359
:1048C00079484079887378480079C87300250024B6
:1048D00005E06F48005D2844C5B2601CC4B21F2CBF
:1048E000F7DB6B48C5772021FEF780FF70BD70B500
:1048F000882067490870AC2048701C208870604888
:10490000007810B1A120C87002E0A0206049C870F2
:104910000025002405E05E48005D2844C5B2601C07
:10492000C4B21F2CF7DB5A48C5772021FEF75EFF83
:1049300070BD70B50024002005E05C49095C21448D
:10494000CCB2411CC8B21F28F7DB5848C07FA04238
:1049500000D070BD554800788A2800D0F9E7534848
:1049600040788A287ED15148C078000200B24F4971
:1049700009790843434988804C484079000200B2D5
:104980004A49897908433F49C8804848C0790002AC
:1049900000B24649097A08433A4908804348407AB8
:1049A000000200B24149897A0843364948803F48AD
:1049B000C07A000200B23D49097B084331490881B1
:1049C0003A48407B000200B23849897B08432D49B0
:1049D00048813648C07B000200B23449097C084354
:1049E000284988813148407C000200B22F49897CE7
:1049F00008432449C8812D48C07C000200B22B49DD
:104A0000097D08431F490882FFF73CFE1D48B0F9A5
:104A10000000A0F2DC503C2190FBF1F5284602F0AA
:104A20003BFB234908601748B0F90200A0F2DC50B4
:104A30003C2190FBF1F5284602F02EFB1D49086051
:104A40001048B0F90600A0F2DC503C2190FBF1F5D3
:104A5000284602F021FB184908600A488089174956
:104A6000088000E007E007480089154908800548EC
:104A70004089144908800D4840788B287ED123E076
:104A8000ED0000207E020020C2000020C4000020B3
:104A90004F020020380300200000C84258030020C5
:104AA000780300207A000020740000202F020020EC
:104AB000B0000020B4000020B8000020BC0000209E
:104AC000BE000020C0000020FE48C078AA2816D1F1
:104AD000FC480079A22802D10020FB490870F9485F
:104AE0000079A12802D10020F8490870F548007922
:104AF000A32804D10020F4490870F4490870F14853
:104B0000C078A02804D10020F1490870FFF7EFFE1B
:104B1000EC48C078A12804D10120ED490870FFF7C6
:104B2000E6FEE848C078AB2813D1E6484079E5496D
:104B3000097900EB012000B2E6490880E148C0791C
:104B4000E049897900EB012000B2E2494880FEF794
:104B50000BF9DC48C078AC2801D1FFF789FED948B1
:104B6000C078AD2801D1FFF7CFFDD648C078AE2878
:104B700084D1D4490979090209B200E08DE0D14A13
:104B8000527941EA020002F087FA0546D24902F062
:104B900051F9D2490860CB498979090209B2C94A59
:104BA000D27941EA020002F077FA0546CA4902F0DA
:104BB00041F9CA498860C349097A090209B2C14A60
:104BC000527A41EA020002F067FA0546C24902F051
:104BD00031F9C2490861BB49897A090209B2B94A67
:104BE000D27A41EA020002F057FA0546BA4902F0C9
:104BF00021F9BB490860B349097B090209B2B14AEE
:104C0000527B41EA020002F047FA0546B24902F03F
:104C100011F9B3498860AB49897B090209B2A94AF5
:104C2000D27B41EA020002F037FA0546AA4902F0B7
:104C300001F9AB490861A349097C090209B2A14AFB
:104C4000527C41EA020002F027FA0546A24902F02E
:104C5000F1F8A44908609B49897C090209B2994A84
:104C6000D27C41EA020002F017FA05469A4902F0A6
:104C7000E1F89C4988609349097D090209B2914A8B
:104C8000527D41EA020002F007FA0546924902F01D
:104C9000D1F894490861FEF7BBF800BF59E670B53A
:104CA0000720FEF755FD044604F04000B0B1602037
:104CB000FEF74EFD0546212D0BDA08218A48FBF749
:104CC000F2FC20227F496120FEF772FDFFF731FEE2
:104CD00003E0FF21E220FEF727FD00BF04F01000F3
:104CE00080B18248007818B100208049087002E045
:104CF00001207E49087004F0010018B1FF21E12075
:104D0000FEF712FD21462720FEF70EFD70BDF8B517
:104D1000882077490870AF2048701C20887075483B
:104D20004078C8707348007808717248C07848713C
:104D30007048807888716F484079C8716D480079F3
:104D400008726D48407848726B48007888726A48EB
:104D5000C078C8726848807808736748407948739B
:104D6000654800798873654908685B4902F0F4F981
:104D7000064602F055F980B200909DF801005C49AA
:104D800048759DF8000088755C494868524902F0F2
:104D9000E3F9064602F044F980B200909DF8010064
:104DA0005349C8759DF800000876544988685449ED
:104DB00002F0D2F9064602F033F980B200909DF875
:104DC00001004B4948769DF80000887640480078FD
:104DD00010B9A020C87606E03D480078012802D12D
:104DE000A1204349C8760025002405E04048005D25
:104DF0002844C5B2601CC4B21F2CF7DB3C48C57701
:104E00002021FEF7F3FCF8BD38B58820384908703A
:104E1000AE2048701C2088703A484079C8703948E4
:104E2000007908713748C0794871364880798871AF
:104E300034484078C8713348007808723148C078E7
:104E400048723048807888722E48407AC8722D485F
:104E5000007A08732B48C07A48732A48807A88738E
:104E60002848407BC8732748007B08742548C07BCE
:104E700048742448807B88742248407CC874214848
:104E8000007C08754FF08040808E0A2190FBF1F085
:104E900080B200909DF80100154948759DF800000A
:104EA00088754FF08040008F0A2190FBF1F080B2AE
:104EB00000909DF801000E49C8759DF80000087625
:104EC00022E000002F02002080000020810000204E
:104ED000ED0000207A0000200000C84238030020C6
:104EE0005803002078030020000C0140C600002079
:104EF0004F0200208200002088000020B402002021
:104F0000000020417E0200204FF08040808F0A2167
:104F100090FBF1F080B200909DF8010018494876AE
:104F20009DF800008876174800880A2190FBF1F070
:104F300080B200909DF801001149C8769DF80000EC
:104F4000087711480088062190FBF1F080B20090AC
:104F50009DF801000A4948779DF8000088770025F0
:104F6000002405E00648005D2844C5B2601CC4B2B8
:104F70001F2CF7DB0248C5772021FEF737FC38BD30
:104F80004F020020400000406C0000202DE9F04F4F
:104F900087B04FF00009CA46CB46FFF733FBFFF757
:104FA000CBF8FE480088FE49FE4A127821F812002C
:104FB000FA484088FC49FB4A127821F81200F74869
:104FC0008088FA49F74A127821F8120000240DE08F
:104FD000F34830F914008144F34830F91400824456
:104FE000F24830F914008344601CC4B2142CEFDB87
:104FF000142099FBF0F000B2ED49088014209AFBD0
:10500000F0F000B2488014209BFBF0F000B28880E2
:10501000E4480078401CE3490870084600781428EA
:1050200001D100200870E349B1F9040001F076FBDA
:105030000746E14AE14B01F089FBE14AE14BCDE94A
:10504000000101F083FB05460E46DF49886801F048
:1050500057FE2A463346CDE9020101F057F9CDE962
:10506000040101F021F9D849886007B0BDE8F08F4C
:105070000FB59DB0D5480168006802F06DF8159035
:10508000D3480168D148006802F066F81490D1480E
:105090000168CE48006802F05FF81390CC480168C0
:1050A000006802F059F81290CB480168C8480068BF
:1050B00002F052F81190C7480168006802F04CF8FD
:1050C0001090C5480168C348006802F045F80F9089
:1050D000C1480168006802F03FF80E9022992098BC
:1050E00002F03AF80C90239902F036F800210D9066
:1050F00001F062FF01D121B000BD2399084602F002
:105100002BF808902299084602F026F8069020997C
:10511000084602F021F80590069901F01DFE07905F
:10512000089901F019FE099001F0EAFDCDE90A01A4
:1051300001F094F8CDE90C0101F0B6F81C901C992F
:10514000209801F077FE20901C99229801F072FEC1
:1051500022901C99239801F06DFE239013991198C9
:1051600002F0F8F84FF080410D9001F0F5FF1B9030
:105170000F99149801F0F0FD4FF080410D9001F06F
:10518000EBFF1A901299159802F0E4F80C90109920
:1051900002F0E0F80D900E9901F0DEFD19901A99D9
:1051A000239801F0D9FF0D901999229801F0D4FFAE
:1051B0000C900D9902F0CEF818901999209801F0F2
:1051C000CBFF0D901B99239801F0C6FF0C900D9911
:1051D00002F0C0F817901B99229801F0BDFF0D90C6
:1051E0001A99209801F0B8FF0C900D9902F0B2F8CE
:1051F00016907A49189801F0AFFF0D907848016831
:105200000D9801F0A9FD764908607449179801F0DE
:10521000A3FF0D90734801680D9801F09DFD714941
:1052200008606E49169801F097FF0D906E4801686E
:105230000D9801F091FD6C4908606C48189901F0D7
:105240008BFF0C901D9901F087FD0D90644801685B
:105250000D9801F081FD1D906448179901F07CFFC5
:105260000C901E9901F078FD0D905E4801680D9834
:1052700001F072FD1E905D48169901F06DFF0C90D3
:105280001F9901F069FD0D90574801680D9801F0D4
:1052900063FD1F9050481F99006801F05DFF0B905F
:1052A0004C481E99006801F057FF09904848006873
:1052B00080F0004007901D9901F04EFF0890099979
:1052C00002F048F80A900B9902F044F848490C9013
:1052D00001F042FF0D903D4801680D9801F03CFD42
:1052E0003A4908603C481E99006801F035FF0B9070
:1052F00038481F99006801F02FFF09903348016872
:105300001D9801F029FF0890099901F025FD0A90E8
:105310000B9902F01FF836490C9001F01DFF0D901B
:105320002B4801680D9801F017FD294908602A48AB
:1053300001681D9801F010FF0B9025481F99006827
:1053400001F00AFF099021481E99006801F004FF4E
:105350000890099901F0FEFF0A900B9901F0FCFCFE
:1053600023490C9001F0F8FE0D901A4801680D9841
:1053700001F0F2FC17490860084601681D9801F029
:10538000EBFE0B9012481E99006801F0E5FE0990B3
:105390000E481F99006801F0DFFE2BE0820000201C
:1053A000C0020020EC000020E802002010030020D2
:1053B000C8000020880000201FF1D01CFE3FAF3F36
:1053C000FCA9F1D24D62503F90020020D000002095
:1053D000D4000020D8000020DC0000206F12033C25
:1053E000E0000020E4000020E80000200000204150
:1053F0006F12833A0890099901F0AEFC0A900B995C
:1054000001F0A8FF97490C9001F0A6FE0D90964878
:1054100001680D9801F0A0FC9349086008460168F6
:10542000006801F099FE089090480168006801F05A
:1054300093FE06908E480168006801F08DFE04908E
:105440008C480168006801F087FE0390049901F020
:1054500083FC0590069901F07FFC0790089901F004
:105460007BFC099001F04CFCCDE90A0100F0F6FE4E
:10547000CDE90C0100F018FF1C907E481C990068D3
:1054800001F0D8FC7B49086079481C99006801F05C
:10549000D1FC7749086075481C99006801F0CAFC86
:1054A0007249086070481C99006801F0C3FC6E499D
:1054B000086071488068714988606E4801684FF0E3
:1054C000804001F049FE049068480168049801F0AA
:1054D00043FE0690664801684FF0404001F03CFEF4
:1054E000049061480168049801F036FE0590069921
:1054F00001F032FC079001F003FCCDE9080100F057
:10550000A5FB4FF066325E4BCDE90A0101F01EF9B2
:10551000CDE90C0100F0C8FE5849486053480168C5
:105520004FF0804001F018FE01905048016801984A
:1055300001F012FE03904E4801684FF0404001F028
:105540000BFE01904A480168019801F005FE0290A7
:10555000039901F0FFFE4FF07E51049001F0FCFB37
:10556000059001F0CDFBCDE90801424801684FF0FC
:10557000804001F0F1FD02903D480168029801F081
:10558000EBFD0490394801684FF0804001F0E4FDE4
:10559000029035480168029801F0DEFD03900499FD
:1055A00001F0DAFB059001F0ABFBCDE90601DDE986
:1055B000082300F093FD4FF06632314BCDE90A012C
:1055C00001F0C4F8CDE90C0100F06EFE2B49086033
:1055D00000BF90E52DE9FF5F2A49B1F9040001F011
:1055E0005BFD04462749B1F9020001F055FD8146F3
:1055F0002449B1F9000001F04FFD23490390B1F9AE
:10560000040001F08BF80746204A214B01F09EF878
:10561000054600F049FE82461B49B1F9020001F03F
:105620007DF80746194A1A4B01F090F8054600F03C
:105630003BFE83461449B1F9000001F06FF80746BC
:10564000124A134B01F082F8054600F02DFECDE919
:105650000094029052465946039BFFF709FDBDE8AE
:10566000FF9F00006F12833ADC000020D80000206A
:10567000D4000020D000002090020020B4020020BE
:1056800066A64C40C8000020880000202877442AE5
:105690003174513F70B506460D46144629463046D2
:1056A00001F026FE01D2284670BD2146304601F0A9
:1056B0001FFD01D22046F7E73046F5E72DE9F04F10
:1056C0008BB005460E4617461C46DDF8508000207C
:1056D0000A900990089007902146284601F03CFB6B
:1056E00005903146404601F037FB04903946159845
:1056F00001F032FB0390E6488088A0F57A7000B292
:105700000690BDF91800002801DA00200690BDF9C6
:1057100018000A2190FBF1F9484601F0BDFCDD4973
:10572000886100228869DC49FFF7B4FFD9498861A4
:1057300008468069D9498861D6490868059901F009
:105740000BFDD4494860D5490868049901F004FD6F
:10575000D24948602146204601F0FEFC81464FF0C8
:105760007E5101F0C5FC53D24146404601F0F4FCA5
:1057700081464FF07E5101F0BBFC49D229462846B4
:1057800001F0EAFC8146C64901F0B2FC40D2314644
:10579000304601F0E1FC8146C14901F0A9FC37D255
:1057A000BDF91800B0F5967F32DDBA4988680599D1
:1057B00001F0D2FC8146B748C168484601F0CCFAF6
:1057C000B449C860B5498868049901F0C5FC8146B0
:1057D000B248C168484601F0BFFAB049C860AD4858
:1057E000806980F00049AB4A9169D0684A46FFF76A
:1057F00051FFA849C860A948806980F00049A74ABC
:105800009169D0684A46FFF745FFA449C86008E09F
:10581000BDF91800C82804DA00209E49C8609F49D5
:10582000C860A049B1F9000001F036FC81469948F2
:105830000169484601F090FC964948619949B1F9DF
:10584000020001F029FC814694480169484601F0B4
:1058500083FC9249486194490868039901F07CFCF3
:10586000914948608A48B0F90600B0F5B96F05DB88
:105870008748B0F90600B0F5BE6F0FDD8948818812
:105880008348C088A0F2DC5000EB800001EB4000B0
:1058900000B2029000208549886002E0814880883B
:1058A0000290BDF9080001F0F7FB81467E480169CE
:1058B000484601F051FC7C494861764AD1685068FD
:1058C00001F04AFA814673484169484601F044FABA
:1058D0007049C861714AD168506801F03DFA81464B
:1058E0006E484169484601F037FA6C49C8616E4A12
:1058F000D168506801F030FA81466B4841694846EA
:1059000001F02AFA6849C861BDF91800C8287CDD91
:10591000BDF918101939664AB2F900201144654AD8
:10592000B2F900201144644AB2F90020881A01F04B
:10593000B3FB01905748C169019801F00BFD834604
:105940005648C169584601F005FD82465648C1696E
:10595000504601F001FA814601F07EFB80B20A90C8
:10596000BDF918101939524AB2F900201144514AB0
:10597000B2F90020891A504AB2F90020881801F0C3
:105980008BFB01904348C169019801F0E3FC834619
:105990004248C169584601F0DFF982464248C16970
:1059A000504601F0D7FC814601F056FB80B20990C9
:1059B000BDF9181019393E4AB2F90020891A3D4A3A
:1059C000B2F9002011443C4AB2F90020881801F0D5
:1059D00063FB01902F48C169019801F0BDF983462E
:1059E0002E48C169584601F0B5FC82462E48C1696F
:1059F000504601F0AFFC814601F02EFB80B20890CA
:105A0000BDF918104B312A4A00E024E0B2F9002019
:105A1000891A284AB2F90020891A274AB2F90020C7
:105A2000881A01F039FB01901A48C169019801F008
:105A300093F983461948C169584601F08DF98246A9
:105A40001948C169504601F087F9814601F004FB0D
:105A500080B2079004E000200A9009900890079017
:105A60001648007850B1079803B2089802B2099816
:105A700001B20A9800B2FDF7B9FD05E000231A460D
:105A800019461846FDF7B2FD0BB0BDE8F08F0000D7
:105A90007E0200203803002000007A4458030020D2
:105AA0000000C842880000207803002090020020F7
:105AB000BC000020BE000020C0000020ED0000203F
:105AC00070477047704710B500F008F8006810BDC7
:105AD00010B5044600F002F8046010BD004870479D
