:020000040800F2
:1000000010080020010100083D3200083F320008BE
:1000100043320008473200084B320008000000005D
:100020000000000000000000000000004F32000847
:100030005132000800000000533200085532000819
:100040001B0100081B0100081B0100081B01000820
:100050001B0100081B0100081B0100081B01000810
:100060001B0100081B0100081B0100081B01000800
:100070001B0100081B0100081B0100081B010008F0
:100080001B0100081B0100081B0100081B010008E0
:100090001B0100081B0100081B0100081B010008D0
:1000A0001B0100081B0100081B0100081B010008C0
:1000B0001B010008153100081B0100081B01000886
:1000C0001B0100081B0100081B0100081B010008A0
:1000D0001B0100080D3100081B0100081B0100086E
:1000E0001B0100081B0100081B010008DFF80CD0F1
:1000F00004F056FC00480047893000081008002032
:100100000648804706480047FEE7FEE7FEE7FEE7B1
:10011000FEE7FEE7FEE7FEE7FEE7FEE70302000874
:10012000ED0000080CB50020019000906C480068BC
:1001300040F480306A49086000BF6948006800F4F4
:10014000003000900198401C0190009818B9019867
:10015000B0F5A06FF1D16248006800F4003010B132
:100160000120009001E0002000900098012843D178
:100170005C48006840F010005A4908600846006872
:1001800020F0030008600846006840F002000860A4
:1001900053484068524948600846406848600846ED
:1001A000406840F4806048600846406820F47C1055
:1001B00048600846406840F4E81048600846006817
:1001C00040F08070086000BF4548006800F0007093
:1001D0000028F9D04248406820F0030040494860B8
:1001E0000846406840F00200486000BF3C48406854
:1001F00000F00C000828F9D10CBD10B5FFF792FFF4
:1002000010BD10B53648006840F001003449086060
:10021000084640683449084031494860084600684B
:10022000324908402E4908600846006820F48020C2
:1002300008600846406820F4FE0048604FF41F0044
:100240008860FFF7DAFF4FF000602949086010BDB1
:1002500010B5002100200022214B5B6803F00C0147
:1002600021B1042906D0082928D107E0214B224CCE
:10027000236027E01F4B204C236023E0184B5B6872
:1002800003F47010164B5B6803F48032022303EB17
:10029000904022B9194B4343174C23600DE0104B9B
:1002A0005B6803F4003323B1144B4343124C2360C7
:1002B00003E0104B4343104C236003E00D4B0E4C06
:1002C000236000BF00BF064B5B68C3F303130C4CF5
:1002D000E15C094B1B68CB40074C236010BD00005C
:1002E00000100240002002400000FFF8FFFFF6FE71
:1002F00008ED00E000127A000000002000093D0037
:100300000400002031490143314A1160704770B543
:10031000002100230F22C47804B32D4C246804F478
:10032000E064C4F5E064210AC1F10403CA404478E2
:1003300004FA03F18478144021430901254C06781E
:10034000A155047804F01F050124AC4005786D1117
:10035000AD0005F1E025C5F8004109E0047804F09E
:100360001F050124AC401C4D0678761145F8264047
:1003700070BD1A4A0A400243154B1B1F1A60704792
:1003800039B1134A121D12680243114B1B1D1A602A
:1003900006E00F4A121D126882430D4B1B1D1A60A6
:1003A0007047042808D14FF0E021096941F00401A9
:1003B0004FF0E022116107E04FF0E021096921F0E0
:1003C00004014FF0E0221161704700000000FA05BF
:1003D0000CED00E000E400E080E100E080FFFF1FA2
:1003E00010B50446CC48844208D10121042001F014
:1003F0003FFC0021042001F03BFC46E0C74884425A
:1004000008D10121082001F033FC0021082001F06F
:100410002FFC3AE0C248844208D10121102001F0AB
:1004200027FC0021102001F023FC2EE0BD4884426F
:1004300008D10121202001F01BFC0021202001F027
:1004400017FC22E0B848844208D10121402001F085
:100450000FFC0021402001F00BFC16E0B348844261
:1004600008D10121802001F003FC0021802001F04F
:10047000FFFB0AE0AE48844207D10121801501F05C
:10048000F7FB0021A01501F0F3FB10BD10B5012111
:10049000084601F0EDFB0021012001F0E9FB10BD51
:1004A0002DE9F0410246002500260020002300240B
:1004B000002791F803C00CF00F0591F803C00CF071
:1004C000100CBCF1000F03D091F802C04CEA0505F6
:1004D00091F800C0BCF1000F31D0146800202BE06F
:1004E0004FF0010C0CFA00F3B1F800C00CEA03065F
:1004F0009E4220D183004FF00F0C0CFA03F7BC434F
:1005000005FA03FC4CEA040491F803C0BCF1280F7F
:1005100006D14FF0010C0CFA00FCC2F814C00AE03E
:1005200091F803C0BCF1480F05D14FF0010C0CFA53
:1005300000FCC2F810C0401C0828D1D31460B1F8E8
:1005400000C0BCF1FF0F34DD546800202EE000F144
:10055000080C4FF0010808FA0CF3B1F800C00CEADF
:1005600003069E4221D183004FF00F0C0CFA03F7D3
:10057000BC4305FA03FC4CEA040491F803C0BCF147
:10058000280F05D100F1080C08FA0CF8C2F8148005
:1005900091F803C0BCF1480F07D100F1080C4FF0EF
:1005A000010808FA0CF8C2F81080401C0828CED3C5
:1005B0005460BDE8F0814FF6FF7101800221817027
:1005C0000421C17070470246002093680B400BB1B4
:1005D000012000E0002070470146886880B2704723
:1005E00002460020D3680B400BB1012000E0002040
:1005F00070470146C86880B2704701617047416129
:1006000070470AB1016100E041617047C160704705
:100610004FF480320A43826181618261826982691A
:10062000704702460020434B18684FF6807318400D
:1006300040EA021008433F4B186070473E49C861CA
:100640007047F0B50A46002300240021002500F081
:100650000046B6F1004F02D1364EF16901E0354E49
:100660007168C0F3034583B200F44016B6F5401F2D
:1006700008D121F070612F4E766826F070662D4FFC
:100680007E6012E000F48016B6F5801F06D10326C6
:1006900006FA05F4A14341F0706106E0460D36010B
:1006A00003FA06F6B14341F0706122B1460D3601FE
:1006B00003FA06F6314300F00046B6F1004F02D1CE
:1006C0001C4EF16101E01B4E7160F0BD30B500229F
:1006D0008B071C0F0F2303FA04F2164B08338C1000
:1006E00053F824309343134C08348D1044F82530CC
:1006F00023468C1053F824308C07240F00FA04F49E
:1007000023430C4C08348D1044F8253030BD0A4981
:10071000DC3108607047000000080140000C014017
:10072000001001400014014000180140001C01406D
:1007300000200140000001400000204210B50446A6
:10074000FE48844208D10121C01401F091FA002131
:10075000E01401F08DFAC4E0B4F1804F08D101211A
:10076000084601F092FA0021012001F08EFAB8E06B
:10077000F348844208D10121022001F086FA0021C9
:10078000022001F082FAACE0EE48844208D1012157
:10079000042001F07AFA0021042001F076FAA0E0AA
:1007A000E948844208D10121082001F06EFA0021B5
:1007B000082001F06AFA94E0E448844208D101215B
:1007C000102001F062FA0021102001F05EFA88E0AA
:1007D000DF48844208D10121202001F056FA00218F
:1007E000202001F052FA7CE0DA48844208D101214D
:1007F000401401F03DFA0021601401F039FA70E074
:10080000D548844209D10121C80401F031FA002100
:100810004FF4002001F02CFA63E0D048844209D163
:100820000121080501F024FA00214FF4801001F0A5
:100830001FFA56E0CA48844209D10121480501F057
:1008400017FA00214FF4001001F012FA49E0C548F0
:10085000844208D10121402001F017FA00214020F4
:1008600001F013FA3DE0C048844208D10121802004
:1008700001F00BFA0021802001F007FA31E0BB48BB
:10088000844208D10121801501F0FFF90021A01553
:1008900001F0FBF925E0B648844209D101210804A2
:1008A00001F0E6F900214FF4803001F0E1F918E0A1
:1008B000B048844209D10121480401F0D9F900214E
:1008C0004FF4003001F0D4F90BE0AB48844208D17A
:1008D0000121880401F0CCF900214FF4802001F0BF
:1008E000C7F910BD00220288944B98420ED0994B54
:1008F00098420BD0B0F1804F08D0914B984205D070
:10090000904B984202D0904B984204D14FF68F738F
:100910001A404B881A438D4B984207D08C4B984213
:1009200004D04FF6FF431A40CB881A4302808B88CD
:1009300083850B880385814B98420BD0854B984269
:1009400008D08B4B984205D08A4B984202D08A4BF4
:10095000984201D10B7A038601238382704770B5D8
:10096000002400220023058C4FF6FE7635400584D6
:10097000028C8388048B4FF68F752C40B51E2C405B
:100980000D882C43751E2A400D892A434D882A4321
:100990006A4DA8420BD06F4DA84208D0744DA842B2
:1009A00005D0744DA84202D0734DA84213D14FF622
:1009B000F7752A404D892A434FF6FB752A408D88EA
:1009C0002A434FF6FF652B404FF6FF552B408D898C
:1009D0002B43CD892B4383800483CD888586028475
:1009E00070BD70B5002400220023058C4FF6EF7611
:1009F00035400584028C8388048B48F6FF752C40B3
:100A00004FF6FF452C400D884FF6FF7606EA052588
:100A10002C434FF6DF752A400D8906EA05152A4357
:100A20004D8806EA05152A43444DA84202D0494D97
:100A3000A8421DD14FF67F752A404D894FF6FF76AB
:100A400006EA05152A434FF6BF752A408D8806EA47
:100A500005152A434FF6FF352B404FF2FF752B400B
:100A60008D8906EA85052B43CD8906EA85052B434A
:100A700083800483CD880587028470BD70B500240F
:100A800000220023058C4FF6FF6635400584028C5A
:100A90008388848B4FF68F752C404FF6FC752C4065
:100AA0000D882C434FF6FF552A400D894FF6FF76EF
:100AB00006EA05252A434D8806EA05252A431F4DE7
:100AC000A84202D0234DA8421DD14FF2FF752A4003
:100AD0004D894FF6FF7606EA05252A434FF6FF3586
:100AE0002A408D8806EA05252A434EF6FF752B40DD
:100AF0004DF6FF752B408D8906EA05152B43CD89F0
:100B000006EA05152B4383808483CD88858702847C
:100B100070BD70B5002200230024058C4EF6FF76D0
:100B200035400584038C8488828B48F6FF752A4003
:100B30004FF6FF452A400D8820E00000002C0140C0
:100B40000004004000080040000C0040001000407D
:100B50000014004000340140004C014000500140AE
:100B60000054014000180040001C004000200040DC
:100B70000040014000440140004801404FF6FF762C
:100B800006EA05252A434DF6FF752B400D8906EA36
:100B900005352B434D8806EA05352B43FA4DA8420F
:100BA00002D0FA4DA84208D14BF6FF752C408D8932
:100BB0004FF6FF7606EA85152C4384808283CD8824
:100BC000A0F84050038470BD828B4FF2FF331A406F
:100BD0008283828B4FF6FF7303EA01231A438283D9
:100BE0007047F0B50C461546002200210026078C00
:100BF0004EF6FF7C07EA0C070784828B018C4FF6C8
:100C0000FF7707EA043640F6FF473A404FF6FF7792
:100C100007EA05273A434FF6FF7707EA03373A43D7
:100C2000D94FB8420ED0D94FB8420BD0B0F1804F57
:100C300008D0D74FB84205D0D64FB84202D0D64FD1
:100C4000B84206D14DF6FF77394046F48057394314
:100C500005E047F6FF57394044F480573943828313
:100C60000184F0BD828B4FF6F3731A408283828B2E
:100C70000A4382837047F0B50C46154600220021D6
:100C80000026078C4FF6FF6C07EA0C070784828B5F
:100C9000018C4FF6FF7707EA04264FF60C773A40AF
:100CA0004FF6FF7707EA03172F433A43B64FB84290
:100CB0000ED0B64FB8420BD0B0F1804F08D0B44F31
:100CC000B84205D0B34FB84202D0B34FB84206D1B4
:100CD0004FF6FF57394046F48077394305E04FF22D
:100CE000FF57394044F48077394382830184F0BD53
:100CF000028B4FF2FF331A400283028B4FF6FF73D1
:100D000003EA01231A4302837047F0B50C461546E7
:100D1000002200210026078C4FF6EF7C07EA0C0723
:100D20000784028B018C4FF6FF7707EA041640F622
:100D3000FF473A404FF6FF7707EA03373A434FF64B
:100D4000FF7707EA05273A438F4FB8420ED08F4FFF
:100D5000B8420BD0B0F1804F08D08D4FB84205D0CB
:100D60008C4FB84202D08C4FB84206D14FF6DF7795
:100D7000394046F01007394305E04FF65F773940B8
:100D800044F01007394302830184F0BD028B4FF613
:100D9000F3731A400283028B0A4302837047F0B553
:100DA0000C46154600220021068C4FF6FE773E4089
:100DB0000684028B018C4FF60C7632407E1C06EACC
:100DC00003162E433243704EB0420ED06F4EB042E7
:100DD0000BD0B0F1804F08D06D4EB04205D06D4EB3
:100DE000B04202D06C4EB04206D14FF6FD76314093
:100DF00044F00106314305E04FF6F576314044F00A
:100E00000106314302830184F0BD70B505460C46EE
:100E10005D4885420ED05D4885420BD0B5F1804FCC
:100E200008D05B48854205D05A48854202D05A48CE
:100E3000854200D100E000BF208850B92389A288F4
:100E400061882846FFF7ABFFE1882846FFF79EFF41
:100E500025E0208804280AD12389A28861882846B1
:100E6000FFF753FFE1882846FFF742FF17E020888D
:100E700008280AD12389A28861882846FFF7FBFE4B
:100E8000E1882846FFF7EEFE09E02389A288618801
:100E90002846FFF7A6FEE1882846FFF795FE70BDBD
:100EA0002DE9F04105460C4600260127608808B967
:100EB000022600E00026A088012801D1022700E0D8
:100EC00001272088A0B92389A28861882846FFF7D6
:100ED00066FFE1882846FFF759FF23893A463146E5
:100EE0002846FFF712FFE1882846FFF701FF13E0CD
:100EF0002389A28861882846FFF707FFE1882846F2
:100F0000FFF7F6FE23893A4631462846FFF747FFAA
:100F1000E1882846FFF73AFFBDE8F0810A884B8850
:100F20001A438B881A43CB881A430B891A434B897F
:100F30001A438B891A43A0F8442070474FF6FF717B
:100F4000818000210180C1804180017270470021B1
:100F5000018041808180C180018141818181C18185
:100F60007047002101804180012181800021C180E2
:100F7000018170470021018041808180C180018111
:100F80004181818170470000002C01400034014004
:100F90000004004000080040000C004021B102881D
:100FA00042F00102028004E002884FF6FE731A400C
:100FB0000280704731B1B0F8442042F40042A0F8FA
:100FC000442005E0B0F84420C2F30E02A0F844200B
:100FD00070471AB183890B43838102E083898B4375
:100FE000838170478182704741EA0203A0F848304C
:100FF00070471AB183890B43838102E083898B4355
:101000008381704701894FF6F87211400181704762
:101010000A46002101894FF68F731940114301815F
:10102000704730B504460D4629462046FFF7F0FFCD
:10103000208940F00700208130BD2DE9F0410446B1
:101040000D4616461F46602D06D13B46012231460D
:101050002046FFF75AFE05E03B4601223146204676
:10106000FFF79DFE29462046FFF7D2FF208940F07A
:1010700007002081BDE8F08130B50C4600210189D0
:10108000C9B24FF6FF7505EA0325154325432943E9
:10109000018130BD2DE9F04105460E4617469846C0
:1010A000002443463A4631462846FFF7E5FF2C899F
:1010B0004FF6F870044044F007044FF68F70044078
:1010C00044F070042C81BDE8F081F0B504460D4673
:1010D00016461F463B46324629462046FFF7CCFFC0
:1010E000208940F480402081F0BD018582827047D4
:1010F0000A46002101884FF68F7319401143018081
:101100007047F0B50C4615461E460021002200230C
:101110000189028B038C4FF6F877394021434FF653
:10112000FC473A4040F201173A434FF6DD773B4027
:101130004FF6FF7707EA06172F433B4301810283EF
:101140000384F0BD0A460021018B4FF68F731940CE
:101150001143018370470A460021018B48F6FF7353
:1011600019404FF6FF7303EA0223194301837047C6
:101170000A460021818B4FF68F73194011438183FA
:1011800070470A460021818B48F6FF7319404FF6DD
:10119000FF7303EA022319438183704721B1028858
:1011A00042F08002028004E002884FF67F731A400A
:1011B0000280704721B1828842F00402828004E0FC
:1011C00082884FF6FB731A408280704721B1828873
:1011D00042F00802828004E082884FF6F7731A40DA
:1011E0008280704721B1828842F00102828004E04F
:1011F00082884FF6FE731A40828070470A460021AB
:10120000018B4FF6F77319401143018370470A466B
:101210000021018B4FF2FF7319404FF6FF7303EA71
:1012200002231943018370470A460021818B4FF640
:10123000F77319401143818370470A460021818B5F
:101240004FF2FF7319404FF6FF7303EA022319436D
:10125000818370470A460021018B4FF6FB731940CA
:101260001143018370470A460021018B4FF6FF337B
:1012700019404FF6FF7303EA0223194301837047B5
:101280000A460021818B4FF6FB731940114381837D
:1012900070470A460021818B4FF6FF3319404FF605
:1012A000FF7303EA02231943818370470A46002132
:1012B000018B4FF67F7319401143018370470A4633
:1012C0000021018BC1F30E014FF6FF7303EA0223E5
:1012D0001943018370470A460021818B4FF67F73C3
:1012E00019401143818370470A460021818BC1F365
:1012F0000E014FF6FF7303EA0223194381837047FF
:101300000A460021018C4FF6FD73194011430184F8
:1013100070470A460021018C4FF6F77319401143BC
:10132000018470470A460021018C4FF6DF73194093
:101330004FF6FF7303EA02131943018470470A460C
:101340000021018C4FF67F7319404FF6FF7303EABB
:1013500002131943018470470A460021018C4FF69D
:10136000FF5319404FF6FF7303EA02231943018428
:1013700070470A460021018C4FF2FF7319404FF667
:10138000FF7303EA02231943018470470A460021D0
:10139000018C4DF6FF7319404FF6FF7303EA0233D9
:1013A00019430184704730B5002301248C40A3B257
:1013B000048C9C430484048C02FA01F5ADB22C43E6
:1013C000048430BD30B5002304248C40A3B2048CC7
:1013D0009C430484048C02FA01F5ADB22C430484CE
:1013E00030BD70B503460020002418461830012592
:1013F0008D40ACB21D8CA5431D8409B1082909D1CB
:1014000000EB6100056825F070050560056815436F
:1014100005600EE00D1FC5F34E052844056825F450
:10142000E045056005684FF6FF7606EA022635437B
:10143000056070BD21B1028842F00202028004E022
:1014400002884FF6FD731A400280704721B102886E
:1014500042F00402028004E002884FF6FB731A4057
:101460000280704721B1828842F08002828004E0CD
:1014700082884FF67F731A408280704702884FF649
:10148000F7731A40028002880A43028070478288FC
:101490004FF68F731A40828082880A438280704799
:1014A00002894FF6F8731A40028102890A430281C9
:1014B000704702894FF67F731A40028102890A43FE
:1014C00002817047818470478185704781867047AB
:1014D0000187704781877047A0F8401070470288E5
:1014E0004FF6FF431A40028002880A430280704789
:1014F0000146888E70470146088F70470146888FE5
:1015000070470146B1F8400070470146888C70472B
:101510000146088D704702460020138A0B400BB12C
:10152000012000E000207047CA430282704730B5B6
:101530000246002000230024158A05EA010395894C
:1015400005EA010413B10CB1012000E0002030BD18
:10155000CA4302827047000010B50446FB4884422B
:1015600009D10121880300F083FB00214FF4804062
:1015700000F07EFB32E0F648844209D101214804A4
:1015800000F083FB00214FF4003000F07EFB25E0EB
:10159000F048844209D10121880400F076FB002143
:1015A0004FF4802000F071FB18E0EB48844209D131
:1015B0000121C80400F069FB00214FF4002000F075
:1015C00064FB0BE0E548844208D10121080500F0E6
:1015D0005CFB00214FF4801000F057FB10BD2DE99B
:1015E000F04786B005460E460024A24600BFA1463D
:1015F0000027B08900B100BF2F462C8A4CF6FF703F
:101600000440F08804432C82AC894EF6F310044069
:10161000B08831890843718908430443AC81AC8A9E
:101620004FF6FF400440B0890443AC8201A800F0AB
:1016300098FAC648874202D1DDF810A001E0DDF833
:101640000CA0A88900F4004040B10AEBCA0000EBEE
:101650000A1031684900B0FBF1F807E00AEBCA0054
:1016600000EB0A1031688900B0FBF1F86420B8FB88
:10167000F0F004012009642101FB1089A88900F41D
:10168000004040B1322000EBC900B0FBF1F000F0A7
:101690000700044308E0322000EB09106421B0FB8E
:1016A000F1F000F00F0004432C8106B0BDE8F08794
:1016B0004FF41651016000218180C18001810C210D
:1016C000418100218181704710B502460020108AB7
:1016D0004FF2FF0318400B884C8823438C88234328
:1016E000CC8823431843108210BD00210180418023
:1016F0008180C180704721B1828942F40052828189
:1017000004E082894DF6FF731A4082817047F0B57C
:101710000346002400260025002040F66A17B9423F
:1017200000D100BF1846C1F3421401F01F06012783
:1017300007FA06F5012C01D10C3004E0022C01D18E
:10174000103000E014301AB107682F43076002E040
:101750000768AF430760F0BD1AB1838A0B438382E9
:1017600002E0838A8B4383827047028A4FF6F073CC
:101770001A400282028A0A430282704782894FF22B
:10178000FF731A40828182890A438281704721B1A6
:10179000828942F00202828104E082894FF6FD7361
:1017A0001A4082817047028A4FF6DF731A40028224
:1017B000028A0A430282704721B1028A42F48042BF
:1017C000028204E0028A4BF6FF731A4002827047DD
:1017D000C1F308028280704701468888C0F3080080
:1017E0007047818941F0010181817047028BD2B23B
:1017F0000283028B42EA012202837047028B02F4C9
:101800007F420283028B0A430283704721B1828A9E
:1018100042F02002828204E0828A4FF6DF731A408F
:101820008282704721B1828A42F01002828204E0F3
:10183000828A4FF6EF731A408282704721B1828A02
:1018400042F00802828204E0828A4FF6F7731A405F
:101850008282704721B1828942F40042828103E092
:101860008289C2F30E028281704721B1828A42F4DA
:101870000062828204E0828A4FF2FF731A40828201
:101880007047828A4FF6FB731A408282828A0A432B
:101890008282704721B1828A42F00202828204E091
:1018A000828A4FF6FD731A408282704702460020FA
:1018B000B1F5007F00D100BF13880B400BB10120B0
:1018C00000E00020704701F40072B2F5007F00D103
:1018D00000BFCA430280704770B50246002400234F
:1018E0000025002040F66A16B14200D100BFC1F3C6
:1018F000421501F01F03012606FA03F3012D02D160
:101900009689334006E0022D02D1168A334001E069
:10191000968A33400C12012606FA04F416883440E5
:1019200013B10CB1012000E0002070BD10B5002201
:10193000002340F66A14A14200D100BF0A1201241C
:101940009440A3B2DC43048010BD00000038014085
:101950000044004000480040004C0040005000405F
:10196000DF48006840F00100DD4908600846406833
:10197000DC490840DA49486008460068DA4908400E
:10198000D74908600846006820F4802008600846AF
:10199000406820F4FE0048604FF41F0088607047E4
:1019A000CF49096821F48031CD4A11601146096898
:1019B00021F480211160B0F5803F03D0B0F5802F75
:1019C0000ED106E0C649096841F48031C44A11606D
:1019D00007E0C349096841F4A021C14A116000E051
:1019E00000BF00BF704710B5014600220023002051
:1019F0004A11012A02D1BA4C236806E0022A02D118
:101A0000B74C236A01E0B64C636A01F01F0201245F
:101A100094401C400CB1012000E0002010BD38B5FE
:101A2000002000900024002500BF3120FFF7DBFFDD
:101A300005460098401C00900098B0F5A06F01D0BA
:101A4000002DF2D03120FFF7CEFF08B1012400E0D5
:101A50000024204638BD01460020A14A106820F02D
:101A6000F80040EAC10010607047A0490860704764
:101A7000024600209A4B586820F47C1042EA010389
:101A80001843974B5860704798490866704701465D
:101A90000020934A506820F00300084350607047CC
:101AA0008F48406800F00C007047014600208C4AC7
:101AB000506820F0F0000843506070470146002055
:101AC000874A506820F4E060084350607047014640
:101AD0000020834A506820F4605040EAC100506002
:101AE000704729B17E4A527A02437D4B5A7204E014
:101AF0007B4A527A82437A4B5A7270477B49D8317B
:101B00000860704701460020754A506820F4404044
:101B10000843506070470021714A20321170704AAA
:101B200082F82010012802D004280AD104E0012103
:101B30006B4A2032117005E00521694A203211708C
:101B400000E000BF00BF7047694908607047644902
:101B5000096A0143624A1162704765494439086065
:101B6000704730B500210022002400235C4D6D68D1
:101B700005F00C0121B1042905D0082923D105E085
:101B80005C4D056022E05B4D05601FE0544D6D68C3
:101B900005F47012524D6D6805F48034022505EB92
:101BA00092421CB9544D554305600BE04C4D6D6895
:101BB00005F400351DB1504D5543056002E04D4D13
:101BC0005543056002E04B4D056000BF00BF444D2A
:101BD0006D6805F0F0010909484D6B5C0568DD4052
:101BE00045603F4D6D6805F4E061090A434D6B5C4B
:101BF0004568DD4085603A4D6D6805F46051C90A5D
:101C00003E4D6B5C4568DD40C560354D6D6805F443
:101C10004041890B3A4D6B5CC568B5FBF3F5056136
:101C200030BD29B12E4A526902432D4B5A6104E05E
:101C30002B4A526982432A4B5A61704729B1284A7C
:101C400092690243264B9A6104E0254A92698243D5
:101C5000234B9A61704729B1214AD2690243204B34
:101C6000DA6104E01E4AD26982431D4BDA61704793
:101C700029B11B4AD2680243194BDA6004E0184AC2
:101C8000D2688243164BDA60704729B1144A126950
:101C90000243134B1A6104E0114A12698243104B4C
:101CA0001A61704712494039086070470F49C8648B
:101CB00070470B49C87170470948406A40F080700E
:101CC00007494862704701460020054A92680A4069
:101CD0000AB1012000E00020704701498872704776
:101CE000001002400000FFF8FFFFF6FE0000424235
:101CF0008004424200127A0000093D0014000020D6
:101D00002400002010B50446BE48844208D10121B9
:101D10008014FFF7ADFF0021A014FFF7A9FF16E024
:101D2000B948844208D101210014FFF7AEFF002119
:101D30002014FFF7AAFF0AE0B448844207D101212A
:101D4000C013FFF7A2FF0021E013FFF79EFF10BDB5
:101D500010B50022028802F441520B884C882343BC
:101D60008C882343CC8823430C8923434C89234309
:101D70008C892343CC8923431A430280838B4FF2FF
:101D8000FF74234083830B8A038210BD2DE9F04F3B
:101D900085B005460C464FF0000902274FF00008B9
:101DA0004FF0010B0026B246A88B4FF240010840CD
:101DB000A88302202884B5F81C90A068022801D1CD
:101DC00000BF38E0A08810B94FF0010B01E04FF0E0
:101DD000020B8D48854200D100E000BF6846FFF746
:101DE000C0FEDDF800A0E088B0F5007F0AD14FEA20
:101DF0001A2000EB80004000A168B0FBF1F0401D0C
:101E000086B20BE04FEA4B10BAFBF0F000EB80001B
:101E10004000A168B0FBF1F0401D86B20A20B6FB7D
:101E2000F0F606F00108A6EB0800C0F34F074FF6E6
:101E3000FF7000EA0828022F01DBFF2F02DD0227D6
:101E40004FF00008E08840EA080038432884A08862
:101E5000A1890843618808432188084340F4006051
:101E600040EA0909A5F81C9005B0BDE8F08F0021F3
:101E7000018041808180C180018141818181C18156
:101E80000721018270470021018041808180C1804B
:101E90000221816000218181704721B1028842F0D6
:101EA0004002028004E002884FF6BF731A400280AD
:101EB000704721B1828B42F48062828304E0828B7E
:101EC0004FF6FF331A408283704730B50024002359
:101ED0000C110125A540ABB21AB185881D43858040
:101EE00002E085889D43858030BD1AB183880B430D
:101EF000838002E083888B438380704781817047B1
:101F00000146888970474FF6FF62914204D00288EB
:101F100042F48072028004E002884FF6FF631A40A8
:101F20000280704721B1828842F00402828004E07E
:101F300082884FF6FB731A408280704702884FF206
:101F4000FF731A40028002880A43028070470188AA
:101F500041F480510180704721B1028842F400525F
:101F6000028004E002884DF6FF731A400280704739
:101F700002460020012901D0108B00E0908A7047B2
:101F80000146088A7047B1F5804F04D1028842F4B7
:101F90008042028004E002884BF6FF731A40028000
:101FA00070470246002013890B400BB1012000E06E
:101FB00000207047CA4302817047F0B502460020F6
:101FC00000240023002501F00F070126BE40B4B213
:101FD0000B1101269E40B3B2968806EA03051689C6
:101FE000264016B10DB1012000E00020F0BD10B573
:101FF000002201F00F040123A3409AB2D3430381CE
:1020000010BD00000030014000380040003C00409E
:1020100010B50446FA48844208D101214015FFF763
:1020200027FE00216015FFF723FE17E0F5488442E4
:1020300008D101210015FFF71BFE00212015FFF735
:1020400017FE0BE0F048844208D10121C803FFF7D6
:102050000FFE00214FF40040FFF70AFE10BD30B51F
:102060000246002000235068E84C20400D790C689F
:1020700044EA0524204350609068E54C2040D1E9B3
:1020800002542C434D7944EA450420439060D06AC1
:1020900020F470000C7C641EE4B2234340EA035039
:1020A000D06230BD00210160017141718160C16069
:1020B00001210174704721B1826842F001028260FF
:1020C00003E0826822F001028260704721B18268D9
:1020D00042F48072826003E0826822F4807282603F
:1020E000704710B50023CBB21AB144681C4344605A
:1020F00002E044689C43446010BD816841F00801DF
:1021000081607047014600208A6802F008020AB127
:10211000012000E000207047816841F004018160E7
:102120007047014600208A6802F004020AB10120CB
:1021300000E00020704721B1826842F4A002826072
:1021400003E0826822F4A00282607047014600200A
:102150008A6802F480020AB1012000E00020704782
:1021600010B50A4600210023416821F46041531E46
:1021700041EA4331416010BD21B1426842F400623E
:10218000426003E0426822F4006242607047F0B5AA
:1021900004460D4600200021092D11DDE068A5F15F
:1021A0000A0606EB4607072606FA07F18843A5F15B
:1021B0000A0606EB460603FA06F10843E0600CE067
:1021C000206905EB4507072606FA07F1884305EB6A
:1021D000450603FA06F108432061072A0FDA606B0F
:1021E000561E06EB86071F2606FA07F18843561E81
:1021F00006EB860605FA06F10843606322E00D2A25
:102200000FDA206BD61F06EB86071F2606FA07F1AA
:102210008843D61F06EB860605FA06F108432063BD
:1022200010E0E06AA2F10D0606EB86071F2606FA0B
:1022300007F18843A2F10D0606EB860605FA06F1C2
:102240000843E062F0BD21B1826842F480128260EE
:1022500003E0826822F48012826070470146C86CF5
:1022600080B2704766484C300068704721B14268C0
:1022700042F48062426003E0426822F4806242607D
:10228000704721B1426842F48052426003E04268E4
:1022900022F48052426070470A460021816821F48E
:1022A000E04111438160704721B1826842F40042ED
:1022B000826003E0826822F400428260704721B1AC
:1022C000826842F40212826003E0826822F4021201
:1022D00082607047014600208A6802F400120AB149
:1022E000012000E000207047F0B5044615460020AC
:1022F00000220026092911DDE068A1F10A0707EB99
:10230000470C072707FA0CF29043A1F10A0707EBE5
:10231000470703FA07F21043E0600CE0206901EB85
:10232000410C072707FA0CF2904301EB410703FA2F
:1023300007F210432061A06BC0F30156EF1C06F1B9
:10234000010CA7EB0C0707EB870C1F2707FA0CF211
:102350009043EF1C06F1010CA7EB0C0707EB870776
:1023600001FA07F21043A063F0BD10B50A46002140
:102370000023816B21F44011531E41EA0351816314
:1023800010BD08B5002300930090009B0B44009300
:10239000009B1A6008BD08B502460020009000921C
:1023A00001F12800009B184400900098006880B25A
:1023B00008BD0A4600214168164B1940114341608F
:1023C00070474162826270470A460021416821F0ED
:1023D0001F0111434160704740B109490831096844
:1023E00041F40001064A0832116007E0044908314F
:1023F000096821F40001024A0832116070470000A8
:102400000024014000280140003C0140FFFEF0FF95
:10241000FDF7F1FFFFFD3FFF0246002013680B4070
:102420000BB1012000E000207047CA4302607047F2
:1024300070B502460020002300240B125568CEB26E
:1024400005EA060415681D4015B10CB1012000E035
:10245000002070BD00220A12D343036070470000C1
:1024600001684FF6FE721140016000210160416079
:102470008160C1608D49884208D18C49083949681A
:1024800041F00F01894A083A51608AE087491431C6
:10249000884208D185490839496841F0F001834AEA
:1024A000083A51607DE081492831884208D17F494E
:1024B0000839496841F470617C4A083A516070E01B
:1024C0007A493C31884208D178490839496841F451
:1024D0007041764A083A516063E07449503188424D
:1024E00008D172490839496841F470216F4A083AA5
:1024F000516056E06D496431884208D16B49083912
:10250000496841F47001694A083A516049E06749F5
:102510007831884208D165490839496841F07061CD
:10252000624A083A51603CE06149884206D1011F85
:10253000096841F00F01021F116032E05C4914315B
:10254000884208D15A49091F096841F0F001584AE8
:10255000121F116025E056492831884208D154499C
:10256000091F096841F47061514A121F116018E097
:102570004F493C31884208D14D49091F096841F44F
:1025800070414B4A121F11600BE04949503188429B
:1025900007D14749091F096841F47021444A121FB5
:1025A0001160704710B50022026847F6F0739A4335
:1025B0000C6A8B6823430C6923434C6923438C6961
:1025C0002343CC6923434C6A23438C6A23431A4335
:1025D0000260CB6843600B6883604B68C36010BDCA
:1025E0000021016041608160C160016141618161E0
:1025F000C161016241628162704721B1026842F0AB
:102600000102026004E002684FF6FE731A400260A5
:1026100070471AB103680B43036002E003688B4301
:1026200003607047416070470146486880B2704758
:1026300001460020002201F080531BB11C4B083BD7
:102640001A6802E0194B083B1A6802EA01030BB151
:10265000012000E00020704700F0805119B11449BA
:10266000091F086002E011490839486070470146B7
:102670000020002201F080531BB10D4B083B1A686B
:1026800002E00A4B083B1A6802EA01030BB1012081
:1026900000E00020704700F0805119B10449091F83
:1026A000086002E0014908394860704708000240AC
:1026B0000804024008B501210920FFF7BFFA0220F3
:1026C000ADF8000048208DF8030069461948FDF771
:1026D000E7FE4FF40070ADF8000048208DF80300CD
:1026E00069461448FDF7DCFE08BD08B54FF4A0604C
:1026F000FDF708FE25208DF8000001208DF801006F
:1027000000208DF8020001208DF803006846FDF7D7
:10271000FEFD1D208DF8000002208DF80100002034
:102720008DF8020001208DF803006846FDF7EFFDEB
:1027300008BD0000000C01403EB504460121022006
:10274000FFF789FA0F48FDF7F9FFADF8044047207D
:10275000ADF800000020ADF80600ADF802006946B3
:102760000848FEF7BFF801210648FEF7DDFE01220A
:1027700011460448FEF72DFC01210248FEF70EFC2D
:102780003EBD00000004004010B588B004460121A1
:102790008803FFF753FA01210420FFF74FFA4FF4A3
:1027A0000070ADF8040003208DF8060018208DF8A5
:1027B000070001A9C148FDF773FE4FF48060ADF832
:1027C000040003208DF8060004208DF8070001A9FD
:1027D000BA48FDF765FE04940020ADF81400ADF88A
:1027E0001600ADF81800ADF81C000C20ADF81A006A
:1027F0000020ADF80800ADF80A004FF40070ADF805
:102800000C000020ADF80E0004A9AD48FEF7E7FE6D
:1028100002A9AB48FEF758FF012240F22551A84813
:10282000FEF775FF0121A648FEF765FF08B010BD51
:10283000A348008800F0080020B1A149091D0988BB
:10284000C8B200BF9E48008800F08000F0B19C48EC
:102850000C30008800F08000C0B19A480178007800
:10286000401C984A10709848405C9549091D0880A2
:102870001046007895490978884207D190480C3075
:10288000008820F080008E490C3108808C48008838
:1028900000F0200000286DD08949091D0988C8B2C0
:1028A0008B49097859B9AA2846D18A498A4A1278A7
:1028B00001EB421108700121854A11703CE0844906
:1028C000097801290FD1AF2809D18249824A1278AB
:1028D00001EB4211487002217D4A11702CE0002169
:1028E0007B4A117028E07A490978022909D179498F
:1028F000794A127801EB421188700321744A1170F1
:102900001AE073490978032909D17249724A127889
:1029100001EB4211C87004216D4A11700CE06D4941
:102920006D4A127801EB4211694A1278885468495D
:102930000978491C664A11706649674A127801EBAA
:102940004211C978491D624A1278914211D1002181
:102950005F4A11706049097831B100215E4A1170F7
:1029600001215E4A117004E001215B4A11705C4A4A
:10297000117000BF704710B50446544801780078C4
:10298000401C524A1070504844544D480C30008846
:1029900000F0800028B9012240F227714848FEF774
:1029A000B6FE204610BD31B500249DF80110474801
:1029B00002780078401C454B1870434881549DF8BC
:1029C0000020184601780078401C18703E48425498
:1029D0003B480C30008800F0800028B9012240F20A
:1029E00027713748FEF793FE9DF801002044C4B2DA
:1029F0009DF800002044C4B2204638BD31B5002403
:102A00003849009808600846C17830480278007854
:102A1000401C2E4B18702C4881543248817818463F
:102A200002780078401C1870274881542D4842785D
:102A3000184601780078401C1870234842542948F1
:102A40000178184602780078401C18701E4881549E
:102A50001B480C30008800F0800028B9012240F2A9
:102A600027711748FEF753FE9DF803002044C4B2B7
:102A70009DF802002044C4B29DF801002044C4B275
:102A80009DF800002044C4B2204638BD10B504466D
:102A90000FE020780D2802D1FFF76DFF08E02078C5
:102AA0000A2802D1FFF767FF02E02078FFF763FFF3
:102AB000641C20780028ECD110BD00000008014003
:102AC0000038014030000020540000203100002078
:102AD0003300002053010020320000203500002088
:102AE000340000202C00002000B587B00121082010
:102AF000FFF7A4F801211020FFF7A0F801210846F4
:102B0000FFF79CF801218803FFF7A5F84FF4604018
:102B1000ADF8040001208DF8060018208DF807009C
:102B200001A93148FDF7BCFC4FF48040ADF804002A
:102B300001208DF8060010208DF8070001A92B4810
:102B4000FDF7AEFC4FF40050ADF8040001208DF805
:102B5000060010208DF8070001A92448FDF7A0FC0D
:102B60004FF400512148FDF748FD0020ADF8080062
:102B70004FF48270ADF80A000020ADF80C00ADF8FB
:102B80000E00ADF810004FF40070ADF812001020E8
:102B9000ADF814000020ADF816000720ADF81800BD
:102BA00002A91348FFF7D4F801211148FFF775F97E
:102BB00007B000BD10B5044600BF02210C48FFF766
:102BC000F0F90028F9D021460948FFF797F900BF2E
:102BD00001210748FFF7E5F90028F9D00448FFF77D
:102BE0008FF9C0B210BD0000000C01400010014080
:102BF0000038004070B505460C464FF4005194482B
:102C0000FDF7FDFC2846FFF7D5FF06462046FFF7F7
:102C1000D1FF4FF400518E48FDF7EFFC304670BDF8
:102C200070B504464FF400518948FDF7E8FC204692
:102C3000FFF7C0FF0020FFF7BDFF05464FF400512E
:102C40008348FDF7DAFC284670BD2DE9F0410746C0
:102C50000D4616464FF400517D48FDF7D0FC38462E
:102C6000FFF7A8FF8046002404E0285DFFF7A2FFDD
:102C7000601CC4B2B442F8DB4FF400517448FDF755
:102C8000BCFC4046BDE8F0812DE9F04107460D4609
:102C900016464FF400516E48FDF7B1FC3846FFF779
:102CA00089FF8046002405E00020FFF783FF2855B8
:102CB000601CC4B2B442F7DB4FF400516448FDF726
:102CC0009CFC4046BDE8F08170B504460D464FF4CB
:102CD00080415F48FDF793FC05225E492A20FFF7FB
:102CE000B4FF2A462146A020FFF7AFFF4FF48041F2
:102CF0005748FDF782FC70BD70B504460D464FF491
:102D000080415348FDF77BFC2A462146A820FFF767
:102D10009CFF4FF480414E48FDF76FFC70BD1CB521
:102D200005224C493020FFF790FF0522694610200C
:102D3000FFF7AAFF002408E01DF804004549095DDB
:102D4000884200D003E0601CC4B2052CF4DB00BF55
:102D5000052C01D101201CBD0020FCE770B5044604
:102D60000D464FF480413A48FDF749FC05223A49A7
:102D70002A20FFF76AFF052236493020FFF765FF5A
:102D800001212120FFF736FF01212220FFF732FF2A
:102D90001A212420FFF72EFF28212520FFF72AFFE4
:102DA0000F212620FFF726FF012C08D120213120FA
:102DB000FFF720FF0F212020FFF71CFF41E0022C2E
:102DC00008D120213120FFF715FF0E212020FFF729
:102DD00011FF36E0032C1AD1FF21E120FFF70AFF93
:102DE000FF21E220FFF706FF0F212020FFF702FF5F
:102DF0005020FFF7DFFE7320FFF7DCFE01213C20AF
:102E0000FFF7F8FE07213D20FFF7F4FE19E00E2141
:102E10002020FFF7EFFEFF21E120FFF7EBFEFF216F
:102E2000E220FFF7E7FE5020FFF7C4FE7320FFF714
:102E3000C1FE01213C20FFF7DDFE07213D20FFF709
:102E4000D9FE4FF480410248FDF7D7FB70BD00006A
:102E500000100140360000203B00002010B57348F0
:102E6000007828B171480078401E704908701FE052
:102E70004FF400716E48FDF7A6FBC8B928206B49D6
:102E800008706C480078401C6A4908700846007851
:102E9000012801DD00200870664909781031C8B2A8
:102EA0000822002100F0EDFD624800786249488266
:102EB00010BD002109E0002201E0531C9AB242F249
:102EC00034139A42F9DB4B1C99B28142F3DB704711
:102ED00008B501210820FEF7B1FE4FF48060ADF87F
:102EE000000003208DF8020010208DF803006946D1
:102EF0004F48FDF7D5FA4FF40060ADF8000003200D
:102F00008DF8020010208DF8030069464848FDF74F
:102F1000C7FA4FF48050ADF8000003208DF802008E
:102F200010208DF8030069464148FDF7B9FA08BD45
:102F300010B54FF480613E48FDF75FFB4FF4006130
:102F40003B48FDF75CFB4FF480513948FDF757FBD8
:102F50009620FFF7AEFF4FF480613548FDF74FFB39
:102F60004FF400613248FDF748FB4FF48051304880
:102F7000FDF743FB9620FFF79CFF4FF480612C4840
:102F8000FDF73BFB4FF400612948FDF738FB4FF498
:102F900080512748FDF733FB9620FFF78AFF4FF457
:102FA00080612348FDF72BFB4FF400612048FDF7BB
:102FB00024FB4FF480511E48FDF71FFB10BD10B5D8
:102FC0004FF480611A48FDF718FB3220FFF771FFBC
:102FD0004FF480611648FDF712FB3220FFF769FFBE
:102FE00010BD10B54FF400611148FDF708FB322009
:102FF000FFF75FFF4FF400610D48FDF7FEFA322046
:10300000FFF757FF10BD10B54FF480510848FDF78A
:10301000F6FA3220FFF74DFF4FF480510448FDF7D8
:10302000ECFA3220FFF745FF10BD000045000020FC
:10303000000C014046000020F401002010B5FFF70D
:1030400047FFFFF775FFFFF735FB42F21070FFF700
:1030500073FB4FF4E130FFF797FBFFF745FDFFF7F8
:1030600044FB28210320FFF779FEFFF758FE18B133
:1030700017A0FFF70BFD02E01AA0FFF707FD00F015
:10308000ACFA00F021FD10BD00201C490870FFF7CC
:10309000D5FF01201949087019E000F0F7F800F099
:1030A00050F91748007890B1002015490870202188
:1030B0001448FFF721FEFFF7D1FE1348007830B126
:1030C00000201149087000F09AFA00F038FCE4E79B
:1030D0004E524632344C3031204953204F4B202140
:1030E0000D0A00004E524632344C303120495320F4
:1030F0004E4F54204F4B20210D0A00002800002085
:103100004A000020D30100204400002010B5FFF742
:103110008FFB10BD2DE9F0414F48008800F0010001
:1031200000287DD04FF6FE704B4908804B48007850
:1031300008B9BDE8F0814A480078401C4849087049
:1031400008460078012877D10020087045480078AB
:10315000401C4449087008460078142804D1002017
:1031600008700120404908704049088901F087FB38
:10317000064600223E4B01F010FB044601F08CFB9A
:1031800000F57A7000B23B4988803849488901F0DF
:1031900076FB0646384A394B01F0FFFA044601F047
:1031A0007BFB00B23349C8803049C88901F067FB16
:1031B0000646334A334B01F0F0FA044601F06CFB4B
:1031C00000B22C4948802949888901F058FB0646FD
:1031D0002B4A2C4B01F0E1FA044601F05DFB00B2F2
:1031E0002449088021498888C11700EB9171891012
:1031F000204A11811D480088282190FBF1F000B27F
:103200001146488119484088A02190FBF1F000B296
:10321000114688811549C988490001EB411000E039
:103220000AE0C11700EB11510913D1811046C08982
:103230001549088000F0CBF800BF7AE7704700BF5F
:10324000FEE700BFFEE700BFFEE700BFFEE77047F6
:1032500070477047704700001004004028000020AD
:103260004700002048000020440000200802002001
:103270000000D03FF4010020AE47E17A14AEE73FF2
:10328000068195438B6CE73F4200002010B514483F
:10329000007848B10020124908701248C078401DDB
:1032A000C1B21048FFF728FD0F48007850B1002048
:1032B0000D4908700B48C078401DC1B20948203044
:1032C000FFF71AFD10BD70B504460D4605E02078E5
:1032D000FFF751FB641C681EC5B2002DF7D170BD0D
:1032E00034000020530100203500002010B50023D9
:1032F000002204E0845C1C44E3B2541CE2B24C1E85
:103300009442F7DC421812F8012C9A4200D010BD0A
:103310000278AA2A02D14278AA2A00D0F7E7827856
:10332000032A05D1027D447D44EA0222534C2280C7
:1033300000BFECE710B5044620212046FFF7DCFC77
:1033400010BD70B50720FFF76BFC044604F0400089
:10335000D8B16020FFF764FC0546212D0DDA2A461E
:1033600047496120FFF790FC29464548FFF7BEFF1B
:1033700029464348FFF7A7FF03E0FF21E220FFF7BC
:1033800039FC00203F4908800DE03E480088401C81
:103390003C49088008460088B0F57A7F03DD0020AC
:1033A00008803649088004F0100058B1364800887B
:1033B000401C3549088004F0010018B1FF21E120CC
:1033C000FFF718FC21462720FFF714FC70BDAA2048
:1033D0002E4A1070AF205070032090701F20D070C4
:1033E0002B48407910712A48007950712848C079DB
:1033F000907127488079D071254840781072244810
:10340000007850722248C078907221488078D0723B
:103410001F48407A10731E48007A50731C48C07AC7
:1034200090731B48807AD0731948407B10741848F9
:10343000007B50741648C07B90741548807BD07414
:103440001348407C10751248007C50751048C07CB1
:1034500090750F48807CD0750021002005E00B4A54
:10346000125C0A44D1B2421CD0B21E28F7DB0748D6
:10347000C1770120074A107070470000400000200B
:10348000930100204C0000204E000020D3010020BA
:10349000F40100204A00002010B5012140F205206F
:1034A000FEF7CCFB4FF40040FEF72CFB0121084651
:1034B000FEF7B7FB10BD08B5FF20ADF800000020F7
:1034C0008DF803006946FE48FCF7EAFF08BD00B529
:1034D00085B0FC48FEF79CFD0020009001208DF88F
:1034E00004008DF805004FF4602002900020039046
:1034F00008208DF810006946F248FEF7B0FD012360
:103500001A460021EF48FEF742FE01230222194627
:10351000EC48FEF73CFE012303220221E948FEF7B6
:1035200036FE012304220321E648FEF730FE012384
:1035300005220421E348FEF72AFE01230622052185
:10354000E048FEF724FE012307220621DD48FEF7AE
:103550001EFE012308220721DA48FEF718FE01218A
:10356000D848FEF7B3FD0121D648FEF7A4FDD548A3
:10357000FEF7C3FD00BFD348FEF7C4FD0028FAD113
:10358000D048FEF7C9FD00BFCE48FEF7CAFD0028AF
:10359000FAD105B000BD00B58BB0CB48FEF760FF97
:1035A000C8484C300090C948019000200290082083
:1035B0000390002004908020059040000690800039
:1035C0000790202008900002099000200A90694688
:1035D000BD48FEF7E7FF0BB000BD10B5FFF75CFF7D
:1035E000FFF769FFFFF773FFFFF7D5FF0121B5482C
:1035F000FEF7A1FD0121B448FEF7FFFF10BD10B595
:10360000B348008821380A2875D2DFE800F0958594
:10361000756454443424140500221146AD4800F06A
:103620000DFB142000F007FA0E2000F004FA12201F
:1036300000F001FA00BF00221146A6480A3800F047
:10364000FDFA142000F0F7F90E2000F0F4F9112033
:1036500000F0F1F990E0002211469E48143800F085
:10366000EDFA142000F0E7F90E2000F0E4F9102044
:1036700000F0E1F980E00022114696481E3800F083
:10368000DDFA132000F0D7F90E2000F0D4F919204C
:1036900000F0D1F970E0002211468E48283800F081
:1036A000CDFA132000F0C7F90E2000F0C4F918205D
:1036B00000F0C1F960E0002211468648323800F07F
:1036C000BDFA132000F0B7F90E2000F0B4F917206E
:1036D00000F0B1F950E0002211467E483C3800F07D
:1036E000ADFA132000F0A7F90E2000F0A4F916207F
:1036F00000F0A1F940E02FE000221146754846385D
:1037000000F09CFA132000F096F90E2000F093F9D7
:10371000152000F090F92FE0002211466D48463840
:1037200000F08CFA132000F086F90E2000F083F9E7
:10373000142000F080F91FE0002211466548463849
:1037400000F07CFA132000F076F90E2000F073F9F7
:10375000132000F070F90FE0002211465D48463852
:1037600000F06CFA102000F066F90E2000F063F90A
:10377000102000F060F900BF00BF574800882338D0
:10378000082874D2DFE800F0746353433323130432
:10379000002201214F4800F051FA142000F04BF9AB
:1037A0000E2000F048F9122000F045F980E00022D8
:1037B000012148480A3800F041FA142000F03BF992
:1037C0000E2000F038F9112000F035F970E00022E9
:1037D00001214048143800F031FA142000F02BF990
:1037E0000E2000F028F9102000F025F960E00022FA
:1037F000012138481E3800F021FA132000F01BF98F
:103800000E2000F018F9192000F015F950E0002200
:1038100001213048283800F011FA132000F00BF98C
:103820000E2000F008F9182000F005F940E0002211
:1038300001212848323800F001FA132000F0FBF88B
:103840000E2000F0F8F8172000F0F5F830E0002224
:10385000012120483C3800F0F1F9132000F0EBF88A
:103860000E2000F0E8F8162000F0E5F820E00FE068
:10387000002201211748463800F0E0F9132000F03B
:10388000DAF80E2000F0D7F8152000F0D4F80FE099
:10389000002201210F48463800F0D0F9102000F036
:1038A000CAF80E2000F0C7F8102000F0C4F800BFDE
:1038B00000BF4FF480610948FCF7A1FE10E0000052
:1038C00000080140002401400800024008020020D6
:1038D000400000200E53000842000020000C014070
:1038E0004FF400612148FCF788FE4FF480511F48D7
:1038F000FCF783FE1E48008825280DDA1C48008846
:10390000142809DD4FF480611848FCF776FE4FF467
:1039100000611648FCF773FE1648008824280DDA6B
:1039200014480088142809DD4FF480610F48FCF723
:1039300064FE4FF480510D48FCF761FE10BD10B5D8
:103940000D49098988B20022032100F0F6F80A49DE
:10395000498988B20522032100F0EFF806498989D8
:1039600088B20A22032100F0E8F810BD000C0140E3
:103970004200002040000020F401002008B5012191
:103980000846FEF75BF90121FE48FCF75AFE4FF4AA
:103990009C70ADF8000010208DF8030003208DF816
:1039A00002006946F848FCF77BFD4FF40040ADF893
:1039B000000010208DF8030003208DF802006946F6
:1039C000F248FCF76DFD08BD10B502461023EE4C21
:1039D00014342360012903D12023241F236003E032
:1039E0002023E94C14342360002018E04FF40043F6
:1039F000E64C1434236080230341134023B1082391
:103A0000E14C1034236003E00823DF4C14342360BE
:103A10004FF40043DD4C10342360431CD8B2082817
:103A2000E4DB4FF40043D94C143423601023D64C0C
:103A30001034236010BD30B5054600240AE005EBC4
:103A40004501D34A02EB4101085D0121FFF7BCFFAC
:103A5000601CC4B2062CF2DB30BD30B504460D4606
:103A6000542C00DB0024062D00DB002545F040002F
:103A70000021FFF7A9FF44F080000021FFF7A4FF19
:103A800030BD70B505460E4614460D2C00DD0024F1
:103A900004EB44014906080E3146FFF7DEFF2846D5
:103AA000FFF7C9FF70BD10B500210846FFF7D5FF2D
:103AB000002405E001210020FFF786FF601C84B28E
:103AC000B4F5FC7FF6DB10BD10B5FFF757FF4FF4E0
:103AD0008070AD4914310860091F08600021212061
:103AE000FFF772FF0021C820FFF76EFF00210620BC
:103AF000FFF76AFF00211320FFF766FF0021202057
:103B0000FFF762FF00210C20FFF75EFFFFF7CBFFFE
:103B1000012202213020FFF7B4FF062202212920D2
:103B2000FFF7AFFF0B2202212420FFF7AAFF082294
:103B300000211020FFF7A5FF10BDF0B504460F4689
:103B4000164606EB46014906080E3946FFF785FF83
:103B50004FF47A7094FBF0F00A2190FBF1F201FB34
:103B6000120505F11001C8B2FFF765FF642094FB50
:103B7000F0F00A2190FBF1F201FB120505F11001B2
:103B8000C8B2FFF758FF0A2094FBF0F00A2190FB1F
:103B9000F1F201FB120505F11001C8B2FFF74BFF6E
:103BA0000A2094FBF0F100FB114505F11001C8B2A9
:103BB000FFF741FFF0BD10B5044603E014F8010B18
:103BC000FFF739FF20780028F8D110BD70B5054601
:103BD0000E4614460D2C00DD002404EB440149067A
:103BE000080E3146FFF739FF2846FFF7E4FF70BDA6
:103BF00030B50546002405E0285D0121FFF7E4FE0D
:103C0000601CC4B2062CF7DB30BD70B505460E460D
:103C1000144631462046FFF720FF2846FFF7E8FF0D
:103C200070BD30B50546002405E0285D0121FFF791
:103C3000CBFE601CC4B20A2CF7DB30BD70B5064663
:103C40000D4614464A2C02DD0024681CC5B22946E4
:103C50002046FFF702FF3046FFF7E3FF70BDF0B5E7
:103C600005460E4617467006010E3846FFF7F5FE6C
:103C700000240AE0A5F12001464A02EB0111085D8B
:103C80000121FFF7A1FE601CC4B2082CF2DB012069
:103C900000EB4600C1B23846FFF7DFFE08240AE019
:103CA000A5F120013B4A02EB0111085D0121FFF75C
:103CB0008BFE601CC4B2102CF2DBF0BDF0B50446E4
:103CC0000F461546002611E005EBC6004C2803DD23
:103CD00000250026781CC7B205EBC601CAB22078C1
:103CE0003946FFF7BCFF641C701CC6B22078002860
:103CF000EAD1F0BDF0B505460E4617467006010E36
:103D00003846FFF7AAFE002405E0285D0121FFF7F1
:103D10005BFE601CC4B2102CF7DB012000EB4600F8
:103D2000C1B23846FFF799FE102405E0285D012155
:103D3000FFF74AFE601CC4B2202CF7DBF0BD2DE972
:103D4000F04306460F46154698464FF000090024FA
:103D500015E005EB0410442803DD0025A946781C76
:103D6000C7B205EB0911CAB206EB44103946FFF79A
:103D7000C1FF09F1010000F0FF09601CC4B2444515
:103D8000E7DB09E000023000000C014000080140C0
:103D90005453000818560008BDE8F08330B50546B6
:103DA000002405E0285D0121FFF70EFE601C84B2AF
:103DB000B4F5FC7FF6DB30BD2DE9F04707468846B9
:103DC00091461D46DDF820A04FEAEA0A002413E0E0
:103DD00009EB0400C1B24046FFF73FFE002607E0B2
:103DE00004FB0561785C0121FFF7EEFD701CC6B293
:103DF000AE42F5DB601CC4B25445E9DBBDE8F08798
:103E00000146802902DB4842C0B270470846FCE701
:103E100002780B7803700A707047302900DB0021AC
:103E2000542800DB0020FA4A51701070704730B5FA
:103E300000210846FFF711FE002412E000250CE0E7
:103E4000C4EBC40101EB4101F24A02EB8101485D80
:103E50000121FFF7B9FD681C85B2542DF0DB601C11
:103E600084B2062CEADB30BD2DE9FC4F05460E4638
:103E700091469A464FEAE60BA84606EB0A00401E1A
:103E8000C0F3C700019005EB0900401EC0B20090CE
:103E90005C4617E021464046FFF7DFFD47460CE051
:103EA000C4EBC40101EB4101DA4A02EB8101C85DB8
:103EB0000121FFF789FD781CC7B200988742EFDD2A
:103EC000601CC4B201988442E4DDBDE8FC8F70B58B
:103ED00005460E4631462846FFF79FFFCC484078FE
:103EE000C310CB494878C11700EB5171C910A0EB42
:103EF000C101CCB2C3EBC30000EB4000C54901EBEC
:103F00008000C3490978405C0121A1408843C3EB8C
:103F1000C30101EB4101BF4A02EB8101BC4A1278A7
:103F20008854D4B1581CC0EBC00000EB4000B94924
:103F300001EB8000B6490978405CC4F10802FF211A
:103F400011418843591CC1EBC10101EB4101B14A48
:103F500002EB8101AE4A1278885470BD30B501463B
:103F6000AB4B5B78D810AA4C6378DC1703EB547426
:103F7000E410A3EBC404E2B2C0EBC00303EB4303C1
:103F8000A44C04EB8303A24C24781B5D01FA02F4D9
:103F90002343C0EBC00404EB44049E4D05EB8404B2
:103FA0009B4D2D786355D2B1431CC3EBC30303EB88
:103FB0004303984C04EB8303954C24781B5DC2F1BA
:103FC000080441FA04F42343441CC4EBC40404EB86
:103FD0004404904D05EB84048D4D2D7863558C4B36
:103FE0001B78532B0DDB0023894C237023465B7811
:103FF0000833637023465B78302B07DB0023637044
:1040000004E0834B1B785B1C814C237030BD30B5C2
:104010000022002113E000200AE00023C1EBC104CC
:1040200004EB44047B4D05EB84042354431CD8B2B9
:104030005428F2DB02F10803DAB24B1CD9B206298C
:10404000E9DB30BD00B5FFF7E2FFFFF7F0FE00BD92
:104050002DE9F04304460D4616461F46E819C7B23F
:104060003019C6B2A9460FE0A04607E049464046CF
:10407000FFF72DFF08F1010000F0FF08B045F5DB68
:1040800009F1010000F0FF09B945EDDBBDE8F0835F
:10409000F0B504460D4616461F463B4632462946B5
:1040A0002046FFF7D5FF3B46324629462046FFF71C
:1040B000DBFEF0BD30B5054655480078564908701E
:1040C00053484078487000240BE0A5F1200101EB33
:1040D0004101524A02EB4101085DFFF73FFF601CBE
:1040E000C4B2062CF1DB30BD10B504462046FFF704
:1040F000E1FF494A5178107808230622FFF7B4FE01
:1041000010BD70B506460C46154629462046FFF7F9
:1041100084FE3046FFF7CEFF70BD70B504460D46F5
:104120001646324629462046FFF7EBFF3A4A5178B9
:10413000107808230622FFF797FE70BD30B50446BD
:10414000002505E014F8010BFFF7B4FF681CC5B2A9
:1041500020780028F6D1284630BDF0B50646304616
:10416000FFF7ECFF04462C48007804EB4401C0EB59
:104170004100801F542190FBF1F0801CC5B22648FD
:104180004178681E082202FB1010C7B2E806030E31
:10419000542239460020FFF767FE2046F0BD70B577
:1041A00006460C46154629462046FFF736FE3046A1
:1041B000FFF7C4FF70BD2DE9F04107460C461546D8
:1041C0002A4621463846FFF7EAFF0646C4F1540066
:1041D00006EB4601C0EB4100401E542190FBF1F07C
:1041E000801C00F0FF084FEAC860030E54222946E5
:1041F0000020FFF739FE3046BDE8F081F0B50546F6
:104200000F46164631463846FFF707FE002411E0F8
:1042100050000020180200205200002054530008D3
:10422000A5F12001F84A02EB0111085DFFF796FEA7
:10423000601CC4B2082CF3DB06F10800C1B238469A
:10424000FFF7EBFD082409E0A5F12001EE4A02EB9F
:104250000111085DFFF782FE601CC4B2102CF3DB75
:10426000F0BD70B506460C4615462A462146304636
:10427000FFF7C4FF1023082229462046FFF7F4FD6C
:1042800070BD2DE9F04104460D46174600264FF05B
:10429000010816E005EBC6004C2808DD00250026C5
:1042A00007F11000C7B208F1010000F0FF0805EBAC
:1042B000C602D1B220783A46FFF7A0FF641C701CFA
:1042C000C6B220780028E5D14046BDE8F081F0B5BF
:1042D00007460C4615462A4621463846FFF7D1FFC9
:1042E0000646701E10218140CBB25422294620463A
:1042F000FFF7BAFD3046F0BDF0B505460F4616464D
:1043000031463846FFF789FD002404E0285DFFF7B9
:1043100025FE601CC4B2102CF8DB06F10800C1B207
:104320003846FFF77AFD102404E0285DFFF716FEFB
:10433000601CC4B2202CF8DBF0BD70B506460C46FC
:1043400015462A4621463046FFF7D6FF10231A4667
:1043500029462046FFF788FD70BD2DE9F047064647
:104360000D46174698464FF000094FF0010A002409
:104370001AE005EB0410442808DD0025A94607F1E2
:104380001000C7B20AF1010000F0FF0A05EB0912A4
:10439000D1B206EB44103A46FFF7AEFF09F1010037
:1043A00000F0FF09601CC4B24445E2DB5046BDE8A2
:1043B000F0872DE9F04107460C46154698464346DE
:1043C0002A4621463846FFF7C8FF0646701E1021D0
:1043D0008140CBB2542229462046FFF745FD3046A6
:1043E000BDE8F08170B5CB10CC1701EB5474E4102C
:1043F000A1EBC4050124AC40C3EBC30505EB4505A7
:10440000824E06EB85052D5C2C43C3EBC30505EB03
:10441000450506EB85052C5470BD30B504460D46A8
:1044200029462046FFF7DEFF0823012229462046C1
:10443000FFF71AFD30BD02468A4201DC1046704784
:104440000846FCE702468A4201D1002070479142AB
:1044500001DD0120FAE74FF0FF30F7E72DE9FF4FCC
:1044600082B005460C469146A9EB0501C8B2FFF79C
:10447000C7FC01900599091BC8B2FFF7C1FC009069
:104480009DF800009DF80410884205DD012669466C
:1044900001A8FFF7BDFC00E0002649462846FFF7CB
:1044A000D1FF834620460599FFF7CCFF07469DF8CC
:1044B0000400C0F101019DF8000088400FFA80F867
:1044C0004FF0000A24E021462846FFF78BFFB8F1A1
:1044D000000F0CDB1EB105EB0B00C5B201E0E019CB
:1044E000C4B29DF80400A8EB40000FFA80F816B1A2
:1044F000E019C4B202E005EB0B00C5B29DF8000064
:1045000008EB40000FFA80F80AF1010000F0FF0A02
:104510009DF804008245D6DD06B0BDE8F08F2DE998
:10452000F04F07460C4615461E46E91BC8B2FFF77A
:1045300067FC401C00F0FF08311BC8B2FFF760FCAD
:10454000401C00F0FF0929463846FFF774FF8246F9
:1045500031462046FFF76FFF834633462A46214601
:104560003846FFF77BFF4B46424659465046FFF719
:104570007BFCBDE8F08FF0B505460E4600240FE049
:10458000671C05EB47077B78671C15F8172005EBC0
:104590004407797815F81400FFF760FF601CC4B277
:1045A000B442EDDBF0BD30B504460D462946204649
:1045B000FFF7E1FFFFF73BFC30BDF0B504460D46C9
:1045C00016461F46A019C2B22B4629462046FFF7C1
:1045D00045FFE919CBB2A119CAB2A119C8B229463F
:1045E000FFF73CFFE819C3B2224629462046FFF7F1
:1045F00035FFE819C3B2A019C2B2E819C1B220460A
:10460000FFF72CFFF0BD000018560008180200202C
:10461000F0B506460F4614461D462B46224639463F
:104620003046FFF7CAFF681CC3B2601CC2B23946ED
:104630003046FFF719FCF0BD2DE9F04306460F4662
:104640009046002445460520A0EB880944E07A19ED
:10465000D1B23219D0B2FFF7C5FE7A1BD1B23219EE
:10466000D0B2FFF7BFFE7A19D1B2321BD0B2FFF73A
:10467000B9FE7A1BD1B2321BD0B2FFF7B3FE3A19A2
:10468000D1B27219D0B2FFF7ADFE3A1BD1B2721996
:10469000D0B2FFF7A7FE3A19D1B2721BD0B2FFF722
:1046A000A1FE3A1BD1B2721BD0B2FFF79BFE601C79
:1046B000C4B2B9F1000F06DA0C2000EBC400484484
:1046C0000FFA80F908E0681EC5B2E000A0EBC50053
:1046D000143048440FFA80F9AC42B8DDBDE8F083ED
:1046E000F0B505460E461446224631462846FFF7E9
:1046F000A3FF012707EB4407FBB2012707EB4407A1
:10470000FAB2371BF9B22F1BF8B2FFF7ADFBF0BDC1
:104710002DE9F04F05460E4617469846DDF82490E1
:104720004FF0000BA9F10100012101EBE00000F0C6
:10473000FF09002417E007EBC400C1B23046FFF7C1
:104740006CFB4FF0000A0AE059464A1C1FFA82FB34
:10475000685CFFF703FC0AF1010000F0FF0AC245A4
:10476000F2DB601CC4B24C45E5DBBDE8F08F2DE9FF
:10477000F84180460C4615461E46079F33462A469A
:10478000214640460097FFF7C3FF3B463246294685
:104790002046FFF769FBBDE8F8812DE9FE4F81EA6D
:1047A000030404F0004421F0004100944FF0000B9A
:1047B00023F0004350EA01045ED052EA03045BD0C8
:1047C000C3F30A54C1F30A552C44A4F2F334019400
:1047D000A0FB0254C1F3130141F48011C3F313038E
:1047E00043F4801301FB024400FB034E840A970A42
:1047F00044EA815447EA8357A4FB076802958D0A6F
:1048000005FB07854FEA932C04FB0C542705029DFA
:104810004FEA065847EA1637B5EB08056EEB070C6A
:10482000870E920E47EA811742EA8312A7FB020124
:10483000B6EB0B0164EB00042B0D43EA0C335E185E
:1048400044EB1C50DA465146E7FB0201C5F3130462
:104850004FEA0B3343EA14534FEA0432019C43EA14
:104860000603A4F10C040294009CCDE900B400F00E
:1048700049F803B0BDE8F08F00200146F9E70EB516
:1048800040F2334102910021CDE900110A460B4666
:1048900000F038F803B000BDC1F30A5210B5C1F3FF
:1048A000130140F2FF3341F480119A4201DA0020F3
:1048B00010BD40F233439A42A2F2334203DC52422B
:1048C00000F003F810BD904010BD202A04DB203A10
:1048D00021FA02F00021704721FA02F3D040C2F120
:1048E0002002914008431946704710B5002B08DAA2
:1048F000401C41F1000192185B411A4301D120F0A4
:10490000010010BD2DE9F04D92469B4611B1B1FA60
:1049100081F202E0B0FA80F22032904600F052F8C4
:1049200004460F4640EA0A0041EA0B0153465A4644
:10493000084313D0114653EA010019D0C8F14002D0
:104940005046FFF7C2FF05460E46504659464246BE
:1049500000F038F8084305D0012004E0204639462D
:10496000BDE8F08D0020054346EAE0762C4337434E
:104970000A986305E40AA0EB08000022FD0A44EA55
:1049800047540A3002D500200146E9E70105101915
:104990006941DDE9084500196941BDE8F04DA4E72A
:1049A000064C074D06E0E06840F0010394E807007C
:1049B00098471034AC42F6D3FBF79CFBA85C000888
:1049C000C85C0008202A04DB203A00FA02F100202B
:1049D00070479140C2F1200320FA03F3194390403D
:1049E000704702E008C8121F08C1002AFAD17047B8
:1049F0007047002001E001C1121F002AFBD170475F
:104A00000000000000000000005F00000000070040
:104A1000070000147F147F1400242A7F2A12002329
:104A20001308646200364955225000000503000057
:104A300000001C224100000041221C000014083E1E
:104A400008140008083E0808000050300000000864
:104A50000808080800006060000000201008040238
:104A6000003E5149453E0000427F400000426151F6
:104A70004946002141454B31001814127F10002790
:104A800045454539003C4A49493000017109050353
:104A900000364949493600064949291E0000363684
:104AA00000000000563600000008142241000014E7
:104AB00014141414000041221408000201510906C4
:104AC00000324979413E007E1111117E007F494933
:104AD0004936003E41414122007F4141221C007F76
:104AE00049494941007F09090901003E4149497A84
:104AF000007F0808087F0000417F410000204041FE
:104B00003F01007F08142241007F40404040007F69
:104B1000020C027F007F0408107F003E4141413EAD
:104B2000007F09090906003E4151215E007F0919F5
:104B300029460046494949310001017F0101003FF2
:104B40004040403F001F2040201F003F4038403F72
:104B500000631408146300070870080700615149D6
:104B6000454300007F41410000020408102000007E
:104B700041417F00000402010204004040404040E7
:104B8000000001020400002054545478007F48447F
:104B9000443800384444442000384444487F0038B6
:104BA0005454541800087E090102000C5252523E1F
:104BB000007F080404780000447D40000020404449
:104BC0003D00007F102844000000417F4000007C31
:104BD00004180478007C08040478003844444438FD
:104BE000007C1414140800081414187C007C0804B9
:104BF000040800485454542000043F444020003C22
:104C00004040207C001C2040201C003C4030403CA8
:104C1000004428102844000C5050503C0044645478
:104C20004C440000083641000000007F00000000F6
:104C30004136080000100808100800784641467800
:104C40000008082A1C0800081C2A08080004027F23
:104C500002040010207F20100015167C161500039A
:104C60003B4444440003037C1414004428102844AB
:104C70000008082A080800384448302C00F854542A
:104C80005428002854544420003E4909090600389D
:104C9000444C542400403F08081F001F08083F40B0
:104CA000003C4A4A4A3C00586404645800443C04AE
:104CB0007C440030281028180030282428300008B0
:104CC0001C08080E000000000000000000000000AA
:104CD00000000000000000F80000000000000033A9
:104CE0003000000000100C06100C06000000000050
:104CF0000000000040C07840C0784000043F040439
:104D00003F040400007088FC08300000001820FFF9
:104D1000211E0000F008F000E018000000211C0334
:104D20001E211E0000F00888700000001E212324B0
:104D30001927211010160E000000000000000000CE
:104D400000000000000000E018040200000000075E
:104D50001820400000020418E00000000040201865
:104D600007000000404080F0804040000202010F38
:104D700001020200000000F0000000000101011F1C
:104D800001010100000000000000000080B0700080
:104D90000000000000000000000000000001010110
:104DA000010101010000000000000000003030009F
:104DB0000000000000000000806018040060180679
:104DC0000100000000E010080810E000000F1020B3
:104DD00020100F00001010F8000000000020203FFD
:104DE0002020000000700808088870000030282487
:104DF0002221300000300888884830000018202028
:104E000020110E000000C02010F80000000704244C
:104E1000243F240000F80888880808000019212091
:104E200020110E0000E0108888180000000F1120EB
:104E300020110E0000380808C83808000000003FA4
:104E4000000000000070880808887000001C222103
:104E500021221C0000E010080810E00000003122B0
:104E600022110F00000000C0C00000000000003050
:104E700030000000000000800000000000008060A2
:104E80000000000000008040201008000001020423
:104E9000081020004040404040404000040404040A
:104EA00004040400000810204080000000201008C6
:104EB00004020100007048080808F00000000030FB
:104EC00036010000C030C828E810E0000718272489
:104ED00023140B000000C038E0000000203C230237
:104EE0000227382008F8888888700000203F20209A
:104EF00020110E00C03008080808380007182020CC
:104F00002010080008F808080810E000203F2020C2
:104F100020100F0008F88888E8081000203F2020A3
:104F20002320180008F88888E8081000203F200097
:104F300003000000C03008080838000007182020CF
:104F4000221E020008F808000008F808203F21018E
:104F500001213F20000808F8080800000020203F39
:104F60002020000000000808F8080800C0808080A9
:104F70007F00000008F888C028180800203F2001A2
:104F80002638200008F8080000000000203F2020FC
:104F90002020300008F8F800F8F80800203F003F13
:104FA000003F200008F830C00008F808203F20002B
:104FB00007183F00E01008080810E0000F1020203C
:104FC00020100F0008F808080808F000203F210111
:104FD00001010000E01008080810E0000F18242468
:104FE00038504F0008F8888888887000203F2000DB
:104FF000030C302000708808080838000038202191
:1050000021221C00180808F8080818000000203F9A
:105010002000000008F808000008F808001F202001
:1050200020201F000878880000C8380800000738D2
:105030000E010000F80800F80008F800033C070023
:10504000073C0300081868808068180820302C038B
:10505000032C30200838C800C83808000000203F62
:105060002000000010080808C83808002038262151
:1050700020201800000000FE020202000000007F55
:1050800040404000000C30C0000000000000000163
:105090000638C00000020202FE000000004040404E
:1050A0007F00000000000402020204000000000073
:1050B00000000000000000000000000080808080F0
:1050C00080808080000202040000000000000000D8
:1050D0000000000000008080808000000019242271
:1050E00022223F2008F8008080000000003F1120AD
:1050F00020110E000000008080800000000E1120B2
:1051000020201100000000808088F800000E11208F
:1051100020103F200000808080800000001F22229D
:1051200022221300008080F0888888180020203F09
:10513000202000000000808080808000006B94941C
:105140009493600008F8008080800000203F2100D8
:1051500000203F2000809898000000000020203FA1
:1051600020200000000000809898000000C080808F
:10517000807F000008F8000080808000203F24022B
:105180002D302000000808F8000000000020203F1B
:10519000202000008080808080808000203F2000D0
:1051A0003F20003F8080008080800000203F210061
:1051B00000203F200000808080800000001F202011
:1051C00020201F00808000808000000080FFA12040
:1051D00020110E000000008080808000000E112051
:1051E00020A0FF80808080008080800020203F21E0
:1051F0002000010000008080808080000033242493
:1052000024241900008080E0808000000000001F3E
:10521000202000008080000000808000001F2020EF
:1052200020103F20808080000080808000010E30B0
:105230000806010080800080008080800F300C0311
:105240000C300F0000808000808080000020312E14
:105250000E312000808080000080808080818E70F0
:105260001806010000808080808080000021302CA2
:105270002221300000000000807C020200000000BB
:10528000003F404000000000FF0000000000000060
:10529000FF0000000002027C800000000040403F50
:1052A00000000000000601010202040400000000EA
:1052B000000000001C3E2222222222222222222240
:1052C000222222222222223E1C3E2222222222228C
:1052D000223E1C3E2222222222223E3E1C3E22222E
:1052E0002222223E3E3E1C3E222222223E3E3E3EC4
:1052F0001C3E2222223E3E3E3E3E1C3E22223E3E9E
:105300003E3E3E3E1C3E223E3E3E3E3E3E3E1C3E1D
:105310003E3E3E3E3E3E3E3E3E2222222222222271
:10532000222222222222222222222222222222225D
:10533000222222222222222222222222222222224D
:10534000222222222222222222222222222222223D
:105350002222223E0000000000000000005F00004A
:1053600000000700070000147F147F1400242A7F28
:105370002A120023130864620036495522500000A7
:105380000503000000001C224100000041221C0017
:105390000014083E08140008083E080800005030B9
:1053A00000000008080808080000606000000020F5
:1053B00010080402003E5149453E0000427F400073
:1053C000004261514946002141454B3100181412F9
:1053D0007F10002745454539003C4A4949300001C6
:1053E0007109050300364949493600064949291E15
:1053F0000000363600000000563600000008142277
:105400004100001414141414000041221408000276
:105410000151090600324979413E007E1111117E89
:10542000007F49494936003E41414122007F4141C8
:10543000221C007F49494941007F09090901003EBA
:105440004149497A007F0808087F0000417F4100F8
:10545000002040413F01007F08142241007F40406E
:105460004040007F020C027F007F0408107F003E56
:105470004141413E007F09090906003E4151215E3C
:10548000007F091929460046494949310001017F39
:105490000101003F4040403F001F2040201F003FCF
:1054A0004038403F00631408146300070870080781
:1054B00000615149454300007F414100000204085A
:1054C0001020000041417F0000040201020400405E
:1054D0004040404000000102040000205454547831
:1054E000007F484444380038444444200038444451
:1054F000487F00385454541800087E090102000CFB
:105500005252523E007F080404780000447D40005F
:10551000002040443D00007F102844000000417FEF
:105520004000007C04180478007C080404780038EB
:1055300044444438007C1414140800081414187CE3
:10554000007C0804040800485454542000043F44DC
:105550004020003C4040207C001C2040201C003C9F
:105560004030403C004428102844000C5050503C2F
:10557000004464544C440000083641000000007FA1
:1055800000000000413608000010080810080078EC
:10559000464146780008082A1C0800081C2A08080A
:1055A0000004027F02040010207F20100015167CEA
:1055B000161500033B4444440003037C14140044C8
:1055C000281028440008082A080800384448302CCD
:1055D00000F854545428002854544420003E4909EB
:1055E00009060038444C542400403F08081F001F9F
:1055F00008083F40003C4A4A4A3C0058640464584A
:1056000000443C047C440030281028180030282432
:10561000283000081C08080E0000000000000000F0
:105620000000000000000000000000F80000000082
:10563000000000333000000000100C06100C0600C3
:10564000000000000000000040C07840C07840002A
:10565000043F04043F040400007088FC083000008C
:10566000001820FF211E0000F008F000E0180000E4
:1056700000211C031E211E0000F00888700000009D
:105680001E2123241927211010160E0000000000EF
:105690000000000000000000000000E0180402000C
:1056A000000000071820400000020418E00000007D
:1056B0000040201807000000404080F0804040007B
:1056C0000202010F01020200000000F000000000D1
:1056D0000101011F010101000000000000000000A5
:1056E00080B070000000000000000000000000001A
:1056F00000010101010101010000000000000000A3
:10570000003030000000000000000000806018043D
:10571000006018060100000000E010080810E0001A
:10572000000F102020100F00001010F800000000E3
:105730000020203F2020000000700808088870002A
:1057400000302824222130000030088888483000AA
:105750000018202020110E000000C02010F80000CA
:1057600000070424243F240000F808888808080063
:105770000019212020110E0000E010888818000078
:10578000000F112020110E0000380808C83808004A
:105790000000003F000000000070880808887000CA
:1057A000001C222121221C0000E010080810E0004B
:1057B0000000312222110F00000000C0C0000000D4
:1057C00000000030300000000000008000000000F9
:1057D00000008060000000000000804020100800F1
:1057E00000010204081020004040404040404000BA
:1057F0000404040404040400000810204080000095
:105800000020100804020100007048080808F00099
:105810000000003036010000C030C828E810E00069
:105820000718272423140B000000C038E0000000F4
:10583000203C23020227382008F88888887000005E
:10584000203F202020110E00C03008080808380032
:10585000071820202010080008F808080810E000A9
:10586000203F202020100F0008F88888E80810004A
:10587000203F20202320180008F88888E80810001E
:10588000203F200003000000C03008080838000056
:1058900007182020221E020008F808000008F80857
:1058A000203F210101213F20000808F808080000DE
:1058B0000020203F2020000000000808F808080011
:1058C000C08080807F00000008F888C02818080089
:1058D000203F20012638200008F8080000000000C2
:1058E000203F20202020300008F8F800F8F80800B9
:1058F000203F003F003F200008F830C00008F808B3
:10590000203F200007183F00E01008080810E000C2
:105910000F10202020100F0008F808080808F000D9
:10592000203F210101010000E01008080810E000FC
:105930000F18242438504F0008F888888888700091
:10594000203F2000030C3020007088080808380031
:105950000038202121221C00180808F80808180027
:105960000000203F2000000008F808000008F808A8
:10597000001F202020201F000878880000C8380859
:10598000000007380E010000F80800F80008F800D1
:10599000033C0700073C030008186880806818086B
:1059A00020302C03032C30200838C800C8380800E9
:1059B0000000203F2000000010080808C838080038
:1059C0002038262120201800000000FE02020200DC
:1059D0000000007F40404000000C30C0000000008C
:1059E000000000010638C00000020202FE000000B4
:1059F000004040407F00000000000402020204005A
:105A00000000000000000000000000000000000096
:105A1000808080808080808000020204000000007E
:105A20000000000000000000000080808080000076
:105A30000019242222223F2008F800808000000064
:105A4000003F112020110E00000000808080000027
:105A5000000E112020201100000000808088F80036
:105A6000000E112020103F20000080808080000068
:105A7000001F222222221300008080F088888818CC
:105A80000020203F202000000000808080808000D7
:105A9000006B94949493600008F80080808000006C
:105AA000203F210000203F20008098980000000047
:105AB0000020203F20200000000000809898000077
:105AC00000C08080807F000008F800008080800097
:105AD000203F24022D302000000808F800000000BC
